{
	"contracts/Groth16VerifyBn254.sol": {
		"Groth16VerifyBn254": {
			"abi": [
				{
					"inputs": [],
					"name": "getPairingResult",
					"outputs": [
						{
							"internalType": "bool",
							"name": "",
							"type": "bool"
						}
					],
					"stateMutability": "view",
					"type": "function"
				},
				{
					"inputs": [],
					"name": "pairingResult",
					"outputs": [
						{
							"internalType": "bool",
							"name": "",
							"type": "bool"
						}
					],
					"stateMutability": "view",
					"type": "function"
				},
				{
					"inputs": [
						{
							"internalType": "uint256[8]",
							"name": "proof",
							"type": "uint256[8]"
						},
						{
							"internalType": "uint256[12]",
							"name": "input",
							"type": "uint256[12]"
						},
						{
							"components": [
								{
									"components": [
										{
											"internalType": "uint256",
											"name": "X",
											"type": "uint256"
										},
										{
											"internalType": "uint256",
											"name": "Y",
											"type": "uint256"
										}
									],
									"internalType": "struct Pairing.G1Point",
									"name": "alpha1",
									"type": "tuple"
								},
								{
									"components": [
										{
											"internalType": "uint256[2]",
											"name": "X",
											"type": "uint256[2]"
										},
										{
											"internalType": "uint256[2]",
											"name": "Y",
											"type": "uint256[2]"
										}
									],
									"internalType": "struct Pairing.G2Point",
									"name": "beta2",
									"type": "tuple"
								},
								{
									"components": [
										{
											"internalType": "uint256[2]",
											"name": "X",
											"type": "uint256[2]"
										},
										{
											"internalType": "uint256[2]",
											"name": "Y",
											"type": "uint256[2]"
										}
									],
									"internalType": "struct Pairing.G2Point",
									"name": "gamma2",
									"type": "tuple"
								},
								{
									"components": [
										{
											"internalType": "uint256[2]",
											"name": "X",
											"type": "uint256[2]"
										},
										{
											"internalType": "uint256[2]",
											"name": "Y",
											"type": "uint256[2]"
										}
									],
									"internalType": "struct Pairing.G2Point",
									"name": "delta2",
									"type": "tuple"
								},
								{
									"components": [
										{
											"internalType": "uint256",
											"name": "X",
											"type": "uint256"
										},
										{
											"internalType": "uint256",
											"name": "Y",
											"type": "uint256"
										}
									],
									"internalType": "struct Pairing.G1Point[13]",
									"name": "public_input",
									"type": "tuple[13]"
								}
							],
							"internalType": "struct Groth16VerifyBn254.VerifyingKey",
							"name": "vk",
							"type": "tuple"
						}
					],
					"name": "verifyProof",
					"outputs": [],
					"stateMutability": "nonpayable",
					"type": "function"
				}
			],
			"devdoc": {
				"kind": "dev",
				"methods": {},
				"version": 1
			},
			"evm": {
				"assembly": "    /* \"contracts/Groth16VerifyBn254.sol\":1201:2726  contract Groth16VerifyBn254 {... */\n  mstore(0x40, 0x80)\n  callvalue\n  dup1\n  iszero\n  tag_1\n  jumpi\n  revert(0x00, 0x00)\ntag_1:\n  pop\n  dataSize(sub_0)\n  dup1\n  dataOffset(sub_0)\n  0x00\n  codecopy\n  0x00\n  return\nstop\n\nsub_0: assembly {\n        /* \"contracts/Groth16VerifyBn254.sol\":1201:2726  contract Groth16VerifyBn254 {... */\n      mstore(0x40, 0x80)\n      callvalue\n      dup1\n      iszero\n      tag_1\n      jumpi\n      revert(0x00, 0x00)\n    tag_1:\n      pop\n      jumpi(tag_2, lt(calldatasize, 0x04))\n      shr(0xe0, calldataload(0x00))\n      dup1\n      0xaaae5545\n      eq\n      tag_3\n      jumpi\n      dup1\n      0xb7718040\n      eq\n      tag_4\n      jumpi\n      dup1\n      0xc110f9f1\n      eq\n      tag_5\n      jumpi\n    tag_2:\n      revert(0x00, 0x00)\n        /* \"contracts/Groth16VerifyBn254.sol\":1860:2724  function verifyProof(... */\n    tag_3:\n      tag_6\n      0x04\n      dup1\n      calldatasize\n      sub\n      dup2\n      add\n      swap1\n      tag_7\n      swap2\n      swap1\n      tag_8\n      jump\t// in\n    tag_7:\n      tag_9\n      jump\t// in\n    tag_6:\n      stop\n        /* \"contracts/Groth16VerifyBn254.sol\":1772:1856  function getPairingResult() view public returns(bool){... */\n    tag_4:\n      tag_10\n      tag_11\n      jump\t// in\n    tag_10:\n      mload(0x40)\n      tag_12\n      swap2\n      swap1\n      tag_13\n      jump\t// in\n    tag_12:\n      mload(0x40)\n      dup1\n      swap2\n      sub\n      swap1\n      return\n        /* \"contracts/Groth16VerifyBn254.sol\":1742:1767  bool public pairingResult */\n    tag_5:\n      tag_14\n      tag_15\n      jump\t// in\n    tag_14:\n      mload(0x40)\n      tag_16\n      swap2\n      swap1\n      tag_13\n      jump\t// in\n    tag_16:\n      mload(0x40)\n      dup1\n      swap2\n      sub\n      swap1\n      return\n        /* \"contracts/Groth16VerifyBn254.sol\":1860:2724  function verifyProof(... */\n    tag_9:\n        /* \"contracts/Groth16VerifyBn254.sol\":1987:2006  Proof memory _proof */\n      tag_18\n      tag_19\n      jump\t// in\n    tag_18:\n        /* \"contracts/Groth16VerifyBn254.sol\":2023:2058  Pairing.G1Point(proof[0], proof[1]) */\n      mload(0x40)\n      dup1\n      0x40\n      add\n      0x40\n      mstore\n      dup1\n        /* \"contracts/Groth16VerifyBn254.sol\":2039:2044  proof */\n      dup6\n        /* \"contracts/Groth16VerifyBn254.sol\":2045:2046  0 */\n      0x00\n        /* \"contracts/Groth16VerifyBn254.sol\":2039:2047  proof[0] */\n      0x08\n      dup2\n      lt\n      tag_20\n      jumpi\n      tag_21\n      tag_22\n      jump\t// in\n    tag_21:\n    tag_20:\n      0x20\n      mul\n      add\n      mload\n        /* \"contracts/Groth16VerifyBn254.sol\":2023:2058  Pairing.G1Point(proof[0], proof[1]) */\n      dup2\n      mstore\n      0x20\n      add\n        /* \"contracts/Groth16VerifyBn254.sol\":2049:2054  proof */\n      dup6\n        /* \"contracts/Groth16VerifyBn254.sol\":2055:2056  1 */\n      0x01\n        /* \"contracts/Groth16VerifyBn254.sol\":2049:2057  proof[1] */\n      0x08\n      dup2\n      lt\n      tag_23\n      jumpi\n      tag_24\n      tag_22\n      jump\t// in\n    tag_24:\n    tag_23:\n      0x20\n      mul\n      add\n      mload\n        /* \"contracts/Groth16VerifyBn254.sol\":2023:2058  Pairing.G1Point(proof[0], proof[1]) */\n      dup2\n      mstore\n      pop\n        /* \"contracts/Groth16VerifyBn254.sol\":2012:2018  _proof */\n      dup2\n        /* \"contracts/Groth16VerifyBn254.sol\":2012:2020  _proof.A */\n      0x00\n      add\n        /* \"contracts/Groth16VerifyBn254.sol\":2012:2058  _proof.A = Pairing.G1Point(proof[0], proof[1]) */\n      dup2\n      swap1\n      mstore\n      pop\n        /* \"contracts/Groth16VerifyBn254.sol\":2075:2134  Pairing.G2Point([proof[2], proof[3]], [proof[4], proof[5]]) */\n      mload(0x40)\n      dup1\n      0x40\n      add\n      0x40\n      mstore\n      dup1\n      mload(0x40)\n      dup1\n      0x40\n      add\n      0x40\n      mstore\n      dup1\n        /* \"contracts/Groth16VerifyBn254.sol\":2092:2097  proof */\n      dup8\n        /* \"contracts/Groth16VerifyBn254.sol\":2098:2099  2 */\n      0x02\n        /* \"contracts/Groth16VerifyBn254.sol\":2092:2100  proof[2] */\n      0x08\n      dup2\n      lt\n      tag_25\n      jumpi\n      tag_26\n      tag_22\n      jump\t// in\n    tag_26:\n    tag_25:\n      0x20\n      mul\n      add\n      mload\n        /* \"contracts/Groth16VerifyBn254.sol\":2075:2134  Pairing.G2Point([proof[2], proof[3]], [proof[4], proof[5]]) */\n      dup2\n      mstore\n      0x20\n      add\n        /* \"contracts/Groth16VerifyBn254.sol\":2102:2107  proof */\n      dup8\n        /* \"contracts/Groth16VerifyBn254.sol\":2108:2109  3 */\n      0x03\n        /* \"contracts/Groth16VerifyBn254.sol\":2102:2110  proof[3] */\n      0x08\n      dup2\n      lt\n      tag_27\n      jumpi\n      tag_28\n      tag_22\n      jump\t// in\n    tag_28:\n    tag_27:\n      0x20\n      mul\n      add\n      mload\n        /* \"contracts/Groth16VerifyBn254.sol\":2075:2134  Pairing.G2Point([proof[2], proof[3]], [proof[4], proof[5]]) */\n      dup2\n      mstore\n      pop\n      dup2\n      mstore\n      0x20\n      add\n      mload(0x40)\n      dup1\n      0x40\n      add\n      0x40\n      mstore\n      dup1\n        /* \"contracts/Groth16VerifyBn254.sol\":2114:2119  proof */\n      dup8\n        /* \"contracts/Groth16VerifyBn254.sol\":2120:2121  4 */\n      0x04\n        /* \"contracts/Groth16VerifyBn254.sol\":2114:2122  proof[4] */\n      0x08\n      dup2\n      lt\n      tag_29\n      jumpi\n      tag_30\n      tag_22\n      jump\t// in\n    tag_30:\n    tag_29:\n      0x20\n      mul\n      add\n      mload\n        /* \"contracts/Groth16VerifyBn254.sol\":2075:2134  Pairing.G2Point([proof[2], proof[3]], [proof[4], proof[5]]) */\n      dup2\n      mstore\n      0x20\n      add\n        /* \"contracts/Groth16VerifyBn254.sol\":2124:2129  proof */\n      dup8\n        /* \"contracts/Groth16VerifyBn254.sol\":2130:2131  5 */\n      0x05\n        /* \"contracts/Groth16VerifyBn254.sol\":2124:2132  proof[5] */\n      0x08\n      dup2\n      lt\n      tag_31\n      jumpi\n      tag_32\n      tag_22\n      jump\t// in\n    tag_32:\n    tag_31:\n      0x20\n      mul\n      add\n      mload\n        /* \"contracts/Groth16VerifyBn254.sol\":2075:2134  Pairing.G2Point([proof[2], proof[3]], [proof[4], proof[5]]) */\n      dup2\n      mstore\n      pop\n      dup2\n      mstore\n      pop\n        /* \"contracts/Groth16VerifyBn254.sol\":2064:2070  _proof */\n      dup2\n        /* \"contracts/Groth16VerifyBn254.sol\":2064:2072  _proof.B */\n      0x20\n      add\n        /* \"contracts/Groth16VerifyBn254.sol\":2064:2134  _proof.B = Pairing.G2Point([proof[2], proof[3]], [proof[4], proof[5]]) */\n      dup2\n      swap1\n      mstore\n      pop\n        /* \"contracts/Groth16VerifyBn254.sol\":2151:2186  Pairing.G1Point(proof[6], proof[7]) */\n      mload(0x40)\n      dup1\n      0x40\n      add\n      0x40\n      mstore\n      dup1\n        /* \"contracts/Groth16VerifyBn254.sol\":2167:2172  proof */\n      dup6\n        /* \"contracts/Groth16VerifyBn254.sol\":2173:2174  6 */\n      0x06\n        /* \"contracts/Groth16VerifyBn254.sol\":2167:2175  proof[6] */\n      0x08\n      dup2\n      lt\n      tag_33\n      jumpi\n      tag_34\n      tag_22\n      jump\t// in\n    tag_34:\n    tag_33:\n      0x20\n      mul\n      add\n      mload\n        /* \"contracts/Groth16VerifyBn254.sol\":2151:2186  Pairing.G1Point(proof[6], proof[7]) */\n      dup2\n      mstore\n      0x20\n      add\n        /* \"contracts/Groth16VerifyBn254.sol\":2177:2182  proof */\n      dup6\n        /* \"contracts/Groth16VerifyBn254.sol\":2183:2184  7 */\n      0x07\n        /* \"contracts/Groth16VerifyBn254.sol\":2177:2185  proof[7] */\n      0x08\n      dup2\n      lt\n      tag_35\n      jumpi\n      tag_36\n      tag_22\n      jump\t// in\n    tag_36:\n    tag_35:\n      0x20\n      mul\n      add\n      mload\n        /* \"contracts/Groth16VerifyBn254.sol\":2151:2186  Pairing.G1Point(proof[6], proof[7]) */\n      dup2\n      mstore\n      pop\n        /* \"contracts/Groth16VerifyBn254.sol\":2140:2146  _proof */\n      dup2\n        /* \"contracts/Groth16VerifyBn254.sol\":2140:2148  _proof.C */\n      0x40\n      add\n        /* \"contracts/Groth16VerifyBn254.sol\":2140:2186  _proof.C = Pairing.G1Point(proof[6], proof[7]) */\n      dup2\n      swap1\n      mstore\n      pop\n        /* \"contracts/Groth16VerifyBn254.sol\":2193:2220  Pairing.G1Point memory vk_x */\n      0x00\n        /* \"contracts/Groth16VerifyBn254.sol\":2223:2244  Pairing.G1Point(0, 0) */\n      mload(0x40)\n      dup1\n      0x40\n      add\n      0x40\n      mstore\n      dup1\n        /* \"contracts/Groth16VerifyBn254.sol\":2239:2240  0 */\n      0x00\n        /* \"contracts/Groth16VerifyBn254.sol\":2223:2244  Pairing.G1Point(0, 0) */\n      dup2\n      mstore\n      0x20\n      add\n        /* \"contracts/Groth16VerifyBn254.sol\":2242:2243  0 */\n      0x00\n        /* \"contracts/Groth16VerifyBn254.sol\":2223:2244  Pairing.G1Point(0, 0) */\n      dup2\n      mstore\n      pop\n        /* \"contracts/Groth16VerifyBn254.sol\":2193:2244  Pairing.G1Point memory vk_x = Pairing.G1Point(0, 0) */\n      swap1\n      pop\n        /* \"contracts/Groth16VerifyBn254.sol\":2257:2294  Pairing.add(vk_x, vk.public_input[0]) */\n      tag_37\n        /* \"contracts/Groth16VerifyBn254.sol\":2269:2273  vk_x */\n      dup2\n        /* \"contracts/Groth16VerifyBn254.sol\":2275:2277  vk */\n      dup5\n        /* \"contracts/Groth16VerifyBn254.sol\":2275:2290  vk.public_input */\n      0x80\n      add\n      mload\n        /* \"contracts/Groth16VerifyBn254.sol\":2291:2292  0 */\n      0x00\n        /* \"contracts/Groth16VerifyBn254.sol\":2275:2293  vk.public_input[0] */\n      0x0d\n      dup2\n      lt\n      tag_38\n      jumpi\n      tag_39\n      tag_22\n      jump\t// in\n    tag_39:\n    tag_38:\n      0x20\n      mul\n      add\n      mload\n        /* \"contracts/Groth16VerifyBn254.sol\":2257:2268  Pairing.add */\n      tag_40\n        /* \"contracts/Groth16VerifyBn254.sol\":2257:2294  Pairing.add(vk_x, vk.public_input[0]) */\n      jump\t// in\n    tag_37:\n        /* \"contracts/Groth16VerifyBn254.sol\":2250:2294  vk_x = Pairing.add(vk_x, vk.public_input[0]) */\n      swap1\n      pop\n        /* \"contracts/Groth16VerifyBn254.sol\":2306:2315  uint256 i */\n      0x00\n        /* \"contracts/Groth16VerifyBn254.sol\":2318:2319  0 */\n      0x00\n        /* \"contracts/Groth16VerifyBn254.sol\":2306:2319  uint256 i = 0 */\n      swap1\n      pop\n        /* \"contracts/Groth16VerifyBn254.sol\":2301:2511  for (uint256 i = 0; i < input.length; i++) {... */\n    tag_41:\n        /* \"contracts/Groth16VerifyBn254.sol\":2325:2337  input.length */\n      0x0c\n        /* \"contracts/Groth16VerifyBn254.sol\":2321:2322  i */\n      dup2\n        /* \"contracts/Groth16VerifyBn254.sol\":2321:2337  i < input.length */\n      lt\n        /* \"contracts/Groth16VerifyBn254.sol\":2301:2511  for (uint256 i = 0; i < input.length; i++) {... */\n      iszero\n      tag_42\n      jumpi\n        /* \"contracts/Groth16VerifyBn254.sol\":1368:1445  21888242871839275222246405745257275088548364400416034343698204186575808495617 */\n      0x30644e72e131a029b85045b68181585d2833e84879b9709143e1f593f0000001\n        /* \"contracts/Groth16VerifyBn254.sol\":2362:2367  input */\n      dup6\n        /* \"contracts/Groth16VerifyBn254.sol\":2368:2369  i */\n      dup3\n        /* \"contracts/Groth16VerifyBn254.sol\":2362:2370  input[i] */\n      0x0c\n      dup2\n      lt\n      tag_44\n      jumpi\n      tag_45\n      tag_22\n      jump\t// in\n    tag_45:\n    tag_44:\n      0x20\n      mul\n      add\n      mload\n        /* \"contracts/Groth16VerifyBn254.sol\":2362:2380  input[i] < PRIME_Q */\n      lt\n        /* \"contracts/Groth16VerifyBn254.sol\":2354:2416  require(input[i] < PRIME_Q, \"verifier-gte-snark-scalar-field\") */\n      tag_46\n      jumpi\n      mload(0x40)\n      0x08c379a000000000000000000000000000000000000000000000000000000000\n      dup2\n      mstore\n      0x04\n      add\n      tag_47\n      swap1\n      tag_48\n      jump\t// in\n    tag_47:\n      mload(0x40)\n      dup1\n      swap2\n      sub\n      swap1\n      revert\n    tag_46:\n        /* \"contracts/Groth16VerifyBn254.sol\":2433:2504  Pairing.add(vk_x, Pairing.scalar_mul(vk.public_input[i + 1], input[i])) */\n      tag_49\n        /* \"contracts/Groth16VerifyBn254.sol\":2445:2449  vk_x */\n      dup3\n        /* \"contracts/Groth16VerifyBn254.sol\":2451:2503  Pairing.scalar_mul(vk.public_input[i + 1], input[i]) */\n      tag_50\n        /* \"contracts/Groth16VerifyBn254.sol\":2470:2472  vk */\n      dup7\n        /* \"contracts/Groth16VerifyBn254.sol\":2470:2485  vk.public_input */\n      0x80\n      add\n      mload\n        /* \"contracts/Groth16VerifyBn254.sol\":2490:2491  1 */\n      0x01\n        /* \"contracts/Groth16VerifyBn254.sol\":2486:2487  i */\n      dup6\n        /* \"contracts/Groth16VerifyBn254.sol\":2486:2491  i + 1 */\n      tag_51\n      swap2\n      swap1\n      tag_52\n      jump\t// in\n    tag_51:\n        /* \"contracts/Groth16VerifyBn254.sol\":2470:2492  vk.public_input[i + 1] */\n      0x0d\n      dup2\n      lt\n      tag_53\n      jumpi\n      tag_54\n      tag_22\n      jump\t// in\n    tag_54:\n    tag_53:\n      0x20\n      mul\n      add\n      mload\n        /* \"contracts/Groth16VerifyBn254.sol\":2494:2499  input */\n      dup9\n        /* \"contracts/Groth16VerifyBn254.sol\":2500:2501  i */\n      dup6\n        /* \"contracts/Groth16VerifyBn254.sol\":2494:2502  input[i] */\n      0x0c\n      dup2\n      lt\n      tag_55\n      jumpi\n      tag_56\n      tag_22\n      jump\t// in\n    tag_56:\n    tag_55:\n      0x20\n      mul\n      add\n      mload\n        /* \"contracts/Groth16VerifyBn254.sol\":2451:2469  Pairing.scalar_mul */\n      tag_57\n        /* \"contracts/Groth16VerifyBn254.sol\":2451:2503  Pairing.scalar_mul(vk.public_input[i + 1], input[i]) */\n      jump\t// in\n    tag_50:\n        /* \"contracts/Groth16VerifyBn254.sol\":2433:2444  Pairing.add */\n      tag_40\n        /* \"contracts/Groth16VerifyBn254.sol\":2433:2504  Pairing.add(vk_x, Pairing.scalar_mul(vk.public_input[i + 1], input[i])) */\n      jump\t// in\n    tag_49:\n        /* \"contracts/Groth16VerifyBn254.sol\":2426:2504  vk_x = Pairing.add(vk_x, Pairing.scalar_mul(vk.public_input[i + 1], input[i])) */\n      swap2\n      pop\n        /* \"contracts/Groth16VerifyBn254.sol\":2339:2342  i++ */\n      dup1\n      dup1\n      0x01\n      add\n      swap2\n      pop\n      pop\n        /* \"contracts/Groth16VerifyBn254.sol\":2301:2511  for (uint256 i = 0; i < input.length; i++) {... */\n      jump(tag_41)\n    tag_42:\n      pop\n        /* \"contracts/Groth16VerifyBn254.sol\":2537:2717  Pairing.pairing(... */\n      tag_58\n        /* \"contracts/Groth16VerifyBn254.sol\":2562:2586  Pairing.negate(_proof.A) */\n      tag_59\n        /* \"contracts/Groth16VerifyBn254.sol\":2577:2583  _proof */\n      dup4\n        /* \"contracts/Groth16VerifyBn254.sol\":2577:2585  _proof.A */\n      0x00\n      add\n      mload\n        /* \"contracts/Groth16VerifyBn254.sol\":2562:2576  Pairing.negate */\n      tag_60\n        /* \"contracts/Groth16VerifyBn254.sol\":2562:2586  Pairing.negate(_proof.A) */\n      jump\t// in\n    tag_59:\n        /* \"contracts/Groth16VerifyBn254.sol\":2596:2602  _proof */\n      dup4\n        /* \"contracts/Groth16VerifyBn254.sol\":2596:2604  _proof.B */\n      0x20\n      add\n      mload\n        /* \"contracts/Groth16VerifyBn254.sol\":2614:2616  vk */\n      dup6\n        /* \"contracts/Groth16VerifyBn254.sol\":2614:2623  vk.alpha1 */\n      0x00\n      add\n      mload\n        /* \"contracts/Groth16VerifyBn254.sol\":2633:2635  vk */\n      dup7\n        /* \"contracts/Groth16VerifyBn254.sol\":2633:2641  vk.beta2 */\n      0x20\n      add\n      mload\n        /* \"contracts/Groth16VerifyBn254.sol\":2651:2655  vk_x */\n      dup6\n        /* \"contracts/Groth16VerifyBn254.sol\":2665:2667  vk */\n      dup9\n        /* \"contracts/Groth16VerifyBn254.sol\":2665:2674  vk.gamma2 */\n      0x40\n      add\n      mload\n        /* \"contracts/Groth16VerifyBn254.sol\":2684:2690  _proof */\n      dup9\n        /* \"contracts/Groth16VerifyBn254.sol\":2684:2692  _proof.C */\n      0x40\n      add\n      mload\n        /* \"contracts/Groth16VerifyBn254.sol\":2702:2704  vk */\n      dup11\n        /* \"contracts/Groth16VerifyBn254.sol\":2702:2711  vk.delta2 */\n      0x60\n      add\n      mload\n        /* \"contracts/Groth16VerifyBn254.sol\":2537:2552  Pairing.pairing */\n      tag_61\n        /* \"contracts/Groth16VerifyBn254.sol\":2537:2717  Pairing.pairing(... */\n      jump\t// in\n    tag_58:\n        /* \"contracts/Groth16VerifyBn254.sol\":2521:2534  pairingResult */\n      0x00\n      0x00\n        /* \"contracts/Groth16VerifyBn254.sol\":2521:2717  pairingResult = Pairing.pairing(... */\n      0x0100\n      exp\n      dup2\n      sload\n      dup2\n      0xff\n      mul\n      not\n      and\n      swap1\n      dup4\n      iszero\n      iszero\n      mul\n      or\n      swap1\n      sstore\n      pop\n        /* \"contracts/Groth16VerifyBn254.sol\":1980:2724  {... */\n      pop\n      pop\n        /* \"contracts/Groth16VerifyBn254.sol\":1860:2724  function verifyProof(... */\n      pop\n      pop\n      pop\n      jump\t// out\n        /* \"contracts/Groth16VerifyBn254.sol\":1772:1856  function getPairingResult() view public returns(bool){... */\n    tag_11:\n        /* \"contracts/Groth16VerifyBn254.sol\":1820:1824  bool */\n      0x00\n        /* \"contracts/Groth16VerifyBn254.sol\":1838:1851  pairingResult */\n      0x00\n      0x00\n      swap1\n      sload\n      swap1\n      0x0100\n      exp\n      swap1\n      div\n      0xff\n      and\n        /* \"contracts/Groth16VerifyBn254.sol\":1831:1851  return pairingResult */\n      swap1\n      pop\n        /* \"contracts/Groth16VerifyBn254.sol\":1772:1856  function getPairingResult() view public returns(bool){... */\n      swap1\n      jump\t// out\n        /* \"contracts/Groth16VerifyBn254.sol\":1742:1767  bool public pairingResult */\n    tag_15:\n      0x00\n      0x00\n      swap1\n      sload\n      swap1\n      0x0100\n      exp\n      swap1\n      div\n      0xff\n      and\n      dup2\n      jump\t// out\n        /* \"contracts/Pairing.sol\":1677:2143  function add(... */\n    tag_40:\n        /* \"contracts/Pairing.sol\":1763:1779  G1Point memory r */\n      tag_63\n      tag_64\n      jump\t// in\n    tag_63:\n        /* \"contracts/Pairing.sol\":1787:1810  uint256[4] memory input */\n      tag_66\n      tag_67\n      jump\t// in\n    tag_66:\n        /* \"contracts/Pairing.sol\":1827:1829  p1 */\n      dup4\n        /* \"contracts/Pairing.sol\":1827:1831  p1.X */\n      0x00\n      add\n      mload\n        /* \"contracts/Pairing.sol\":1816:1821  input */\n      dup2\n        /* \"contracts/Pairing.sol\":1822:1823  0 */\n      0x00\n        /* \"contracts/Pairing.sol\":1816:1824  input[0] */\n      0x04\n      dup2\n      lt\n      tag_68\n      jumpi\n      tag_69\n      tag_22\n      jump\t// in\n    tag_69:\n    tag_68:\n      0x20\n      mul\n      add\n        /* \"contracts/Pairing.sol\":1816:1831  input[0] = p1.X */\n      dup2\n      dup2\n      mstore\n      pop\n      pop\n        /* \"contracts/Pairing.sol\":1848:1850  p1 */\n      dup4\n        /* \"contracts/Pairing.sol\":1848:1852  p1.Y */\n      0x20\n      add\n      mload\n        /* \"contracts/Pairing.sol\":1837:1842  input */\n      dup2\n        /* \"contracts/Pairing.sol\":1843:1844  1 */\n      0x01\n        /* \"contracts/Pairing.sol\":1837:1845  input[1] */\n      0x04\n      dup2\n      lt\n      tag_70\n      jumpi\n      tag_71\n      tag_22\n      jump\t// in\n    tag_71:\n    tag_70:\n      0x20\n      mul\n      add\n        /* \"contracts/Pairing.sol\":1837:1852  input[1] = p1.Y */\n      dup2\n      dup2\n      mstore\n      pop\n      pop\n        /* \"contracts/Pairing.sol\":1869:1871  p2 */\n      dup3\n        /* \"contracts/Pairing.sol\":1869:1873  p2.X */\n      0x00\n      add\n      mload\n        /* \"contracts/Pairing.sol\":1858:1863  input */\n      dup2\n        /* \"contracts/Pairing.sol\":1864:1865  2 */\n      0x02\n        /* \"contracts/Pairing.sol\":1858:1866  input[2] */\n      0x04\n      dup2\n      lt\n      tag_72\n      jumpi\n      tag_73\n      tag_22\n      jump\t// in\n    tag_73:\n    tag_72:\n      0x20\n      mul\n      add\n        /* \"contracts/Pairing.sol\":1858:1873  input[2] = p2.X */\n      dup2\n      dup2\n      mstore\n      pop\n      pop\n        /* \"contracts/Pairing.sol\":1890:1892  p2 */\n      dup3\n        /* \"contracts/Pairing.sol\":1890:1894  p2.Y */\n      0x20\n      add\n      mload\n        /* \"contracts/Pairing.sol\":1879:1884  input */\n      dup2\n        /* \"contracts/Pairing.sol\":1885:1886  3 */\n      0x03\n        /* \"contracts/Pairing.sol\":1879:1887  input[3] */\n      0x04\n      dup2\n      lt\n      tag_74\n      jumpi\n      tag_75\n      tag_22\n      jump\t// in\n    tag_75:\n    tag_74:\n      0x20\n      mul\n      add\n        /* \"contracts/Pairing.sol\":1879:1894  input[3] = p2.Y */\n      dup2\n      dup2\n      mstore\n      pop\n      pop\n        /* \"contracts/Pairing.sol\":1900:1912  bool success */\n      0x00\n        /* \"contracts/Pairing.sol\":1995:1999  0x60 */\n      0x60\n        /* \"contracts/Pairing.sol\":1992:1993  r */\n      dup4\n        /* \"contracts/Pairing.sol\":1986:1990  0xc0 */\n      0xc0\n        /* \"contracts/Pairing.sol\":1979:1984  input */\n      dup5\n        /* \"contracts/Pairing.sol\":1976:1977  6 */\n      0x06\n        /* \"contracts/Pairing.sol\":1969:1973  2000 */\n      0x07d0\n        /* \"contracts/Pairing.sol\":1962:1967  gas() */\n      gas\n        /* \"contracts/Pairing.sol\":1958:1974  sub(gas(), 2000) */\n      sub\n        /* \"contracts/Pairing.sol\":1947:2000  staticcall(sub(gas(), 2000), 6, input, 0xc0, r, 0x60) */\n      staticcall\n        /* \"contracts/Pairing.sol\":1936:2000  success := staticcall(sub(gas(), 2000), 6, input, 0xc0, r, 0x60) */\n      swap1\n      pop\n        /* \"contracts/Pairing.sol\":2063:2070  success */\n      dup1\n        /* \"contracts/Pairing.sol\":2076:2077  0 */\n      0x00\n        /* \"contracts/Pairing.sol\":2071:2091  case 0 { invalid() } */\n      dup2\n      sub\n        /* \"contracts/Pairing.sol\":2056:2091  switch success case 0 { invalid() } */\n      tag_76\n        /* \"contracts/Pairing.sol\":2071:2091  case 0 { invalid() } */\n      jumpi\n        /* \"contracts/Pairing.sol\":2080:2089  invalid() */\n      invalid\n        /* \"contracts/Pairing.sol\":2056:2091  switch success case 0 { invalid() } */\n    tag_76:\n      pop\n        /* \"contracts/Pairing.sol\":2111:2118  success */\n      dup1\n        /* \"contracts/Pairing.sol\":2103:2138  require(success, \"addition failed\") */\n      tag_78\n      jumpi\n      mload(0x40)\n      0x08c379a000000000000000000000000000000000000000000000000000000000\n      dup2\n      mstore\n      0x04\n      add\n      tag_79\n      swap1\n      tag_80\n      jump\t// in\n    tag_79:\n      mload(0x40)\n      dup1\n      swap2\n      sub\n      swap1\n      revert\n    tag_78:\n        /* \"contracts/Pairing.sol\":1781:2143  {... */\n      pop\n      pop\n        /* \"contracts/Pairing.sol\":1677:2143  function add(... */\n      swap3\n      swap2\n      pop\n      pop\n      jump\t// out\n        /* \"contracts/Pairing.sol\":2147:2574  function scalar_mul(G1Point memory p, uint256 s) internal view returns (G1Point memory r) {... */\n    tag_57:\n        /* \"contracts/Pairing.sol\":2219:2235  G1Point memory r */\n      tag_81\n      tag_64\n      jump\t// in\n    tag_81:\n        /* \"contracts/Pairing.sol\":2243:2266  uint256[3] memory input */\n      tag_83\n      tag_84\n      jump\t// in\n    tag_83:\n        /* \"contracts/Pairing.sol\":2283:2284  p */\n      dup4\n        /* \"contracts/Pairing.sol\":2283:2286  p.X */\n      0x00\n      add\n      mload\n        /* \"contracts/Pairing.sol\":2272:2277  input */\n      dup2\n        /* \"contracts/Pairing.sol\":2278:2279  0 */\n      0x00\n        /* \"contracts/Pairing.sol\":2272:2280  input[0] */\n      0x03\n      dup2\n      lt\n      tag_85\n      jumpi\n      tag_86\n      tag_22\n      jump\t// in\n    tag_86:\n    tag_85:\n      0x20\n      mul\n      add\n        /* \"contracts/Pairing.sol\":2272:2286  input[0] = p.X */\n      dup2\n      dup2\n      mstore\n      pop\n      pop\n        /* \"contracts/Pairing.sol\":2303:2304  p */\n      dup4\n        /* \"contracts/Pairing.sol\":2303:2306  p.Y */\n      0x20\n      add\n      mload\n        /* \"contracts/Pairing.sol\":2292:2297  input */\n      dup2\n        /* \"contracts/Pairing.sol\":2298:2299  1 */\n      0x01\n        /* \"contracts/Pairing.sol\":2292:2300  input[1] */\n      0x03\n      dup2\n      lt\n      tag_87\n      jumpi\n      tag_88\n      tag_22\n      jump\t// in\n    tag_88:\n    tag_87:\n      0x20\n      mul\n      add\n        /* \"contracts/Pairing.sol\":2292:2306  input[1] = p.Y */\n      dup2\n      dup2\n      mstore\n      pop\n      pop\n        /* \"contracts/Pairing.sol\":2323:2324  s */\n      dup3\n        /* \"contracts/Pairing.sol\":2312:2317  input */\n      dup2\n        /* \"contracts/Pairing.sol\":2318:2319  2 */\n      0x02\n        /* \"contracts/Pairing.sol\":2312:2320  input[2] */\n      0x03\n      dup2\n      lt\n      tag_89\n      jumpi\n      tag_90\n      tag_22\n      jump\t// in\n    tag_90:\n    tag_89:\n      0x20\n      mul\n      add\n        /* \"contracts/Pairing.sol\":2312:2324  input[2] = s */\n      dup2\n      dup2\n      mstore\n      pop\n      pop\n        /* \"contracts/Pairing.sol\":2330:2342  bool success */\n      0x00\n        /* \"contracts/Pairing.sol\":2425:2429  0x60 */\n      0x60\n        /* \"contracts/Pairing.sol\":2422:2423  r */\n      dup4\n        /* \"contracts/Pairing.sol\":2416:2420  0x80 */\n      0x80\n        /* \"contracts/Pairing.sol\":2409:2414  input */\n      dup5\n        /* \"contracts/Pairing.sol\":2406:2407  7 */\n      0x07\n        /* \"contracts/Pairing.sol\":2399:2403  2000 */\n      0x07d0\n        /* \"contracts/Pairing.sol\":2392:2397  gas() */\n      gas\n        /* \"contracts/Pairing.sol\":2388:2404  sub(gas(), 2000) */\n      sub\n        /* \"contracts/Pairing.sol\":2377:2430  staticcall(sub(gas(), 2000), 7, input, 0x80, r, 0x60) */\n      staticcall\n        /* \"contracts/Pairing.sol\":2366:2430  success := staticcall(sub(gas(), 2000), 7, input, 0x80, r, 0x60) */\n      swap1\n      pop\n        /* \"contracts/Pairing.sol\":2493:2500  success */\n      dup1\n        /* \"contracts/Pairing.sol\":2506:2507  0 */\n      0x00\n        /* \"contracts/Pairing.sol\":2501:2521  case 0 { invalid() } */\n      dup2\n      sub\n        /* \"contracts/Pairing.sol\":2486:2521  switch success case 0 { invalid() } */\n      tag_91\n        /* \"contracts/Pairing.sol\":2501:2521  case 0 { invalid() } */\n      jumpi\n        /* \"contracts/Pairing.sol\":2510:2519  invalid() */\n      invalid\n        /* \"contracts/Pairing.sol\":2486:2521  switch success case 0 { invalid() } */\n    tag_91:\n      pop\n        /* \"contracts/Pairing.sol\":2540:2547  success */\n      dup1\n        /* \"contracts/Pairing.sol\":2532:2569  require(success, \"scalar mul failed\") */\n      tag_93\n      jumpi\n      mload(0x40)\n      0x08c379a000000000000000000000000000000000000000000000000000000000\n      dup2\n      mstore\n      0x04\n      add\n      tag_94\n      swap1\n      tag_95\n      jump\t// in\n    tag_94:\n      mload(0x40)\n      dup1\n      swap2\n      sub\n      swap1\n      revert\n    tag_93:\n        /* \"contracts/Pairing.sol\":2237:2574  {... */\n      pop\n      pop\n        /* \"contracts/Pairing.sol\":2147:2574  function scalar_mul(G1Point memory p, uint256 s) internal view returns (G1Point memory r) {... */\n      swap3\n      swap2\n      pop\n      pop\n      jump\t// out\n        /* \"contracts/Pairing.sol\":1462:1673  function negate(G1Point memory p) internal pure returns (G1Point memory) {... */\n    tag_60:\n        /* \"contracts/Pairing.sol\":1519:1533  G1Point memory */\n      tag_96\n      tag_64\n      jump\t// in\n    tag_96:\n        /* \"contracts/Pairing.sol\":1552:1553  0 */\n      0x00\n        /* \"contracts/Pairing.sol\":1545:1546  p */\n      dup3\n        /* \"contracts/Pairing.sol\":1545:1548  p.X */\n      0x00\n      add\n      mload\n        /* \"contracts/Pairing.sol\":1545:1553  p.X == 0 */\n      eq\n        /* \"contracts/Pairing.sol\":1545:1565  p.X == 0 && p.Y == 0 */\n      dup1\n      iszero\n      tag_98\n      jumpi\n      pop\n        /* \"contracts/Pairing.sol\":1564:1565  0 */\n      0x00\n        /* \"contracts/Pairing.sol\":1557:1558  p */\n      dup3\n        /* \"contracts/Pairing.sol\":1557:1560  p.Y */\n      0x20\n      add\n      mload\n        /* \"contracts/Pairing.sol\":1557:1565  p.Y == 0 */\n      eq\n        /* \"contracts/Pairing.sol\":1545:1565  p.X == 0 && p.Y == 0 */\n    tag_98:\n        /* \"contracts/Pairing.sol\":1541:1669  if (p.X == 0 && p.Y == 0) {... */\n      iszero\n      tag_99\n      jumpi\n        /* \"contracts/Pairing.sol\":1582:1595  G1Point(0, 0) */\n      mload(0x40)\n      dup1\n      0x40\n      add\n      0x40\n      mstore\n      dup1\n        /* \"contracts/Pairing.sol\":1590:1591  0 */\n      0x00\n        /* \"contracts/Pairing.sol\":1582:1595  G1Point(0, 0) */\n      dup2\n      mstore\n      0x20\n      add\n        /* \"contracts/Pairing.sol\":1593:1594  0 */\n      0x00\n        /* \"contracts/Pairing.sol\":1582:1595  G1Point(0, 0) */\n      dup2\n      mstore\n      pop\n        /* \"contracts/Pairing.sol\":1575:1595  return G1Point(0, 0) */\n      swap1\n      pop\n      jump(tag_97)\n        /* \"contracts/Pairing.sol\":1541:1669  if (p.X == 0 && p.Y == 0) {... */\n    tag_99:\n        /* \"contracts/Pairing.sol\":1623:1662  G1Point(p.X, PRIME_Q - (p.Y % PRIME_Q)) */\n      mload(0x40)\n      dup1\n      0x40\n      add\n      0x40\n      mstore\n      dup1\n        /* \"contracts/Pairing.sol\":1631:1632  p */\n      dup4\n        /* \"contracts/Pairing.sol\":1631:1634  p.X */\n      0x00\n      add\n      mload\n        /* \"contracts/Pairing.sol\":1623:1662  G1Point(p.X, PRIME_Q - (p.Y % PRIME_Q)) */\n      dup2\n      mstore\n      0x20\n      add\n        /* \"contracts/Pairing.sol\":1214:1291  21888242871839275222246405745257275088696311157297823662689037894645226208583 */\n      0x30644e72e131a029b85045b68181585d97816a916871ca8d3c208c16d87cfd47\n        /* \"contracts/Pairing.sol\":1647:1648  p */\n      dup5\n        /* \"contracts/Pairing.sol\":1647:1650  p.Y */\n      0x20\n      add\n      mload\n        /* \"contracts/Pairing.sol\":1647:1660  p.Y % PRIME_Q */\n      tag_101\n      swap2\n      swap1\n      tag_102\n      jump\t// in\n    tag_101:\n        /* \"contracts/Pairing.sol\":1214:1291  21888242871839275222246405745257275088696311157297823662689037894645226208583 */\n      0x30644e72e131a029b85045b68181585d97816a916871ca8d3c208c16d87cfd47\n        /* \"contracts/Pairing.sol\":1636:1661  PRIME_Q - (p.Y % PRIME_Q) */\n      tag_103\n      swap2\n      swap1\n      tag_104\n      jump\t// in\n    tag_103:\n        /* \"contracts/Pairing.sol\":1623:1662  G1Point(p.X, PRIME_Q - (p.Y % PRIME_Q)) */\n      dup2\n      mstore\n      pop\n        /* \"contracts/Pairing.sol\":1616:1662  return G1Point(p.X, PRIME_Q - (p.Y % PRIME_Q)) */\n      swap1\n      pop\n        /* \"contracts/Pairing.sol\":1462:1673  function negate(G1Point memory p) internal pure returns (G1Point memory) {... */\n    tag_97:\n      swap2\n      swap1\n      pop\n      jump\t// out\n        /* \"contracts/Pairing.sol\":2803:3803  function pairing(... */\n    tag_61:\n        /* \"contracts/Pairing.sol\":3031:3035  bool */\n      0x00\n        /* \"contracts/Pairing.sol\":3043:3063  G1Point[4] memory p1 */\n      0x00\n        /* \"contracts/Pairing.sol\":3043:3082  G1Point[4] memory p1 = [a1, b1, c1, d1] */\n      mload(0x40)\n      dup1\n      0x80\n      add\n      0x40\n      mstore\n      dup1\n        /* \"contracts/Pairing.sol\":3067:3069  a1 */\n      dup12\n        /* \"contracts/Pairing.sol\":3043:3082  G1Point[4] memory p1 = [a1, b1, c1, d1] */\n      dup2\n      mstore\n      0x20\n      add\n        /* \"contracts/Pairing.sol\":3071:3073  b1 */\n      dup10\n        /* \"contracts/Pairing.sol\":3043:3082  G1Point[4] memory p1 = [a1, b1, c1, d1] */\n      dup2\n      mstore\n      0x20\n      add\n        /* \"contracts/Pairing.sol\":3075:3077  c1 */\n      dup8\n        /* \"contracts/Pairing.sol\":3043:3082  G1Point[4] memory p1 = [a1, b1, c1, d1] */\n      dup2\n      mstore\n      0x20\n      add\n        /* \"contracts/Pairing.sol\":3079:3081  d1 */\n      dup6\n        /* \"contracts/Pairing.sol\":3043:3082  G1Point[4] memory p1 = [a1, b1, c1, d1] */\n      dup2\n      mstore\n      pop\n      swap1\n      pop\n        /* \"contracts/Pairing.sol\":3088:3108  G2Point[4] memory p2 */\n      0x00\n        /* \"contracts/Pairing.sol\":3088:3127  G2Point[4] memory p2 = [a2, b2, c2, d2] */\n      mload(0x40)\n      dup1\n      0x80\n      add\n      0x40\n      mstore\n      dup1\n        /* \"contracts/Pairing.sol\":3112:3114  a2 */\n      dup12\n        /* \"contracts/Pairing.sol\":3088:3127  G2Point[4] memory p2 = [a2, b2, c2, d2] */\n      dup2\n      mstore\n      0x20\n      add\n        /* \"contracts/Pairing.sol\":3116:3118  b2 */\n      dup10\n        /* \"contracts/Pairing.sol\":3088:3127  G2Point[4] memory p2 = [a2, b2, c2, d2] */\n      dup2\n      mstore\n      0x20\n      add\n        /* \"contracts/Pairing.sol\":3120:3122  c2 */\n      dup8\n        /* \"contracts/Pairing.sol\":3088:3127  G2Point[4] memory p2 = [a2, b2, c2, d2] */\n      dup2\n      mstore\n      0x20\n      add\n        /* \"contracts/Pairing.sol\":3124:3126  d2 */\n      dup6\n        /* \"contracts/Pairing.sol\":3088:3127  G2Point[4] memory p2 = [a2, b2, c2, d2] */\n      dup2\n      mstore\n      pop\n      swap1\n      pop\n        /* \"contracts/Pairing.sol\":3134:3151  uint256 inputSize */\n      0x00\n        /* \"contracts/Pairing.sol\":3154:3156  24 */\n      0x18\n        /* \"contracts/Pairing.sol\":3134:3156  uint256 inputSize = 24 */\n      swap1\n      pop\n        /* \"contracts/Pairing.sol\":3162:3184  uint256[] memory input */\n      0x00\n        /* \"contracts/Pairing.sol\":3201:3210  inputSize */\n      dup2\n        /* \"contracts/Pairing.sol\":3187:3211  new uint256[](inputSize) */\n      0xffffffffffffffff\n      dup2\n      gt\n      iszero\n      tag_106\n      jumpi\n      tag_107\n      tag_108\n      jump\t// in\n    tag_107:\n    tag_106:\n      mload(0x40)\n      swap1\n      dup1\n      dup3\n      mstore\n      dup1\n      0x20\n      mul\n      0x20\n      add\n      dup3\n      add\n      0x40\n      mstore\n      dup1\n      iszero\n      tag_109\n      jumpi\n      dup2\n      0x20\n      add\n      0x20\n      dup3\n      mul\n      dup1\n      calldatasize\n      dup4\n      calldatacopy\n      dup1\n      dup3\n      add\n      swap2\n      pop\n      pop\n      swap1\n      pop\n    tag_109:\n      pop\n        /* \"contracts/Pairing.sol\":3162:3211  uint256[] memory input = new uint256[](inputSize) */\n      swap1\n      pop\n        /* \"contracts/Pairing.sol\":3223:3232  uint256 i */\n      0x00\n        /* \"contracts/Pairing.sol\":3235:3236  0 */\n      0x00\n        /* \"contracts/Pairing.sol\":3223:3236  uint256 i = 0 */\n      swap1\n      pop\n        /* \"contracts/Pairing.sol\":3218:3474  for (uint256 i = 0; i < 4; i++) {... */\n    tag_110:\n        /* \"contracts/Pairing.sol\":3242:3243  4 */\n      0x04\n        /* \"contracts/Pairing.sol\":3238:3239  i */\n      dup2\n        /* \"contracts/Pairing.sol\":3238:3243  i < 4 */\n      lt\n        /* \"contracts/Pairing.sol\":3218:3474  for (uint256 i = 0; i < 4; i++) {... */\n      iszero\n      tag_111\n      jumpi\n        /* \"contracts/Pairing.sol\":3258:3267  uint256 j */\n      0x00\n        /* \"contracts/Pairing.sol\":3274:3275  6 */\n      0x06\n        /* \"contracts/Pairing.sol\":3270:3271  i */\n      dup3\n        /* \"contracts/Pairing.sol\":3270:3275  i * 6 */\n      tag_113\n      swap2\n      swap1\n      tag_114\n      jump\t// in\n    tag_113:\n        /* \"contracts/Pairing.sol\":3258:3275  uint256 j = i * 6 */\n      swap1\n      pop\n        /* \"contracts/Pairing.sol\":3298:3300  p1 */\n      dup6\n        /* \"contracts/Pairing.sol\":3301:3302  i */\n      dup3\n        /* \"contracts/Pairing.sol\":3298:3303  p1[i] */\n      0x04\n      dup2\n      lt\n      tag_115\n      jumpi\n      tag_116\n      tag_22\n      jump\t// in\n    tag_116:\n    tag_115:\n      0x20\n      mul\n      add\n      mload\n        /* \"contracts/Pairing.sol\":3298:3305  p1[i].X */\n      0x00\n      add\n      mload\n        /* \"contracts/Pairing.sol\":3283:3288  input */\n      dup4\n        /* \"contracts/Pairing.sol\":3293:3294  0 */\n      0x00\n        /* \"contracts/Pairing.sol\":3289:3290  j */\n      dup4\n        /* \"contracts/Pairing.sol\":3289:3294  j + 0 */\n      tag_117\n      swap2\n      swap1\n      tag_52\n      jump\t// in\n    tag_117:\n        /* \"contracts/Pairing.sol\":3283:3295  input[j + 0] */\n      dup2\n      mload\n      dup2\n      lt\n      tag_118\n      jumpi\n      tag_119\n      tag_22\n      jump\t// in\n    tag_119:\n    tag_118:\n      0x20\n      mul\n      0x20\n      add\n      add\n        /* \"contracts/Pairing.sol\":3283:3305  input[j + 0] = p1[i].X */\n      dup2\n      dup2\n      mstore\n      pop\n      pop\n        /* \"contracts/Pairing.sol\":3328:3330  p1 */\n      dup6\n        /* \"contracts/Pairing.sol\":3331:3332  i */\n      dup3\n        /* \"contracts/Pairing.sol\":3328:3333  p1[i] */\n      0x04\n      dup2\n      lt\n      tag_120\n      jumpi\n      tag_121\n      tag_22\n      jump\t// in\n    tag_121:\n    tag_120:\n      0x20\n      mul\n      add\n      mload\n        /* \"contracts/Pairing.sol\":3328:3335  p1[i].Y */\n      0x20\n      add\n      mload\n        /* \"contracts/Pairing.sol\":3313:3318  input */\n      dup4\n        /* \"contracts/Pairing.sol\":3323:3324  1 */\n      0x01\n        /* \"contracts/Pairing.sol\":3319:3320  j */\n      dup4\n        /* \"contracts/Pairing.sol\":3319:3324  j + 1 */\n      tag_122\n      swap2\n      swap1\n      tag_52\n      jump\t// in\n    tag_122:\n        /* \"contracts/Pairing.sol\":3313:3325  input[j + 1] */\n      dup2\n      mload\n      dup2\n      lt\n      tag_123\n      jumpi\n      tag_124\n      tag_22\n      jump\t// in\n    tag_124:\n    tag_123:\n      0x20\n      mul\n      0x20\n      add\n      add\n        /* \"contracts/Pairing.sol\":3313:3335  input[j + 1] = p1[i].Y */\n      dup2\n      dup2\n      mstore\n      pop\n      pop\n        /* \"contracts/Pairing.sol\":3358:3360  p2 */\n      dup5\n        /* \"contracts/Pairing.sol\":3361:3362  i */\n      dup3\n        /* \"contracts/Pairing.sol\":3358:3363  p2[i] */\n      0x04\n      dup2\n      lt\n      tag_125\n      jumpi\n      tag_126\n      tag_22\n      jump\t// in\n    tag_126:\n    tag_125:\n      0x20\n      mul\n      add\n      mload\n        /* \"contracts/Pairing.sol\":3358:3365  p2[i].X */\n      0x00\n      add\n      mload\n        /* \"contracts/Pairing.sol\":3366:3367  0 */\n      0x00\n        /* \"contracts/Pairing.sol\":3358:3368  p2[i].X[0] */\n      0x02\n      dup2\n      lt\n      tag_127\n      jumpi\n      tag_128\n      tag_22\n      jump\t// in\n    tag_128:\n    tag_127:\n      0x20\n      mul\n      add\n      mload\n        /* \"contracts/Pairing.sol\":3343:3348  input */\n      dup4\n        /* \"contracts/Pairing.sol\":3353:3354  2 */\n      0x02\n        /* \"contracts/Pairing.sol\":3349:3350  j */\n      dup4\n        /* \"contracts/Pairing.sol\":3349:3354  j + 2 */\n      tag_129\n      swap2\n      swap1\n      tag_52\n      jump\t// in\n    tag_129:\n        /* \"contracts/Pairing.sol\":3343:3355  input[j + 2] */\n      dup2\n      mload\n      dup2\n      lt\n      tag_130\n      jumpi\n      tag_131\n      tag_22\n      jump\t// in\n    tag_131:\n    tag_130:\n      0x20\n      mul\n      0x20\n      add\n      add\n        /* \"contracts/Pairing.sol\":3343:3368  input[j + 2] = p2[i].X[0] */\n      dup2\n      dup2\n      mstore\n      pop\n      pop\n        /* \"contracts/Pairing.sol\":3391:3393  p2 */\n      dup5\n        /* \"contracts/Pairing.sol\":3394:3395  i */\n      dup3\n        /* \"contracts/Pairing.sol\":3391:3396  p2[i] */\n      0x04\n      dup2\n      lt\n      tag_132\n      jumpi\n      tag_133\n      tag_22\n      jump\t// in\n    tag_133:\n    tag_132:\n      0x20\n      mul\n      add\n      mload\n        /* \"contracts/Pairing.sol\":3391:3398  p2[i].X */\n      0x00\n      add\n      mload\n        /* \"contracts/Pairing.sol\":3399:3400  1 */\n      0x01\n        /* \"contracts/Pairing.sol\":3391:3401  p2[i].X[1] */\n      0x02\n      dup2\n      lt\n      tag_134\n      jumpi\n      tag_135\n      tag_22\n      jump\t// in\n    tag_135:\n    tag_134:\n      0x20\n      mul\n      add\n      mload\n        /* \"contracts/Pairing.sol\":3376:3381  input */\n      dup4\n        /* \"contracts/Pairing.sol\":3386:3387  3 */\n      0x03\n        /* \"contracts/Pairing.sol\":3382:3383  j */\n      dup4\n        /* \"contracts/Pairing.sol\":3382:3387  j + 3 */\n      tag_136\n      swap2\n      swap1\n      tag_52\n      jump\t// in\n    tag_136:\n        /* \"contracts/Pairing.sol\":3376:3388  input[j + 3] */\n      dup2\n      mload\n      dup2\n      lt\n      tag_137\n      jumpi\n      tag_138\n      tag_22\n      jump\t// in\n    tag_138:\n    tag_137:\n      0x20\n      mul\n      0x20\n      add\n      add\n        /* \"contracts/Pairing.sol\":3376:3401  input[j + 3] = p2[i].X[1] */\n      dup2\n      dup2\n      mstore\n      pop\n      pop\n        /* \"contracts/Pairing.sol\":3424:3426  p2 */\n      dup5\n        /* \"contracts/Pairing.sol\":3427:3428  i */\n      dup3\n        /* \"contracts/Pairing.sol\":3424:3429  p2[i] */\n      0x04\n      dup2\n      lt\n      tag_139\n      jumpi\n      tag_140\n      tag_22\n      jump\t// in\n    tag_140:\n    tag_139:\n      0x20\n      mul\n      add\n      mload\n        /* \"contracts/Pairing.sol\":3424:3431  p2[i].Y */\n      0x20\n      add\n      mload\n        /* \"contracts/Pairing.sol\":3432:3433  0 */\n      0x00\n        /* \"contracts/Pairing.sol\":3424:3434  p2[i].Y[0] */\n      0x02\n      dup2\n      lt\n      tag_141\n      jumpi\n      tag_142\n      tag_22\n      jump\t// in\n    tag_142:\n    tag_141:\n      0x20\n      mul\n      add\n      mload\n        /* \"contracts/Pairing.sol\":3409:3414  input */\n      dup4\n        /* \"contracts/Pairing.sol\":3419:3420  4 */\n      0x04\n        /* \"contracts/Pairing.sol\":3415:3416  j */\n      dup4\n        /* \"contracts/Pairing.sol\":3415:3420  j + 4 */\n      tag_143\n      swap2\n      swap1\n      tag_52\n      jump\t// in\n    tag_143:\n        /* \"contracts/Pairing.sol\":3409:3421  input[j + 4] */\n      dup2\n      mload\n      dup2\n      lt\n      tag_144\n      jumpi\n      tag_145\n      tag_22\n      jump\t// in\n    tag_145:\n    tag_144:\n      0x20\n      mul\n      0x20\n      add\n      add\n        /* \"contracts/Pairing.sol\":3409:3434  input[j + 4] = p2[i].Y[0] */\n      dup2\n      dup2\n      mstore\n      pop\n      pop\n        /* \"contracts/Pairing.sol\":3457:3459  p2 */\n      dup5\n        /* \"contracts/Pairing.sol\":3460:3461  i */\n      dup3\n        /* \"contracts/Pairing.sol\":3457:3462  p2[i] */\n      0x04\n      dup2\n      lt\n      tag_146\n      jumpi\n      tag_147\n      tag_22\n      jump\t// in\n    tag_147:\n    tag_146:\n      0x20\n      mul\n      add\n      mload\n        /* \"contracts/Pairing.sol\":3457:3464  p2[i].Y */\n      0x20\n      add\n      mload\n        /* \"contracts/Pairing.sol\":3465:3466  1 */\n      0x01\n        /* \"contracts/Pairing.sol\":3457:3467  p2[i].Y[1] */\n      0x02\n      dup2\n      lt\n      tag_148\n      jumpi\n      tag_149\n      tag_22\n      jump\t// in\n    tag_149:\n    tag_148:\n      0x20\n      mul\n      add\n      mload\n        /* \"contracts/Pairing.sol\":3442:3447  input */\n      dup4\n        /* \"contracts/Pairing.sol\":3452:3453  5 */\n      0x05\n        /* \"contracts/Pairing.sol\":3448:3449  j */\n      dup4\n        /* \"contracts/Pairing.sol\":3448:3453  j + 5 */\n      tag_150\n      swap2\n      swap1\n      tag_52\n      jump\t// in\n    tag_150:\n        /* \"contracts/Pairing.sol\":3442:3454  input[j + 5] */\n      dup2\n      mload\n      dup2\n      lt\n      tag_151\n      jumpi\n      tag_152\n      tag_22\n      jump\t// in\n    tag_152:\n    tag_151:\n      0x20\n      mul\n      0x20\n      add\n      add\n        /* \"contracts/Pairing.sol\":3442:3467  input[j + 5] = p2[i].Y[1] */\n      dup2\n      dup2\n      mstore\n      pop\n      pop\n        /* \"contracts/Pairing.sol\":3250:3474  {... */\n      pop\n        /* \"contracts/Pairing.sol\":3245:3248  i++ */\n      dup1\n      dup1\n      0x01\n      add\n      swap2\n      pop\n      pop\n        /* \"contracts/Pairing.sol\":3218:3474  for (uint256 i = 0; i < 4; i++) {... */\n      jump(tag_110)\n    tag_111:\n      pop\n        /* \"contracts/Pairing.sol\":3480:3501  uint256[1] memory out */\n      tag_153\n      tag_154\n      jump\t// in\n    tag_153:\n        /* \"contracts/Pairing.sol\":3507:3519  bool success */\n      0x00\n        /* \"contracts/Pairing.sol\":3631:3635  0x20 */\n      0x20\n        /* \"contracts/Pairing.sol\":3626:3629  out */\n      dup3\n        /* \"contracts/Pairing.sol\":3619:3623  0x20 */\n      0x20\n        /* \"contracts/Pairing.sol\":3608:3617  inputSize */\n      dup7\n        /* \"contracts/Pairing.sol\":3604:3624  mul(inputSize, 0x20) */\n      mul\n        /* \"contracts/Pairing.sol\":3597:3601  0x20 */\n      0x20\n        /* \"contracts/Pairing.sol\":3590:3595  input */\n      dup7\n        /* \"contracts/Pairing.sol\":3586:3602  add(input, 0x20) */\n      add\n        /* \"contracts/Pairing.sol\":3583:3584  8 */\n      0x08\n        /* \"contracts/Pairing.sol\":3576:3580  2000 */\n      0x07d0\n        /* \"contracts/Pairing.sol\":3569:3574  gas() */\n      gas\n        /* \"contracts/Pairing.sol\":3565:3581  sub(gas(), 2000) */\n      sub\n        /* \"contracts/Pairing.sol\":3554:3636  staticcall(sub(gas(), 2000), 8, add(input, 0x20), mul(inputSize, 0x20), out, 0x20) */\n      staticcall\n        /* \"contracts/Pairing.sol\":3543:3636  success := staticcall(sub(gas(), 2000), 8, add(input, 0x20), mul(inputSize, 0x20), out, 0x20) */\n      swap1\n      pop\n        /* \"contracts/Pairing.sol\":3699:3706  success */\n      dup1\n        /* \"contracts/Pairing.sol\":3712:3713  0 */\n      0x00\n        /* \"contracts/Pairing.sol\":3707:3727  case 0 { invalid() } */\n      dup2\n      sub\n        /* \"contracts/Pairing.sol\":3692:3727  switch success case 0 { invalid() } */\n      tag_155\n        /* \"contracts/Pairing.sol\":3707:3727  case 0 { invalid() } */\n      jumpi\n        /* \"contracts/Pairing.sol\":3716:3725  invalid() */\n      invalid\n        /* \"contracts/Pairing.sol\":3692:3727  switch success case 0 { invalid() } */\n    tag_155:\n      pop\n        /* \"contracts/Pairing.sol\":3747:3754  success */\n      dup1\n        /* \"contracts/Pairing.sol\":3739:3773  require(success, \"pairing failed\") */\n      tag_157\n      jumpi\n      mload(0x40)\n      0x08c379a000000000000000000000000000000000000000000000000000000000\n      dup2\n      mstore\n      0x04\n      add\n      tag_158\n      swap1\n      tag_159\n      jump\t// in\n    tag_158:\n      mload(0x40)\n      dup1\n      swap2\n      sub\n      swap1\n      revert\n    tag_157:\n        /* \"contracts/Pairing.sol\":3797:3798  0 */\n      0x00\n        /* \"contracts/Pairing.sol\":3787:3790  out */\n      dup3\n        /* \"contracts/Pairing.sol\":3791:3792  0 */\n      0x00\n        /* \"contracts/Pairing.sol\":3787:3793  out[0] */\n      0x01\n      dup2\n      lt\n      tag_160\n      jumpi\n      tag_161\n      tag_22\n      jump\t// in\n    tag_161:\n    tag_160:\n      0x20\n      mul\n      add\n      mload\n        /* \"contracts/Pairing.sol\":3787:3798  out[0] != 0 */\n      eq\n      iszero\n        /* \"contracts/Pairing.sol\":3780:3798  return out[0] != 0 */\n      swap7\n      pop\n      pop\n      pop\n      pop\n      pop\n      pop\n      pop\n        /* \"contracts/Pairing.sol\":2803:3803  function pairing(... */\n      swap9\n      swap8\n      pop\n      pop\n      pop\n      pop\n      pop\n      pop\n      pop\n      pop\n      jump\t// out\n    tag_19:\n      mload(0x40)\n      dup1\n      0x60\n      add\n      0x40\n      mstore\n      dup1\n      tag_162\n      tag_64\n      jump\t// in\n    tag_162:\n      dup2\n      mstore\n      0x20\n      add\n      tag_163\n      tag_164\n      jump\t// in\n    tag_163:\n      dup2\n      mstore\n      0x20\n      add\n      tag_165\n      tag_64\n      jump\t// in\n    tag_165:\n      dup2\n      mstore\n      pop\n      swap1\n      jump\t// out\n    tag_64:\n      mload(0x40)\n      dup1\n      0x40\n      add\n      0x40\n      mstore\n      dup1\n      0x00\n      dup2\n      mstore\n      0x20\n      add\n      0x00\n      dup2\n      mstore\n      pop\n      swap1\n      jump\t// out\n    tag_67:\n      mload(0x40)\n      dup1\n      0x80\n      add\n      0x40\n      mstore\n      dup1\n      0x04\n      swap1\n      0x20\n      dup3\n      mul\n      dup1\n      calldatasize\n      dup4\n      calldatacopy\n      dup1\n      dup3\n      add\n      swap2\n      pop\n      pop\n      swap1\n      pop\n      pop\n      swap1\n      jump\t// out\n    tag_84:\n      mload(0x40)\n      dup1\n      0x60\n      add\n      0x40\n      mstore\n      dup1\n      0x03\n      swap1\n      0x20\n      dup3\n      mul\n      dup1\n      calldatasize\n      dup4\n      calldatacopy\n      dup1\n      dup3\n      add\n      swap2\n      pop\n      pop\n      swap1\n      pop\n      pop\n      swap1\n      jump\t// out\n    tag_154:\n      mload(0x40)\n      dup1\n      0x20\n      add\n      0x40\n      mstore\n      dup1\n      0x01\n      swap1\n      0x20\n      dup3\n      mul\n      dup1\n      calldatasize\n      dup4\n      calldatacopy\n      dup1\n      dup3\n      add\n      swap2\n      pop\n      pop\n      swap1\n      pop\n      pop\n      swap1\n      jump\t// out\n    tag_164:\n      mload(0x40)\n      dup1\n      0x40\n      add\n      0x40\n      mstore\n      dup1\n      tag_166\n      tag_167\n      jump\t// in\n    tag_166:\n      dup2\n      mstore\n      0x20\n      add\n      tag_168\n      tag_167\n      jump\t// in\n    tag_168:\n      dup2\n      mstore\n      pop\n      swap1\n      jump\t// out\n    tag_167:\n      mload(0x40)\n      dup1\n      0x40\n      add\n      0x40\n      mstore\n      dup1\n      0x02\n      swap1\n      0x20\n      dup3\n      mul\n      dup1\n      calldatasize\n      dup4\n      calldatacopy\n      dup1\n      dup3\n      add\n      swap2\n      pop\n      pop\n      swap1\n      pop\n      pop\n      swap1\n      jump\t// out\n        /* \"#utility.yul\":7:82   */\n    tag_169:\n        /* \"#utility.yul\":40:46   */\n      0x00\n        /* \"#utility.yul\":73:75   */\n      0x40\n        /* \"#utility.yul\":67:76   */\n      mload\n        /* \"#utility.yul\":57:76   */\n      swap1\n      pop\n        /* \"#utility.yul\":7:82   */\n      swap1\n      jump\t// out\n        /* \"#utility.yul\":88:205   */\n    tag_170:\n        /* \"#utility.yul\":197:198   */\n      0x00\n        /* \"#utility.yul\":194:195   */\n      0x00\n        /* \"#utility.yul\":187:199   */\n      revert\n        /* \"#utility.yul\":334:451   */\n    tag_172:\n        /* \"#utility.yul\":443:444   */\n      0x00\n        /* \"#utility.yul\":440:441   */\n      0x00\n        /* \"#utility.yul\":433:445   */\n      revert\n        /* \"#utility.yul\":457:559   */\n    tag_173:\n        /* \"#utility.yul\":498:504   */\n      0x00\n        /* \"#utility.yul\":549:551   */\n      0x1f\n        /* \"#utility.yul\":545:552   */\n      not\n        /* \"#utility.yul\":540:542   */\n      0x1f\n        /* \"#utility.yul\":533:538   */\n      dup4\n        /* \"#utility.yul\":529:543   */\n      add\n        /* \"#utility.yul\":525:553   */\n      and\n        /* \"#utility.yul\":515:553   */\n      swap1\n      pop\n        /* \"#utility.yul\":457:559   */\n      swap2\n      swap1\n      pop\n      jump\t// out\n        /* \"#utility.yul\":565:745   */\n    tag_108:\n        /* \"#utility.yul\":613:690   */\n      0x4e487b7100000000000000000000000000000000000000000000000000000000\n        /* \"#utility.yul\":610:611   */\n      0x00\n        /* \"#utility.yul\":603:691   */\n      mstore\n        /* \"#utility.yul\":710:714   */\n      0x41\n        /* \"#utility.yul\":707:708   */\n      0x04\n        /* \"#utility.yul\":700:715   */\n      mstore\n        /* \"#utility.yul\":734:738   */\n      0x24\n        /* \"#utility.yul\":731:732   */\n      0x00\n        /* \"#utility.yul\":724:739   */\n      revert\n        /* \"#utility.yul\":751:1032   */\n    tag_174:\n        /* \"#utility.yul\":834:861   */\n      tag_218\n        /* \"#utility.yul\":856:860   */\n      dup3\n        /* \"#utility.yul\":834:861   */\n      tag_173\n      jump\t// in\n    tag_218:\n        /* \"#utility.yul\":826:832   */\n      dup2\n        /* \"#utility.yul\":822:862   */\n      add\n        /* \"#utility.yul\":964:970   */\n      dup2\n        /* \"#utility.yul\":952:962   */\n      dup2\n        /* \"#utility.yul\":949:971   */\n      lt\n        /* \"#utility.yul\":928:946   */\n      0xffffffffffffffff\n        /* \"#utility.yul\":916:926   */\n      dup3\n        /* \"#utility.yul\":913:947   */\n      gt\n        /* \"#utility.yul\":910:972   */\n      or\n        /* \"#utility.yul\":907:995   */\n      iszero\n      tag_219\n      jumpi\n        /* \"#utility.yul\":975:993   */\n      tag_220\n      tag_108\n      jump\t// in\n    tag_220:\n        /* \"#utility.yul\":907:995   */\n    tag_219:\n        /* \"#utility.yul\":1015:1025   */\n      dup1\n        /* \"#utility.yul\":1011:1013   */\n      0x40\n        /* \"#utility.yul\":1004:1026   */\n      mstore\n        /* \"#utility.yul\":794:1032   */\n      pop\n        /* \"#utility.yul\":751:1032   */\n      pop\n      pop\n      jump\t// out\n        /* \"#utility.yul\":1038:1167   */\n    tag_175:\n        /* \"#utility.yul\":1072:1078   */\n      0x00\n        /* \"#utility.yul\":1099:1119   */\n      tag_222\n      tag_169\n      jump\t// in\n    tag_222:\n        /* \"#utility.yul\":1089:1119   */\n      swap1\n      pop\n        /* \"#utility.yul\":1128:1161   */\n      tag_223\n        /* \"#utility.yul\":1156:1160   */\n      dup3\n        /* \"#utility.yul\":1148:1154   */\n      dup3\n        /* \"#utility.yul\":1128:1161   */\n      tag_174\n      jump\t// in\n    tag_223:\n        /* \"#utility.yul\":1038:1167   */\n      swap2\n      swap1\n      pop\n      jump\t// out\n        /* \"#utility.yul\":1173:1422   */\n    tag_176:\n        /* \"#utility.yul\":1248:1252   */\n      0x00\n        /* \"#utility.yul\":1338:1356   */\n      0xffffffffffffffff\n        /* \"#utility.yul\":1330:1336   */\n      dup3\n        /* \"#utility.yul\":1327:1357   */\n      gt\n        /* \"#utility.yul\":1324:1380   */\n      iszero\n      tag_225\n      jumpi\n        /* \"#utility.yul\":1360:1378   */\n      tag_226\n      tag_108\n      jump\t// in\n    tag_226:\n        /* \"#utility.yul\":1324:1380   */\n    tag_225:\n        /* \"#utility.yul\":1410:1414   */\n      0x20\n        /* \"#utility.yul\":1402:1408   */\n      dup3\n        /* \"#utility.yul\":1398:1415   */\n      mul\n        /* \"#utility.yul\":1390:1415   */\n      swap1\n      pop\n        /* \"#utility.yul\":1173:1422   */\n      swap2\n      swap1\n      pop\n      jump\t// out\n        /* \"#utility.yul\":1428:1545   */\n    tag_177:\n        /* \"#utility.yul\":1537:1538   */\n      0x00\n        /* \"#utility.yul\":1534:1535   */\n      0x00\n        /* \"#utility.yul\":1527:1539   */\n      revert\n        /* \"#utility.yul\":1551:1628   */\n    tag_178:\n        /* \"#utility.yul\":1588:1595   */\n      0x00\n        /* \"#utility.yul\":1617:1622   */\n      dup2\n        /* \"#utility.yul\":1606:1622   */\n      swap1\n      pop\n        /* \"#utility.yul\":1551:1628   */\n      swap2\n      swap1\n      pop\n      jump\t// out\n        /* \"#utility.yul\":1634:1756   */\n    tag_179:\n        /* \"#utility.yul\":1707:1731   */\n      tag_230\n        /* \"#utility.yul\":1725:1730   */\n      dup2\n        /* \"#utility.yul\":1707:1731   */\n      tag_178\n      jump\t// in\n    tag_230:\n        /* \"#utility.yul\":1700:1705   */\n      dup2\n        /* \"#utility.yul\":1697:1732   */\n      eq\n        /* \"#utility.yul\":1687:1750   */\n      tag_231\n      jumpi\n        /* \"#utility.yul\":1746:1747   */\n      0x00\n        /* \"#utility.yul\":1743:1744   */\n      0x00\n        /* \"#utility.yul\":1736:1748   */\n      revert\n        /* \"#utility.yul\":1687:1750   */\n    tag_231:\n        /* \"#utility.yul\":1634:1756   */\n      pop\n      jump\t// out\n        /* \"#utility.yul\":1762:1901   */\n    tag_180:\n        /* \"#utility.yul\":1808:1813   */\n      0x00\n        /* \"#utility.yul\":1846:1852   */\n      dup2\n        /* \"#utility.yul\":1833:1853   */\n      calldataload\n        /* \"#utility.yul\":1824:1853   */\n      swap1\n      pop\n        /* \"#utility.yul\":1862:1895   */\n      tag_233\n        /* \"#utility.yul\":1889:1894   */\n      dup2\n        /* \"#utility.yul\":1862:1895   */\n      tag_179\n      jump\t// in\n    tag_233:\n        /* \"#utility.yul\":1762:1901   */\n      swap3\n      swap2\n      pop\n      pop\n      jump\t// out\n        /* \"#utility.yul\":1925:2568   */\n    tag_181:\n        /* \"#utility.yul\":2019:2024   */\n      0x00\n        /* \"#utility.yul\":2044:2123   */\n      tag_235\n        /* \"#utility.yul\":2060:2122   */\n      tag_236\n        /* \"#utility.yul\":2115:2121   */\n      dup5\n        /* \"#utility.yul\":2060:2122   */\n      tag_176\n      jump\t// in\n    tag_236:\n        /* \"#utility.yul\":2044:2123   */\n      tag_175\n      jump\t// in\n    tag_235:\n        /* \"#utility.yul\":2035:2123   */\n      swap1\n      pop\n        /* \"#utility.yul\":2143:2148   */\n      dup1\n        /* \"#utility.yul\":2196:2200   */\n      0x20\n        /* \"#utility.yul\":2188:2194   */\n      dup5\n        /* \"#utility.yul\":2184:2201   */\n      mul\n        /* \"#utility.yul\":2176:2182   */\n      dup4\n        /* \"#utility.yul\":2172:2202   */\n      add\n        /* \"#utility.yul\":2225:2228   */\n      dup6\n        /* \"#utility.yul\":2217:2223   */\n      dup2\n        /* \"#utility.yul\":2214:2229   */\n      gt\n        /* \"#utility.yul\":2211:2333   */\n      iszero\n      tag_237\n      jumpi\n        /* \"#utility.yul\":2244:2323   */\n      tag_238\n      tag_177\n      jump\t// in\n    tag_238:\n        /* \"#utility.yul\":2211:2333   */\n    tag_237:\n        /* \"#utility.yul\":2359:2365   */\n      dup4\n        /* \"#utility.yul\":2342:2562   */\n    tag_239:\n        /* \"#utility.yul\":2376:2382   */\n      dup2\n        /* \"#utility.yul\":2371:2374   */\n      dup2\n        /* \"#utility.yul\":2368:2383   */\n      lt\n        /* \"#utility.yul\":2342:2562   */\n      iszero\n      tag_241\n      jumpi\n        /* \"#utility.yul\":2451:2454   */\n      dup1\n        /* \"#utility.yul\":2480:2517   */\n      tag_242\n        /* \"#utility.yul\":2513:2516   */\n      dup9\n        /* \"#utility.yul\":2501:2511   */\n      dup3\n        /* \"#utility.yul\":2480:2517   */\n      tag_180\n      jump\t// in\n    tag_242:\n        /* \"#utility.yul\":2475:2478   */\n      dup5\n        /* \"#utility.yul\":2468:2518   */\n      mstore\n        /* \"#utility.yul\":2547:2551   */\n      0x20\n        /* \"#utility.yul\":2542:2545   */\n      dup5\n        /* \"#utility.yul\":2538:2552   */\n      add\n        /* \"#utility.yul\":2531:2552   */\n      swap4\n      pop\n        /* \"#utility.yul\":2418:2562   */\n      pop\n        /* \"#utility.yul\":2402:2406   */\n      0x20\n        /* \"#utility.yul\":2397:2400   */\n      dup2\n        /* \"#utility.yul\":2393:2407   */\n      add\n        /* \"#utility.yul\":2386:2407   */\n      swap1\n      pop\n        /* \"#utility.yul\":2342:2562   */\n      jump(tag_239)\n    tag_241:\n        /* \"#utility.yul\":2346:2367   */\n      pop\n        /* \"#utility.yul\":2025:2568   */\n      pop\n      pop\n        /* \"#utility.yul\":1925:2568   */\n      swap4\n      swap3\n      pop\n      pop\n      pop\n      jump\t// out\n        /* \"#utility.yul\":2592:2931   */\n    tag_182:\n        /* \"#utility.yul\":2661:2666   */\n      0x00\n        /* \"#utility.yul\":2710:2713   */\n      dup3\n        /* \"#utility.yul\":2703:2707   */\n      0x1f\n        /* \"#utility.yul\":2695:2701   */\n      dup4\n        /* \"#utility.yul\":2691:2708   */\n      add\n        /* \"#utility.yul\":2687:2714   */\n      slt\n        /* \"#utility.yul\":2677:2799   */\n      tag_244\n      jumpi\n        /* \"#utility.yul\":2718:2797   */\n      tag_245\n      tag_172\n      jump\t// in\n    tag_245:\n        /* \"#utility.yul\":2677:2799   */\n    tag_244:\n        /* \"#utility.yul\":2822:2826   */\n      0x08\n        /* \"#utility.yul\":2844:2925   */\n      tag_246\n        /* \"#utility.yul\":2921:2924   */\n      dup5\n        /* \"#utility.yul\":2913:2919   */\n      dup3\n        /* \"#utility.yul\":2905:2911   */\n      dup6\n        /* \"#utility.yul\":2844:2925   */\n      tag_181\n      jump\t// in\n    tag_246:\n        /* \"#utility.yul\":2835:2925   */\n      swap2\n      pop\n        /* \"#utility.yul\":2667:2931   */\n      pop\n        /* \"#utility.yul\":2592:2931   */\n      swap3\n      swap2\n      pop\n      pop\n      jump\t// out\n        /* \"#utility.yul\":2937:3187   */\n    tag_183:\n        /* \"#utility.yul\":3013:3017   */\n      0x00\n        /* \"#utility.yul\":3103:3121   */\n      0xffffffffffffffff\n        /* \"#utility.yul\":3095:3101   */\n      dup3\n        /* \"#utility.yul\":3092:3122   */\n      gt\n        /* \"#utility.yul\":3089:3145   */\n      iszero\n      tag_248\n      jumpi\n        /* \"#utility.yul\":3125:3143   */\n      tag_249\n      tag_108\n      jump\t// in\n    tag_249:\n        /* \"#utility.yul\":3089:3145   */\n    tag_248:\n        /* \"#utility.yul\":3175:3179   */\n      0x20\n        /* \"#utility.yul\":3167:3173   */\n      dup3\n        /* \"#utility.yul\":3163:3180   */\n      mul\n        /* \"#utility.yul\":3155:3180   */\n      swap1\n      pop\n        /* \"#utility.yul\":2937:3187   */\n      swap2\n      swap1\n      pop\n      jump\t// out\n        /* \"#utility.yul\":3212:3857   */\n    tag_184:\n        /* \"#utility.yul\":3307:3312   */\n      0x00\n        /* \"#utility.yul\":3332:3412   */\n      tag_251\n        /* \"#utility.yul\":3348:3411   */\n      tag_252\n        /* \"#utility.yul\":3404:3410   */\n      dup5\n        /* \"#utility.yul\":3348:3411   */\n      tag_183\n      jump\t// in\n    tag_252:\n        /* \"#utility.yul\":3332:3412   */\n      tag_175\n      jump\t// in\n    tag_251:\n        /* \"#utility.yul\":3323:3412   */\n      swap1\n      pop\n        /* \"#utility.yul\":3432:3437   */\n      dup1\n        /* \"#utility.yul\":3485:3489   */\n      0x20\n        /* \"#utility.yul\":3477:3483   */\n      dup5\n        /* \"#utility.yul\":3473:3490   */\n      mul\n        /* \"#utility.yul\":3465:3471   */\n      dup4\n        /* \"#utility.yul\":3461:3491   */\n      add\n        /* \"#utility.yul\":3514:3517   */\n      dup6\n        /* \"#utility.yul\":3506:3512   */\n      dup2\n        /* \"#utility.yul\":3503:3518   */\n      gt\n        /* \"#utility.yul\":3500:3622   */\n      iszero\n      tag_253\n      jumpi\n        /* \"#utility.yul\":3533:3612   */\n      tag_254\n      tag_177\n      jump\t// in\n    tag_254:\n        /* \"#utility.yul\":3500:3622   */\n    tag_253:\n        /* \"#utility.yul\":3648:3654   */\n      dup4\n        /* \"#utility.yul\":3631:3851   */\n    tag_255:\n        /* \"#utility.yul\":3665:3671   */\n      dup2\n        /* \"#utility.yul\":3660:3663   */\n      dup2\n        /* \"#utility.yul\":3657:3672   */\n      lt\n        /* \"#utility.yul\":3631:3851   */\n      iszero\n      tag_257\n      jumpi\n        /* \"#utility.yul\":3740:3743   */\n      dup1\n        /* \"#utility.yul\":3769:3806   */\n      tag_258\n        /* \"#utility.yul\":3802:3805   */\n      dup9\n        /* \"#utility.yul\":3790:3800   */\n      dup3\n        /* \"#utility.yul\":3769:3806   */\n      tag_180\n      jump\t// in\n    tag_258:\n        /* \"#utility.yul\":3764:3767   */\n      dup5\n        /* \"#utility.yul\":3757:3807   */\n      mstore\n        /* \"#utility.yul\":3836:3840   */\n      0x20\n        /* \"#utility.yul\":3831:3834   */\n      dup5\n        /* \"#utility.yul\":3827:3841   */\n      add\n        /* \"#utility.yul\":3820:3841   */\n      swap4\n      pop\n        /* \"#utility.yul\":3707:3851   */\n      pop\n        /* \"#utility.yul\":3691:3695   */\n      0x20\n        /* \"#utility.yul\":3686:3689   */\n      dup2\n        /* \"#utility.yul\":3682:3696   */\n      add\n        /* \"#utility.yul\":3675:3696   */\n      swap1\n      pop\n        /* \"#utility.yul\":3631:3851   */\n      jump(tag_255)\n    tag_257:\n        /* \"#utility.yul\":3635:3656   */\n      pop\n        /* \"#utility.yul\":3313:3857   */\n      pop\n      pop\n        /* \"#utility.yul\":3212:3857   */\n      swap4\n      swap3\n      pop\n      pop\n      pop\n      jump\t// out\n        /* \"#utility.yul\":3882:4223   */\n    tag_185:\n        /* \"#utility.yul\":3952:3957   */\n      0x00\n        /* \"#utility.yul\":4001:4004   */\n      dup3\n        /* \"#utility.yul\":3994:3998   */\n      0x1f\n        /* \"#utility.yul\":3986:3992   */\n      dup4\n        /* \"#utility.yul\":3982:3999   */\n      add\n        /* \"#utility.yul\":3978:4005   */\n      slt\n        /* \"#utility.yul\":3968:4090   */\n      tag_260\n      jumpi\n        /* \"#utility.yul\":4009:4088   */\n      tag_261\n      tag_172\n      jump\t// in\n    tag_261:\n        /* \"#utility.yul\":3968:4090   */\n    tag_260:\n        /* \"#utility.yul\":4113:4117   */\n      0x0c\n        /* \"#utility.yul\":4135:4217   */\n      tag_262\n        /* \"#utility.yul\":4213:4216   */\n      dup5\n        /* \"#utility.yul\":4205:4211   */\n      dup3\n        /* \"#utility.yul\":4197:4203   */\n      dup6\n        /* \"#utility.yul\":4135:4217   */\n      tag_184\n      jump\t// in\n    tag_262:\n        /* \"#utility.yul\":4126:4217   */\n      swap2\n      pop\n        /* \"#utility.yul\":3958:4223   */\n      pop\n        /* \"#utility.yul\":3882:4223   */\n      swap3\n      swap2\n      pop\n      pop\n      jump\t// out\n        /* \"#utility.yul\":4229:4346   */\n    tag_186:\n        /* \"#utility.yul\":4338:4339   */\n      0x00\n        /* \"#utility.yul\":4335:4336   */\n      0x00\n        /* \"#utility.yul\":4328:4340   */\n      revert\n        /* \"#utility.yul\":4505:5072   */\n    tag_188:\n        /* \"#utility.yul\":4578:4583   */\n      0x00\n        /* \"#utility.yul\":4622:4626   */\n      0x40\n        /* \"#utility.yul\":4610:4619   */\n      dup3\n        /* \"#utility.yul\":4605:4608   */\n      dup5\n        /* \"#utility.yul\":4601:4620   */\n      sub\n        /* \"#utility.yul\":4597:4627   */\n      slt\n        /* \"#utility.yul\":4594:4711   */\n      iszero\n      tag_266\n      jumpi\n        /* \"#utility.yul\":4630:4709   */\n      tag_267\n      tag_186\n      jump\t// in\n    tag_267:\n        /* \"#utility.yul\":4594:4711   */\n    tag_266:\n        /* \"#utility.yul\":4729:4750   */\n      tag_268\n        /* \"#utility.yul\":4745:4749   */\n      0x40\n        /* \"#utility.yul\":4729:4750   */\n      tag_175\n      jump\t// in\n    tag_268:\n        /* \"#utility.yul\":4720:4750   */\n      swap1\n      pop\n        /* \"#utility.yul\":4806:4807   */\n      0x00\n        /* \"#utility.yul\":4846:4895   */\n      tag_269\n        /* \"#utility.yul\":4891:4894   */\n      dup5\n        /* \"#utility.yul\":4882:4888   */\n      dup3\n        /* \"#utility.yul\":4871:4880   */\n      dup6\n        /* \"#utility.yul\":4867:4889   */\n      add\n        /* \"#utility.yul\":4846:4895   */\n      tag_180\n      jump\t// in\n    tag_269:\n        /* \"#utility.yul\":4839:4843   */\n      0x00\n        /* \"#utility.yul\":4832:4837   */\n      dup4\n        /* \"#utility.yul\":4828:4844   */\n      add\n        /* \"#utility.yul\":4821:4896   */\n      mstore\n        /* \"#utility.yul\":4760:4907   */\n      pop\n        /* \"#utility.yul\":4963:4965   */\n      0x20\n        /* \"#utility.yul\":5004:5053   */\n      tag_270\n        /* \"#utility.yul\":5049:5052   */\n      dup5\n        /* \"#utility.yul\":5040:5046   */\n      dup3\n        /* \"#utility.yul\":5029:5038   */\n      dup6\n        /* \"#utility.yul\":5025:5047   */\n      add\n        /* \"#utility.yul\":5004:5053   */\n      tag_180\n      jump\t// in\n    tag_270:\n        /* \"#utility.yul\":4997:5001   */\n      0x20\n        /* \"#utility.yul\":4990:4995   */\n      dup4\n        /* \"#utility.yul\":4986:5002   */\n      add\n        /* \"#utility.yul\":4979:5054   */\n      mstore\n        /* \"#utility.yul\":4917:5065   */\n      pop\n        /* \"#utility.yul\":4505:5072   */\n      swap3\n      swap2\n      pop\n      pop\n      jump\t// out\n        /* \"#utility.yul\":5078:5327   */\n    tag_189:\n        /* \"#utility.yul\":5153:5157   */\n      0x00\n        /* \"#utility.yul\":5243:5261   */\n      0xffffffffffffffff\n        /* \"#utility.yul\":5235:5241   */\n      dup3\n        /* \"#utility.yul\":5232:5262   */\n      gt\n        /* \"#utility.yul\":5229:5285   */\n      iszero\n      tag_272\n      jumpi\n        /* \"#utility.yul\":5265:5283   */\n      tag_273\n      tag_108\n      jump\t// in\n    tag_273:\n        /* \"#utility.yul\":5229:5285   */\n    tag_272:\n        /* \"#utility.yul\":5315:5319   */\n      0x20\n        /* \"#utility.yul\":5307:5313   */\n      dup3\n        /* \"#utility.yul\":5303:5320   */\n      mul\n        /* \"#utility.yul\":5295:5320   */\n      swap1\n      pop\n        /* \"#utility.yul\":5078:5327   */\n      swap2\n      swap1\n      pop\n      jump\t// out\n        /* \"#utility.yul\":5351:5994   */\n    tag_190:\n        /* \"#utility.yul\":5445:5450   */\n      0x00\n        /* \"#utility.yul\":5470:5549   */\n      tag_275\n        /* \"#utility.yul\":5486:5548   */\n      tag_276\n        /* \"#utility.yul\":5541:5547   */\n      dup5\n        /* \"#utility.yul\":5486:5548   */\n      tag_189\n      jump\t// in\n    tag_276:\n        /* \"#utility.yul\":5470:5549   */\n      tag_175\n      jump\t// in\n    tag_275:\n        /* \"#utility.yul\":5461:5549   */\n      swap1\n      pop\n        /* \"#utility.yul\":5569:5574   */\n      dup1\n        /* \"#utility.yul\":5622:5626   */\n      0x20\n        /* \"#utility.yul\":5614:5620   */\n      dup5\n        /* \"#utility.yul\":5610:5627   */\n      mul\n        /* \"#utility.yul\":5602:5608   */\n      dup4\n        /* \"#utility.yul\":5598:5628   */\n      add\n        /* \"#utility.yul\":5651:5654   */\n      dup6\n        /* \"#utility.yul\":5643:5649   */\n      dup2\n        /* \"#utility.yul\":5640:5655   */\n      gt\n        /* \"#utility.yul\":5637:5759   */\n      iszero\n      tag_277\n      jumpi\n        /* \"#utility.yul\":5670:5749   */\n      tag_278\n      tag_177\n      jump\t// in\n    tag_278:\n        /* \"#utility.yul\":5637:5759   */\n    tag_277:\n        /* \"#utility.yul\":5785:5791   */\n      dup4\n        /* \"#utility.yul\":5768:5988   */\n    tag_279:\n        /* \"#utility.yul\":5802:5808   */\n      dup2\n        /* \"#utility.yul\":5797:5800   */\n      dup2\n        /* \"#utility.yul\":5794:5809   */\n      lt\n        /* \"#utility.yul\":5768:5988   */\n      iszero\n      tag_281\n      jumpi\n        /* \"#utility.yul\":5877:5880   */\n      dup1\n        /* \"#utility.yul\":5906:5943   */\n      tag_282\n        /* \"#utility.yul\":5939:5942   */\n      dup9\n        /* \"#utility.yul\":5927:5937   */\n      dup3\n        /* \"#utility.yul\":5906:5943   */\n      tag_180\n      jump\t// in\n    tag_282:\n        /* \"#utility.yul\":5901:5904   */\n      dup5\n        /* \"#utility.yul\":5894:5944   */\n      mstore\n        /* \"#utility.yul\":5973:5977   */\n      0x20\n        /* \"#utility.yul\":5968:5971   */\n      dup5\n        /* \"#utility.yul\":5964:5978   */\n      add\n        /* \"#utility.yul\":5957:5978   */\n      swap4\n      pop\n        /* \"#utility.yul\":5844:5988   */\n      pop\n        /* \"#utility.yul\":5828:5832   */\n      0x20\n        /* \"#utility.yul\":5823:5826   */\n      dup2\n        /* \"#utility.yul\":5819:5833   */\n      add\n        /* \"#utility.yul\":5812:5833   */\n      swap1\n      pop\n        /* \"#utility.yul\":5768:5988   */\n      jump(tag_279)\n    tag_281:\n        /* \"#utility.yul\":5772:5793   */\n      pop\n        /* \"#utility.yul\":5451:5994   */\n      pop\n      pop\n        /* \"#utility.yul\":5351:5994   */\n      swap4\n      swap3\n      pop\n      pop\n      pop\n      jump\t// out\n        /* \"#utility.yul\":6018:6357   */\n    tag_191:\n        /* \"#utility.yul\":6087:6092   */\n      0x00\n        /* \"#utility.yul\":6136:6139   */\n      dup3\n        /* \"#utility.yul\":6129:6133   */\n      0x1f\n        /* \"#utility.yul\":6121:6127   */\n      dup4\n        /* \"#utility.yul\":6117:6134   */\n      add\n        /* \"#utility.yul\":6113:6140   */\n      slt\n        /* \"#utility.yul\":6103:6225   */\n      tag_284\n      jumpi\n        /* \"#utility.yul\":6144:6223   */\n      tag_285\n      tag_172\n      jump\t// in\n    tag_285:\n        /* \"#utility.yul\":6103:6225   */\n    tag_284:\n        /* \"#utility.yul\":6248:6252   */\n      0x02\n        /* \"#utility.yul\":6270:6351   */\n      tag_286\n        /* \"#utility.yul\":6347:6350   */\n      dup5\n        /* \"#utility.yul\":6339:6345   */\n      dup3\n        /* \"#utility.yul\":6331:6337   */\n      dup6\n        /* \"#utility.yul\":6270:6351   */\n      tag_190\n      jump\t// in\n    tag_286:\n        /* \"#utility.yul\":6261:6351   */\n      swap2\n      pop\n        /* \"#utility.yul\":6093:6357   */\n      pop\n        /* \"#utility.yul\":6018:6357   */\n      swap3\n      swap2\n      pop\n      pop\n      jump\t// out\n        /* \"#utility.yul\":6393:7006   */\n    tag_192:\n        /* \"#utility.yul\":6466:6471   */\n      0x00\n        /* \"#utility.yul\":6510:6514   */\n      0x80\n        /* \"#utility.yul\":6498:6507   */\n      dup3\n        /* \"#utility.yul\":6493:6496   */\n      dup5\n        /* \"#utility.yul\":6489:6508   */\n      sub\n        /* \"#utility.yul\":6485:6515   */\n      slt\n        /* \"#utility.yul\":6482:6599   */\n      iszero\n      tag_288\n      jumpi\n        /* \"#utility.yul\":6518:6597   */\n      tag_289\n      tag_186\n      jump\t// in\n    tag_289:\n        /* \"#utility.yul\":6482:6599   */\n    tag_288:\n        /* \"#utility.yul\":6617:6638   */\n      tag_290\n        /* \"#utility.yul\":6633:6637   */\n      0x40\n        /* \"#utility.yul\":6617:6638   */\n      tag_175\n      jump\t// in\n    tag_290:\n        /* \"#utility.yul\":6608:6638   */\n      swap1\n      pop\n        /* \"#utility.yul\":6694:6695   */\n      0x00\n        /* \"#utility.yul\":6734:6806   */\n      tag_291\n        /* \"#utility.yul\":6802:6805   */\n      dup5\n        /* \"#utility.yul\":6793:6799   */\n      dup3\n        /* \"#utility.yul\":6782:6791   */\n      dup6\n        /* \"#utility.yul\":6778:6800   */\n      add\n        /* \"#utility.yul\":6734:6806   */\n      tag_191\n      jump\t// in\n    tag_291:\n        /* \"#utility.yul\":6727:6731   */\n      0x00\n        /* \"#utility.yul\":6720:6725   */\n      dup4\n        /* \"#utility.yul\":6716:6732   */\n      add\n        /* \"#utility.yul\":6709:6807   */\n      mstore\n        /* \"#utility.yul\":6648:6818   */\n      pop\n        /* \"#utility.yul\":6874:6876   */\n      0x40\n        /* \"#utility.yul\":6915:6987   */\n      tag_292\n        /* \"#utility.yul\":6983:6986   */\n      dup5\n        /* \"#utility.yul\":6974:6980   */\n      dup3\n        /* \"#utility.yul\":6963:6972   */\n      dup6\n        /* \"#utility.yul\":6959:6981   */\n      add\n        /* \"#utility.yul\":6915:6987   */\n      tag_191\n      jump\t// in\n    tag_292:\n        /* \"#utility.yul\":6908:6912   */\n      0x20\n        /* \"#utility.yul\":6901:6906   */\n      dup4\n        /* \"#utility.yul\":6897:6913   */\n      add\n        /* \"#utility.yul\":6890:6988   */\n      mstore\n        /* \"#utility.yul\":6828:6999   */\n      pop\n        /* \"#utility.yul\":6393:7006   */\n      swap3\n      swap2\n      pop\n      pop\n      jump\t// out\n        /* \"#utility.yul\":7012:7286   */\n    tag_193:\n        /* \"#utility.yul\":7112:7116   */\n      0x00\n        /* \"#utility.yul\":7202:7220   */\n      0xffffffffffffffff\n        /* \"#utility.yul\":7194:7200   */\n      dup3\n        /* \"#utility.yul\":7191:7221   */\n      gt\n        /* \"#utility.yul\":7188:7244   */\n      iszero\n      tag_294\n      jumpi\n        /* \"#utility.yul\":7224:7242   */\n      tag_295\n      tag_108\n      jump\t// in\n    tag_295:\n        /* \"#utility.yul\":7188:7244   */\n    tag_294:\n        /* \"#utility.yul\":7274:7278   */\n      0x20\n        /* \"#utility.yul\":7266:7272   */\n      dup3\n        /* \"#utility.yul\":7262:7279   */\n      mul\n        /* \"#utility.yul\":7254:7279   */\n      swap1\n      pop\n        /* \"#utility.yul\":7012:7286   */\n      swap2\n      swap1\n      pop\n      jump\t// out\n        /* \"#utility.yul\":7326:8043   */\n    tag_194:\n        /* \"#utility.yul\":7445:7450   */\n      0x00\n        /* \"#utility.yul\":7470:7574   */\n      tag_297\n        /* \"#utility.yul\":7486:7573   */\n      tag_298\n        /* \"#utility.yul\":7566:7572   */\n      dup5\n        /* \"#utility.yul\":7486:7573   */\n      tag_193\n      jump\t// in\n    tag_298:\n        /* \"#utility.yul\":7470:7574   */\n      tag_175\n      jump\t// in\n    tag_297:\n        /* \"#utility.yul\":7461:7574   */\n      swap1\n      pop\n        /* \"#utility.yul\":7594:7599   */\n      dup1\n        /* \"#utility.yul\":7647:7651   */\n      0x40\n        /* \"#utility.yul\":7639:7645   */\n      dup5\n        /* \"#utility.yul\":7635:7652   */\n      mul\n        /* \"#utility.yul\":7627:7633   */\n      dup4\n        /* \"#utility.yul\":7623:7653   */\n      add\n        /* \"#utility.yul\":7676:7679   */\n      dup6\n        /* \"#utility.yul\":7668:7674   */\n      dup2\n        /* \"#utility.yul\":7665:7680   */\n      gt\n        /* \"#utility.yul\":7662:7784   */\n      iszero\n      tag_299\n      jumpi\n        /* \"#utility.yul\":7695:7774   */\n      tag_300\n      tag_177\n      jump\t// in\n    tag_300:\n        /* \"#utility.yul\":7662:7784   */\n    tag_299:\n        /* \"#utility.yul\":7810:7816   */\n      dup4\n        /* \"#utility.yul\":7793:8037   */\n    tag_301:\n        /* \"#utility.yul\":7827:7833   */\n      dup2\n        /* \"#utility.yul\":7822:7825   */\n      dup2\n        /* \"#utility.yul\":7819:7834   */\n      lt\n        /* \"#utility.yul\":7793:8037   */\n      iszero\n      tag_303\n      jumpi\n        /* \"#utility.yul\":7902:7905   */\n      dup1\n        /* \"#utility.yul\":7931:7992   */\n      tag_304\n        /* \"#utility.yul\":7988:7991   */\n      dup9\n        /* \"#utility.yul\":7976:7986   */\n      dup3\n        /* \"#utility.yul\":7931:7992   */\n      tag_188\n      jump\t// in\n    tag_304:\n        /* \"#utility.yul\":7926:7929   */\n      dup5\n        /* \"#utility.yul\":7919:7993   */\n      mstore\n        /* \"#utility.yul\":8022:8026   */\n      0x20\n        /* \"#utility.yul\":8017:8020   */\n      dup5\n        /* \"#utility.yul\":8013:8027   */\n      add\n        /* \"#utility.yul\":8006:8027   */\n      swap4\n      pop\n        /* \"#utility.yul\":7869:8037   */\n      pop\n        /* \"#utility.yul\":7853:7857   */\n      0x40\n        /* \"#utility.yul\":7848:7851   */\n      dup2\n        /* \"#utility.yul\":7844:7858   */\n      add\n        /* \"#utility.yul\":7837:7858   */\n      swap1\n      pop\n        /* \"#utility.yul\":7793:8037   */\n      jump(tag_301)\n    tag_303:\n        /* \"#utility.yul\":7797:7818   */\n      pop\n        /* \"#utility.yul\":7451:8043   */\n      pop\n      pop\n        /* \"#utility.yul\":7326:8043   */\n      swap4\n      swap3\n      pop\n      pop\n      pop\n      jump\t// out\n        /* \"#utility.yul\":8083:8472   */\n    tag_195:\n        /* \"#utility.yul\":8177:8182   */\n      0x00\n        /* \"#utility.yul\":8226:8229   */\n      dup3\n        /* \"#utility.yul\":8219:8223   */\n      0x1f\n        /* \"#utility.yul\":8211:8217   */\n      dup4\n        /* \"#utility.yul\":8207:8224   */\n      add\n        /* \"#utility.yul\":8203:8230   */\n      slt\n        /* \"#utility.yul\":8193:8315   */\n      tag_306\n      jumpi\n        /* \"#utility.yul\":8234:8313   */\n      tag_307\n      tag_172\n      jump\t// in\n    tag_307:\n        /* \"#utility.yul\":8193:8315   */\n    tag_306:\n        /* \"#utility.yul\":8338:8342   */\n      0x0d\n        /* \"#utility.yul\":8360:8466   */\n      tag_308\n        /* \"#utility.yul\":8462:8465   */\n      dup5\n        /* \"#utility.yul\":8454:8460   */\n      dup3\n        /* \"#utility.yul\":8446:8452   */\n      dup6\n        /* \"#utility.yul\":8360:8466   */\n      tag_194\n      jump\t// in\n    tag_308:\n        /* \"#utility.yul\":8351:8466   */\n      swap2\n      pop\n        /* \"#utility.yul\":8183:8472   */\n      pop\n        /* \"#utility.yul\":8083:8472   */\n      swap3\n      swap2\n      pop\n      pop\n      jump\t// out\n        /* \"#utility.yul\":8524:9748   */\n    tag_196:\n        /* \"#utility.yul\":8601:8606   */\n      0x00\n        /* \"#utility.yul\":8645:8651   */\n      0x0500\n        /* \"#utility.yul\":8633:8642   */\n      dup3\n        /* \"#utility.yul\":8628:8631   */\n      dup5\n        /* \"#utility.yul\":8624:8643   */\n      sub\n        /* \"#utility.yul\":8620:8652   */\n      slt\n        /* \"#utility.yul\":8617:8736   */\n      iszero\n      tag_310\n      jumpi\n        /* \"#utility.yul\":8655:8734   */\n      tag_311\n      tag_186\n      jump\t// in\n    tag_311:\n        /* \"#utility.yul\":8617:8736   */\n    tag_310:\n        /* \"#utility.yul\":8754:8775   */\n      tag_312\n        /* \"#utility.yul\":8770:8774   */\n      0xa0\n        /* \"#utility.yul\":8754:8775   */\n      tag_175\n      jump\t// in\n    tag_312:\n        /* \"#utility.yul\":8745:8775   */\n      swap1\n      pop\n        /* \"#utility.yul\":8836:8837   */\n      0x00\n        /* \"#utility.yul\":8876:8949   */\n      tag_313\n        /* \"#utility.yul\":8945:8948   */\n      dup5\n        /* \"#utility.yul\":8936:8942   */\n      dup3\n        /* \"#utility.yul\":8925:8934   */\n      dup6\n        /* \"#utility.yul\":8921:8943   */\n      add\n        /* \"#utility.yul\":8876:8949   */\n      tag_188\n      jump\t// in\n    tag_313:\n        /* \"#utility.yul\":8869:8873   */\n      0x00\n        /* \"#utility.yul\":8862:8867   */\n      dup4\n        /* \"#utility.yul\":8858:8874   */\n      add\n        /* \"#utility.yul\":8851:8950   */\n      mstore\n        /* \"#utility.yul\":8785:8961   */\n      pop\n        /* \"#utility.yul\":9021:9023   */\n      0x40\n        /* \"#utility.yul\":9062:9135   */\n      tag_314\n        /* \"#utility.yul\":9131:9134   */\n      dup5\n        /* \"#utility.yul\":9122:9128   */\n      dup3\n        /* \"#utility.yul\":9111:9120   */\n      dup6\n        /* \"#utility.yul\":9107:9129   */\n      add\n        /* \"#utility.yul\":9062:9135   */\n      tag_192\n      jump\t// in\n    tag_314:\n        /* \"#utility.yul\":9055:9059   */\n      0x20\n        /* \"#utility.yul\":9048:9053   */\n      dup4\n        /* \"#utility.yul\":9044:9060   */\n      add\n        /* \"#utility.yul\":9037:9136   */\n      mstore\n        /* \"#utility.yul\":8971:9147   */\n      pop\n        /* \"#utility.yul\":9208:9211   */\n      0xc0\n        /* \"#utility.yul\":9250:9323   */\n      tag_315\n        /* \"#utility.yul\":9319:9322   */\n      dup5\n        /* \"#utility.yul\":9310:9316   */\n      dup3\n        /* \"#utility.yul\":9299:9308   */\n      dup6\n        /* \"#utility.yul\":9295:9317   */\n      add\n        /* \"#utility.yul\":9250:9323   */\n      tag_192\n      jump\t// in\n    tag_315:\n        /* \"#utility.yul\":9243:9247   */\n      0x40\n        /* \"#utility.yul\":9236:9241   */\n      dup4\n        /* \"#utility.yul\":9232:9248   */\n      add\n        /* \"#utility.yul\":9225:9324   */\n      mstore\n        /* \"#utility.yul\":9157:9335   */\n      pop\n        /* \"#utility.yul\":9396:9399   */\n      0x0140\n        /* \"#utility.yul\":9438:9511   */\n      tag_316\n        /* \"#utility.yul\":9507:9510   */\n      dup5\n        /* \"#utility.yul\":9498:9504   */\n      dup3\n        /* \"#utility.yul\":9487:9496   */\n      dup6\n        /* \"#utility.yul\":9483:9505   */\n      add\n        /* \"#utility.yul\":9438:9511   */\n      tag_192\n      jump\t// in\n    tag_316:\n        /* \"#utility.yul\":9431:9435   */\n      0x60\n        /* \"#utility.yul\":9424:9429   */\n      dup4\n        /* \"#utility.yul\":9420:9436   */\n      add\n        /* \"#utility.yul\":9413:9512   */\n      mstore\n        /* \"#utility.yul\":9345:9523   */\n      pop\n        /* \"#utility.yul\":9590:9593   */\n      0x01c0\n        /* \"#utility.yul\":9632:9729   */\n      tag_317\n        /* \"#utility.yul\":9725:9728   */\n      dup5\n        /* \"#utility.yul\":9716:9722   */\n      dup3\n        /* \"#utility.yul\":9705:9714   */\n      dup6\n        /* \"#utility.yul\":9701:9723   */\n      add\n        /* \"#utility.yul\":9632:9729   */\n      tag_195\n      jump\t// in\n    tag_317:\n        /* \"#utility.yul\":9625:9629   */\n      0x80\n        /* \"#utility.yul\":9618:9623   */\n      dup4\n        /* \"#utility.yul\":9614:9630   */\n      add\n        /* \"#utility.yul\":9607:9730   */\n      mstore\n        /* \"#utility.yul\":9533:9741   */\n      pop\n        /* \"#utility.yul\":8524:9748   */\n      swap3\n      swap2\n      pop\n      pop\n      jump\t// out\n        /* \"#utility.yul\":9754:10527   */\n    tag_8:\n        /* \"#utility.yul\":9906:9912   */\n      0x00\n        /* \"#utility.yul\":9914:9920   */\n      0x00\n        /* \"#utility.yul\":9922:9928   */\n      0x00\n        /* \"#utility.yul\":9971:9975   */\n      0x0780\n        /* \"#utility.yul\":9959:9968   */\n      dup5\n        /* \"#utility.yul\":9950:9957   */\n      dup7\n        /* \"#utility.yul\":9946:9969   */\n      sub\n        /* \"#utility.yul\":9942:9976   */\n      slt\n        /* \"#utility.yul\":9939:10060   */\n      iszero\n      tag_319\n      jumpi\n        /* \"#utility.yul\":9979:10058   */\n      tag_320\n      tag_170\n      jump\t// in\n    tag_320:\n        /* \"#utility.yul\":9939:10060   */\n    tag_319:\n        /* \"#utility.yul\":10099:10100   */\n      0x00\n        /* \"#utility.yul\":10124:10200   */\n      tag_321\n        /* \"#utility.yul\":10192:10199   */\n      dup7\n        /* \"#utility.yul\":10183:10189   */\n      dup3\n        /* \"#utility.yul\":10172:10181   */\n      dup8\n        /* \"#utility.yul\":10168:10190   */\n      add\n        /* \"#utility.yul\":10124:10200   */\n      tag_182\n      jump\t// in\n    tag_321:\n        /* \"#utility.yul\":10114:10200   */\n      swap4\n      pop\n        /* \"#utility.yul\":10070:10210   */\n      pop\n        /* \"#utility.yul\":10249:10252   */\n      0x0100\n        /* \"#utility.yul\":10276:10353   */\n      tag_322\n        /* \"#utility.yul\":10345:10352   */\n      dup7\n        /* \"#utility.yul\":10336:10342   */\n      dup3\n        /* \"#utility.yul\":10325:10334   */\n      dup8\n        /* \"#utility.yul\":10321:10343   */\n      add\n        /* \"#utility.yul\":10276:10353   */\n      tag_185\n      jump\t// in\n    tag_322:\n        /* \"#utility.yul\":10266:10353   */\n      swap3\n      pop\n        /* \"#utility.yul\":10220:10363   */\n      pop\n        /* \"#utility.yul\":10402:10405   */\n      0x0280\n        /* \"#utility.yul\":10429:10510   */\n      tag_323\n        /* \"#utility.yul\":10502:10509   */\n      dup7\n        /* \"#utility.yul\":10493:10499   */\n      dup3\n        /* \"#utility.yul\":10482:10491   */\n      dup8\n        /* \"#utility.yul\":10478:10500   */\n      add\n        /* \"#utility.yul\":10429:10510   */\n      tag_196\n      jump\t// in\n    tag_323:\n        /* \"#utility.yul\":10419:10510   */\n      swap2\n      pop\n        /* \"#utility.yul\":10373:10520   */\n      pop\n        /* \"#utility.yul\":9754:10527   */\n      swap3\n      pop\n      swap3\n      pop\n      swap3\n      jump\t// out\n        /* \"#utility.yul\":10533:10623   */\n    tag_197:\n        /* \"#utility.yul\":10567:10574   */\n      0x00\n        /* \"#utility.yul\":10610:10615   */\n      dup2\n        /* \"#utility.yul\":10603:10616   */\n      iszero\n        /* \"#utility.yul\":10596:10617   */\n      iszero\n        /* \"#utility.yul\":10585:10617   */\n      swap1\n      pop\n        /* \"#utility.yul\":10533:10623   */\n      swap2\n      swap1\n      pop\n      jump\t// out\n        /* \"#utility.yul\":10629:10738   */\n    tag_198:\n        /* \"#utility.yul\":10710:10731   */\n      tag_326\n        /* \"#utility.yul\":10725:10730   */\n      dup2\n        /* \"#utility.yul\":10710:10731   */\n      tag_197\n      jump\t// in\n    tag_326:\n        /* \"#utility.yul\":10705:10708   */\n      dup3\n        /* \"#utility.yul\":10698:10732   */\n      mstore\n        /* \"#utility.yul\":10629:10738   */\n      pop\n      pop\n      jump\t// out\n        /* \"#utility.yul\":10744:10954   */\n    tag_13:\n        /* \"#utility.yul\":10831:10835   */\n      0x00\n        /* \"#utility.yul\":10869:10871   */\n      0x20\n        /* \"#utility.yul\":10858:10867   */\n      dup3\n        /* \"#utility.yul\":10854:10872   */\n      add\n        /* \"#utility.yul\":10846:10872   */\n      swap1\n      pop\n        /* \"#utility.yul\":10882:10947   */\n      tag_328\n        /* \"#utility.yul\":10944:10945   */\n      0x00\n        /* \"#utility.yul\":10933:10942   */\n      dup4\n        /* \"#utility.yul\":10929:10946   */\n      add\n        /* \"#utility.yul\":10920:10926   */\n      dup5\n        /* \"#utility.yul\":10882:10947   */\n      tag_198\n      jump\t// in\n    tag_328:\n        /* \"#utility.yul\":10744:10954   */\n      swap3\n      swap2\n      pop\n      pop\n      jump\t// out\n        /* \"#utility.yul\":10960:11140   */\n    tag_22:\n        /* \"#utility.yul\":11008:11085   */\n      0x4e487b7100000000000000000000000000000000000000000000000000000000\n        /* \"#utility.yul\":11005:11006   */\n      0x00\n        /* \"#utility.yul\":10998:11086   */\n      mstore\n        /* \"#utility.yul\":11105:11109   */\n      0x32\n        /* \"#utility.yul\":11102:11103   */\n      0x04\n        /* \"#utility.yul\":11095:11110   */\n      mstore\n        /* \"#utility.yul\":11129:11133   */\n      0x24\n        /* \"#utility.yul\":11126:11127   */\n      0x00\n        /* \"#utility.yul\":11119:11134   */\n      revert\n        /* \"#utility.yul\":11146:11315   */\n    tag_199:\n        /* \"#utility.yul\":11230:11241   */\n      0x00\n        /* \"#utility.yul\":11264:11270   */\n      dup3\n        /* \"#utility.yul\":11259:11262   */\n      dup3\n        /* \"#utility.yul\":11252:11271   */\n      mstore\n        /* \"#utility.yul\":11304:11308   */\n      0x20\n        /* \"#utility.yul\":11299:11302   */\n      dup3\n        /* \"#utility.yul\":11295:11309   */\n      add\n        /* \"#utility.yul\":11280:11309   */\n      swap1\n      pop\n        /* \"#utility.yul\":11146:11315   */\n      swap3\n      swap2\n      pop\n      pop\n      jump\t// out\n        /* \"#utility.yul\":11321:11502   */\n    tag_200:\n        /* \"#utility.yul\":11461:11494   */\n      0x76657269666965722d6774652d736e61726b2d7363616c61722d6669656c6400\n        /* \"#utility.yul\":11457:11458   */\n      0x00\n        /* \"#utility.yul\":11449:11455   */\n      dup3\n        /* \"#utility.yul\":11445:11459   */\n      add\n        /* \"#utility.yul\":11438:11495   */\n      mstore\n        /* \"#utility.yul\":11321:11502   */\n      pop\n      jump\t// out\n        /* \"#utility.yul\":11508:11874   */\n    tag_201:\n        /* \"#utility.yul\":11650:11653   */\n      0x00\n        /* \"#utility.yul\":11671:11738   */\n      tag_333\n        /* \"#utility.yul\":11735:11737   */\n      0x1f\n        /* \"#utility.yul\":11730:11733   */\n      dup4\n        /* \"#utility.yul\":11671:11738   */\n      tag_199\n      jump\t// in\n    tag_333:\n        /* \"#utility.yul\":11664:11738   */\n      swap2\n      pop\n        /* \"#utility.yul\":11747:11840   */\n      tag_334\n        /* \"#utility.yul\":11836:11839   */\n      dup3\n        /* \"#utility.yul\":11747:11840   */\n      tag_200\n      jump\t// in\n    tag_334:\n        /* \"#utility.yul\":11865:11867   */\n      0x20\n        /* \"#utility.yul\":11860:11863   */\n      dup3\n        /* \"#utility.yul\":11856:11868   */\n      add\n        /* \"#utility.yul\":11849:11868   */\n      swap1\n      pop\n        /* \"#utility.yul\":11508:11874   */\n      swap2\n      swap1\n      pop\n      jump\t// out\n        /* \"#utility.yul\":11880:12299   */\n    tag_48:\n        /* \"#utility.yul\":12046:12050   */\n      0x00\n        /* \"#utility.yul\":12084:12086   */\n      0x20\n        /* \"#utility.yul\":12073:12082   */\n      dup3\n        /* \"#utility.yul\":12069:12087   */\n      add\n        /* \"#utility.yul\":12061:12087   */\n      swap1\n      pop\n        /* \"#utility.yul\":12133:12142   */\n      dup2\n        /* \"#utility.yul\":12127:12131   */\n      dup2\n        /* \"#utility.yul\":12123:12143   */\n      sub\n        /* \"#utility.yul\":12119:12120   */\n      0x00\n        /* \"#utility.yul\":12108:12117   */\n      dup4\n        /* \"#utility.yul\":12104:12121   */\n      add\n        /* \"#utility.yul\":12097:12144   */\n      mstore\n        /* \"#utility.yul\":12161:12292   */\n      tag_336\n        /* \"#utility.yul\":12287:12291   */\n      dup2\n        /* \"#utility.yul\":12161:12292   */\n      tag_201\n      jump\t// in\n    tag_336:\n        /* \"#utility.yul\":12153:12292   */\n      swap1\n      pop\n        /* \"#utility.yul\":11880:12299   */\n      swap2\n      swap1\n      pop\n      jump\t// out\n        /* \"#utility.yul\":12305:12485   */\n    tag_202:\n        /* \"#utility.yul\":12353:12430   */\n      0x4e487b7100000000000000000000000000000000000000000000000000000000\n        /* \"#utility.yul\":12350:12351   */\n      0x00\n        /* \"#utility.yul\":12343:12431   */\n      mstore\n        /* \"#utility.yul\":12450:12454   */\n      0x11\n        /* \"#utility.yul\":12447:12448   */\n      0x04\n        /* \"#utility.yul\":12440:12455   */\n      mstore\n        /* \"#utility.yul\":12474:12478   */\n      0x24\n        /* \"#utility.yul\":12471:12472   */\n      0x00\n        /* \"#utility.yul\":12464:12479   */\n      revert\n        /* \"#utility.yul\":12491:12682   */\n    tag_52:\n        /* \"#utility.yul\":12531:12534   */\n      0x00\n        /* \"#utility.yul\":12550:12570   */\n      tag_339\n        /* \"#utility.yul\":12568:12569   */\n      dup3\n        /* \"#utility.yul\":12550:12570   */\n      tag_178\n      jump\t// in\n    tag_339:\n        /* \"#utility.yul\":12545:12570   */\n      swap2\n      pop\n        /* \"#utility.yul\":12584:12604   */\n      tag_340\n        /* \"#utility.yul\":12602:12603   */\n      dup4\n        /* \"#utility.yul\":12584:12604   */\n      tag_178\n      jump\t// in\n    tag_340:\n        /* \"#utility.yul\":12579:12604   */\n      swap3\n      pop\n        /* \"#utility.yul\":12627:12628   */\n      dup3\n        /* \"#utility.yul\":12624:12625   */\n      dup3\n        /* \"#utility.yul\":12620:12629   */\n      add\n        /* \"#utility.yul\":12613:12629   */\n      swap1\n      pop\n        /* \"#utility.yul\":12648:12651   */\n      dup1\n        /* \"#utility.yul\":12645:12646   */\n      dup3\n        /* \"#utility.yul\":12642:12652   */\n      gt\n        /* \"#utility.yul\":12639:12675   */\n      iszero\n      tag_341\n      jumpi\n        /* \"#utility.yul\":12655:12673   */\n      tag_342\n      tag_202\n      jump\t// in\n    tag_342:\n        /* \"#utility.yul\":12639:12675   */\n    tag_341:\n        /* \"#utility.yul\":12491:12682   */\n      swap3\n      swap2\n      pop\n      pop\n      jump\t// out\n        /* \"#utility.yul\":12688:12853   */\n    tag_203:\n        /* \"#utility.yul\":12828:12845   */\n      0x6164646974696f6e206661696c65640000000000000000000000000000000000\n        /* \"#utility.yul\":12824:12825   */\n      0x00\n        /* \"#utility.yul\":12816:12822   */\n      dup3\n        /* \"#utility.yul\":12812:12826   */\n      add\n        /* \"#utility.yul\":12805:12846   */\n      mstore\n        /* \"#utility.yul\":12688:12853   */\n      pop\n      jump\t// out\n        /* \"#utility.yul\":12859:13225   */\n    tag_204:\n        /* \"#utility.yul\":13001:13004   */\n      0x00\n        /* \"#utility.yul\":13022:13089   */\n      tag_345\n        /* \"#utility.yul\":13086:13088   */\n      0x0f\n        /* \"#utility.yul\":13081:13084   */\n      dup4\n        /* \"#utility.yul\":13022:13089   */\n      tag_199\n      jump\t// in\n    tag_345:\n        /* \"#utility.yul\":13015:13089   */\n      swap2\n      pop\n        /* \"#utility.yul\":13098:13191   */\n      tag_346\n        /* \"#utility.yul\":13187:13190   */\n      dup3\n        /* \"#utility.yul\":13098:13191   */\n      tag_203\n      jump\t// in\n    tag_346:\n        /* \"#utility.yul\":13216:13218   */\n      0x20\n        /* \"#utility.yul\":13211:13214   */\n      dup3\n        /* \"#utility.yul\":13207:13219   */\n      add\n        /* \"#utility.yul\":13200:13219   */\n      swap1\n      pop\n        /* \"#utility.yul\":12859:13225   */\n      swap2\n      swap1\n      pop\n      jump\t// out\n        /* \"#utility.yul\":13231:13650   */\n    tag_80:\n        /* \"#utility.yul\":13397:13401   */\n      0x00\n        /* \"#utility.yul\":13435:13437   */\n      0x20\n        /* \"#utility.yul\":13424:13433   */\n      dup3\n        /* \"#utility.yul\":13420:13438   */\n      add\n        /* \"#utility.yul\":13412:13438   */\n      swap1\n      pop\n        /* \"#utility.yul\":13484:13493   */\n      dup2\n        /* \"#utility.yul\":13478:13482   */\n      dup2\n        /* \"#utility.yul\":13474:13494   */\n      sub\n        /* \"#utility.yul\":13470:13471   */\n      0x00\n        /* \"#utility.yul\":13459:13468   */\n      dup4\n        /* \"#utility.yul\":13455:13472   */\n      add\n        /* \"#utility.yul\":13448:13495   */\n      mstore\n        /* \"#utility.yul\":13512:13643   */\n      tag_348\n        /* \"#utility.yul\":13638:13642   */\n      dup2\n        /* \"#utility.yul\":13512:13643   */\n      tag_204\n      jump\t// in\n    tag_348:\n        /* \"#utility.yul\":13504:13643   */\n      swap1\n      pop\n        /* \"#utility.yul\":13231:13650   */\n      swap2\n      swap1\n      pop\n      jump\t// out\n        /* \"#utility.yul\":13656:13823   */\n    tag_205:\n        /* \"#utility.yul\":13796:13815   */\n      0x7363616c6172206d756c206661696c6564000000000000000000000000000000\n        /* \"#utility.yul\":13792:13793   */\n      0x00\n        /* \"#utility.yul\":13784:13790   */\n      dup3\n        /* \"#utility.yul\":13780:13794   */\n      add\n        /* \"#utility.yul\":13773:13816   */\n      mstore\n        /* \"#utility.yul\":13656:13823   */\n      pop\n      jump\t// out\n        /* \"#utility.yul\":13829:14195   */\n    tag_206:\n        /* \"#utility.yul\":13971:13974   */\n      0x00\n        /* \"#utility.yul\":13992:14059   */\n      tag_351\n        /* \"#utility.yul\":14056:14058   */\n      0x11\n        /* \"#utility.yul\":14051:14054   */\n      dup4\n        /* \"#utility.yul\":13992:14059   */\n      tag_199\n      jump\t// in\n    tag_351:\n        /* \"#utility.yul\":13985:14059   */\n      swap2\n      pop\n        /* \"#utility.yul\":14068:14161   */\n      tag_352\n        /* \"#utility.yul\":14157:14160   */\n      dup3\n        /* \"#utility.yul\":14068:14161   */\n      tag_205\n      jump\t// in\n    tag_352:\n        /* \"#utility.yul\":14186:14188   */\n      0x20\n        /* \"#utility.yul\":14181:14184   */\n      dup3\n        /* \"#utility.yul\":14177:14189   */\n      add\n        /* \"#utility.yul\":14170:14189   */\n      swap1\n      pop\n        /* \"#utility.yul\":13829:14195   */\n      swap2\n      swap1\n      pop\n      jump\t// out\n        /* \"#utility.yul\":14201:14620   */\n    tag_95:\n        /* \"#utility.yul\":14367:14371   */\n      0x00\n        /* \"#utility.yul\":14405:14407   */\n      0x20\n        /* \"#utility.yul\":14394:14403   */\n      dup3\n        /* \"#utility.yul\":14390:14408   */\n      add\n        /* \"#utility.yul\":14382:14408   */\n      swap1\n      pop\n        /* \"#utility.yul\":14454:14463   */\n      dup2\n        /* \"#utility.yul\":14448:14452   */\n      dup2\n        /* \"#utility.yul\":14444:14464   */\n      sub\n        /* \"#utility.yul\":14440:14441   */\n      0x00\n        /* \"#utility.yul\":14429:14438   */\n      dup4\n        /* \"#utility.yul\":14425:14442   */\n      add\n        /* \"#utility.yul\":14418:14465   */\n      mstore\n        /* \"#utility.yul\":14482:14613   */\n      tag_354\n        /* \"#utility.yul\":14608:14612   */\n      dup2\n        /* \"#utility.yul\":14482:14613   */\n      tag_206\n      jump\t// in\n    tag_354:\n        /* \"#utility.yul\":14474:14613   */\n      swap1\n      pop\n        /* \"#utility.yul\":14201:14620   */\n      swap2\n      swap1\n      pop\n      jump\t// out\n        /* \"#utility.yul\":14626:14806   */\n    tag_207:\n        /* \"#utility.yul\":14674:14751   */\n      0x4e487b7100000000000000000000000000000000000000000000000000000000\n        /* \"#utility.yul\":14671:14672   */\n      0x00\n        /* \"#utility.yul\":14664:14752   */\n      mstore\n        /* \"#utility.yul\":14771:14775   */\n      0x12\n        /* \"#utility.yul\":14768:14769   */\n      0x04\n        /* \"#utility.yul\":14761:14776   */\n      mstore\n        /* \"#utility.yul\":14795:14799   */\n      0x24\n        /* \"#utility.yul\":14792:14793   */\n      0x00\n        /* \"#utility.yul\":14785:14800   */\n      revert\n        /* \"#utility.yul\":14812:14988   */\n    tag_102:\n        /* \"#utility.yul\":14844:14845   */\n      0x00\n        /* \"#utility.yul\":14861:14881   */\n      tag_357\n        /* \"#utility.yul\":14879:14880   */\n      dup3\n        /* \"#utility.yul\":14861:14881   */\n      tag_178\n      jump\t// in\n    tag_357:\n        /* \"#utility.yul\":14856:14881   */\n      swap2\n      pop\n        /* \"#utility.yul\":14895:14915   */\n      tag_358\n        /* \"#utility.yul\":14913:14914   */\n      dup4\n        /* \"#utility.yul\":14895:14915   */\n      tag_178\n      jump\t// in\n    tag_358:\n        /* \"#utility.yul\":14890:14915   */\n      swap3\n      pop\n        /* \"#utility.yul\":14934:14935   */\n      dup3\n        /* \"#utility.yul\":14924:14959   */\n      tag_359\n      jumpi\n        /* \"#utility.yul\":14939:14957   */\n      tag_360\n      tag_207\n      jump\t// in\n    tag_360:\n        /* \"#utility.yul\":14924:14959   */\n    tag_359:\n        /* \"#utility.yul\":14980:14981   */\n      dup3\n        /* \"#utility.yul\":14977:14978   */\n      dup3\n        /* \"#utility.yul\":14973:14982   */\n      mod\n        /* \"#utility.yul\":14968:14982   */\n      swap1\n      pop\n        /* \"#utility.yul\":14812:14988   */\n      swap3\n      swap2\n      pop\n      pop\n      jump\t// out\n        /* \"#utility.yul\":14994:15188   */\n    tag_104:\n        /* \"#utility.yul\":15034:15038   */\n      0x00\n        /* \"#utility.yul\":15054:15074   */\n      tag_362\n        /* \"#utility.yul\":15072:15073   */\n      dup3\n        /* \"#utility.yul\":15054:15074   */\n      tag_178\n      jump\t// in\n    tag_362:\n        /* \"#utility.yul\":15049:15074   */\n      swap2\n      pop\n        /* \"#utility.yul\":15088:15108   */\n      tag_363\n        /* \"#utility.yul\":15106:15107   */\n      dup4\n        /* \"#utility.yul\":15088:15108   */\n      tag_178\n      jump\t// in\n    tag_363:\n        /* \"#utility.yul\":15083:15108   */\n      swap3\n      pop\n        /* \"#utility.yul\":15132:15133   */\n      dup3\n        /* \"#utility.yul\":15129:15130   */\n      dup3\n        /* \"#utility.yul\":15125:15134   */\n      sub\n        /* \"#utility.yul\":15117:15134   */\n      swap1\n      pop\n        /* \"#utility.yul\":15156:15157   */\n      dup2\n        /* \"#utility.yul\":15150:15154   */\n      dup2\n        /* \"#utility.yul\":15147:15158   */\n      gt\n        /* \"#utility.yul\":15144:15181   */\n      iszero\n      tag_364\n      jumpi\n        /* \"#utility.yul\":15161:15179   */\n      tag_365\n      tag_202\n      jump\t// in\n    tag_365:\n        /* \"#utility.yul\":15144:15181   */\n    tag_364:\n        /* \"#utility.yul\":14994:15188   */\n      swap3\n      swap2\n      pop\n      pop\n      jump\t// out\n        /* \"#utility.yul\":15194:15604   */\n    tag_114:\n        /* \"#utility.yul\":15234:15241   */\n      0x00\n        /* \"#utility.yul\":15257:15277   */\n      tag_367\n        /* \"#utility.yul\":15275:15276   */\n      dup3\n        /* \"#utility.yul\":15257:15277   */\n      tag_178\n      jump\t// in\n    tag_367:\n        /* \"#utility.yul\":15252:15277   */\n      swap2\n      pop\n        /* \"#utility.yul\":15291:15311   */\n      tag_368\n        /* \"#utility.yul\":15309:15310   */\n      dup4\n        /* \"#utility.yul\":15291:15311   */\n      tag_178\n      jump\t// in\n    tag_368:\n        /* \"#utility.yul\":15286:15311   */\n      swap3\n      pop\n        /* \"#utility.yul\":15346:15347   */\n      dup3\n        /* \"#utility.yul\":15343:15344   */\n      dup3\n        /* \"#utility.yul\":15339:15348   */\n      mul\n        /* \"#utility.yul\":15368:15398   */\n      tag_369\n        /* \"#utility.yul\":15386:15397   */\n      dup2\n        /* \"#utility.yul\":15368:15398   */\n      tag_178\n      jump\t// in\n    tag_369:\n        /* \"#utility.yul\":15357:15398   */\n      swap2\n      pop\n        /* \"#utility.yul\":15547:15548   */\n      dup3\n        /* \"#utility.yul\":15538:15545   */\n      dup3\n        /* \"#utility.yul\":15534:15549   */\n      div\n        /* \"#utility.yul\":15531:15532   */\n      dup5\n        /* \"#utility.yul\":15528:15550   */\n      eq\n        /* \"#utility.yul\":15508:15509   */\n      dup4\n        /* \"#utility.yul\":15501:15510   */\n      iszero\n        /* \"#utility.yul\":15481:15564   */\n      or\n        /* \"#utility.yul\":15458:15597   */\n      tag_370\n      jumpi\n        /* \"#utility.yul\":15577:15595   */\n      tag_371\n      tag_202\n      jump\t// in\n    tag_371:\n        /* \"#utility.yul\":15458:15597   */\n    tag_370:\n        /* \"#utility.yul\":15242:15604   */\n      pop\n        /* \"#utility.yul\":15194:15604   */\n      swap3\n      swap2\n      pop\n      pop\n      jump\t// out\n        /* \"#utility.yul\":15610:15774   */\n    tag_208:\n        /* \"#utility.yul\":15750:15766   */\n      0x70616972696e67206661696c6564000000000000000000000000000000000000\n        /* \"#utility.yul\":15746:15747   */\n      0x00\n        /* \"#utility.yul\":15738:15744   */\n      dup3\n        /* \"#utility.yul\":15734:15748   */\n      add\n        /* \"#utility.yul\":15727:15767   */\n      mstore\n        /* \"#utility.yul\":15610:15774   */\n      pop\n      jump\t// out\n        /* \"#utility.yul\":15780:16146   */\n    tag_209:\n        /* \"#utility.yul\":15922:15925   */\n      0x00\n        /* \"#utility.yul\":15943:16010   */\n      tag_374\n        /* \"#utility.yul\":16007:16009   */\n      0x0e\n        /* \"#utility.yul\":16002:16005   */\n      dup4\n        /* \"#utility.yul\":15943:16010   */\n      tag_199\n      jump\t// in\n    tag_374:\n        /* \"#utility.yul\":15936:16010   */\n      swap2\n      pop\n        /* \"#utility.yul\":16019:16112   */\n      tag_375\n        /* \"#utility.yul\":16108:16111   */\n      dup3\n        /* \"#utility.yul\":16019:16112   */\n      tag_208\n      jump\t// in\n    tag_375:\n        /* \"#utility.yul\":16137:16139   */\n      0x20\n        /* \"#utility.yul\":16132:16135   */\n      dup3\n        /* \"#utility.yul\":16128:16140   */\n      add\n        /* \"#utility.yul\":16121:16140   */\n      swap1\n      pop\n        /* \"#utility.yul\":15780:16146   */\n      swap2\n      swap1\n      pop\n      jump\t// out\n        /* \"#utility.yul\":16152:16571   */\n    tag_159:\n        /* \"#utility.yul\":16318:16322   */\n      0x00\n        /* \"#utility.yul\":16356:16358   */\n      0x20\n        /* \"#utility.yul\":16345:16354   */\n      dup3\n        /* \"#utility.yul\":16341:16359   */\n      add\n        /* \"#utility.yul\":16333:16359   */\n      swap1\n      pop\n        /* \"#utility.yul\":16405:16414   */\n      dup2\n        /* \"#utility.yul\":16399:16403   */\n      dup2\n        /* \"#utility.yul\":16395:16415   */\n      sub\n        /* \"#utility.yul\":16391:16392   */\n      0x00\n        /* \"#utility.yul\":16380:16389   */\n      dup4\n        /* \"#utility.yul\":16376:16393   */\n      add\n        /* \"#utility.yul\":16369:16416   */\n      mstore\n        /* \"#utility.yul\":16433:16564   */\n      tag_377\n        /* \"#utility.yul\":16559:16563   */\n      dup2\n        /* \"#utility.yul\":16433:16564   */\n      tag_209\n      jump\t// in\n    tag_377:\n        /* \"#utility.yul\":16425:16564   */\n      swap1\n      pop\n        /* \"#utility.yul\":16152:16571   */\n      swap2\n      swap1\n      pop\n      jump\t// out\n\n    auxdata: 0xa264697066735822122035bc2d6acd8f3443941c97650aa3e3dba7afe223c8ee6b05f9b27d50ddb5a60a64736f6c634300081c0033\n}\n",
				"bytecode": {
					"linkReferences": {},
					"object": "6080604052348015600e575f5ffd5b506112d98061001c5f395ff3fe608060405234801561000f575f5ffd5b506004361061003f575f3560e01c8063aaae554514610043578063b77180401461005f578063c110f9f11461007d575b5f5ffd5b61005d60048036038101906100589190610f0f565b61009b565b005b610067610357565b6040516100749190610f7c565b60405180910390f35b61008561036b565b6040516100929190610f7c565b60405180910390f35b6100a3610964565b6040518060400160405280855f600881106100c1576100c0610f95565b5b60200201518152602001856001600881106100df576100de610f95565b5b6020020151815250815f0181905250604051806040016040528060405180604001604052808760026008811061011857610117610f95565b5b602002015181526020018760036008811061013657610135610f95565b5b6020020151815250815260200160405180604001604052808760046008811061016257610161610f95565b5b60200201518152602001876005600881106101805761017f610f95565b5b602002015181525081525081602001819052506040518060400160405280856006600881106101b2576101b1610f95565b5b60200201518152602001856007600881106101d0576101cf610f95565b5b602002015181525081604001819052505f60405180604001604052805f81526020015f815250905061021d8184608001515f600d811061021357610212610f95565b5b602002015161037c565b90505f5f90505b600c811015610306577f30644e72e131a029b85045b68181585d2833e84879b9709143e1f593f00000018582600c811061026157610260610f95565b5b6020020151106102a6576040517f08c379a000000000000000000000000000000000000000000000000000000000815260040161029d9061101c565b60405180910390fd5b6102f7826102f286608001516001856102bf9190611067565b600d81106102d0576102cf610f95565b5b60200201518885600c81106102e8576102e7610f95565b5b6020020151610475565b61037c565b91508080600101915050610224565b50610339610316835f0151610549565b8360200151855f0151866020015185886040015188604001518a60600151610601565b5f5f6101000a81548160ff0219169083151502179055505050505050565b5f5f5f9054906101000a900460ff16905090565b5f5f9054906101000a900460ff1681565b610384610997565b61038c6109af565b835f0151815f600481106103a3576103a2610f95565b5b6020020181815250508360200151816001600481106103c5576103c4610f95565b5b602002018181525050825f0151816002600481106103e6576103e5610f95565b5b60200201818152505082602001518160036004811061040857610407610f95565b5b6020020181815250505f60608360c08460066107d05a03fa9050805f810361042c57fe5b508061046d576040517f08c379a0000000000000000000000000000000000000000000000000000000008152600401610464906110e4565b60405180910390fd5b505092915050565b61047d610997565b6104856109d1565b835f0151815f6003811061049c5761049b610f95565b5b6020020181815250508360200151816001600381106104be576104bd610f95565b5b60200201818152505082816002600381106104dc576104db610f95565b5b6020020181815250505f60608360808460076107d05a03fa9050805f810361050057fe5b5080610541576040517f08c379a00000000000000000000000000000000000000000000000000000000081526004016105389061114c565b60405180910390fd5b505092915050565b610551610997565b5f825f015114801561056657505f8260200151145b156105875760405180604001604052805f81526020015f81525090506105fc565b6040518060400160405280835f015181526020017f30644e72e131a029b85045b68181585d97816a916871ca8d3c208c16d87cfd4784602001516105cb9190611197565b7f30644e72e131a029b85045b68181585d97816a916871ca8d3c208c16d87cfd476105f691906111c7565b81525090505b919050565b5f5f60405180608001604052808b81526020018981526020018781526020018581525090505f60405180608001604052808b81526020018981526020018781526020018581525090505f601890505f8167ffffffffffffffff81111561066a57610669610a7e565b5b6040519080825280602002602001820160405280156106985781602001602082028036833780820191505090505b5090505f5f90505b60048110156108cb575f6006826106b791906111fa565b90508582600481106106cc576106cb610f95565b5b60200201515f0151835f836106e19190611067565b815181106106f2576106f1610f95565b5b60200260200101818152505085826004811061071157610710610f95565b5b602002015160200151836001836107289190611067565b8151811061073957610738610f95565b5b60200260200101818152505084826004811061075857610757610f95565b5b60200201515f01515f6002811061077257610771610f95565b5b6020020151836002836107859190611067565b8151811061079657610795610f95565b5b6020026020010181815250508482600481106107b5576107b4610f95565b5b60200201515f01516001600281106107d0576107cf610f95565b5b6020020151836003836107e39190611067565b815181106107f4576107f3610f95565b5b60200260200101818152505084826004811061081357610812610f95565b5b6020020151602001515f6002811061082e5761082d610f95565b5b6020020151836004836108419190611067565b8151811061085257610851610f95565b5b60200260200101818152505084826004811061087157610870610f95565b5b60200201516020015160016002811061088d5761088c610f95565b5b6020020151836005836108a09190611067565b815181106108b1576108b0610f95565b5b6020026020010181815250505080806001019150506106a0565b506108d46109f3565b5f602082602086026020860160086107d05a03fa9050805f81036108f457fe5b5080610935576040517f08c379a000000000000000000000000000000000000000000000000000000000815260040161092c90611285565b60405180910390fd5b5f825f6001811061094957610948610f95565b5b60200201511415965050505050505098975050505050505050565b6040518060600160405280610977610997565b8152602001610984610a15565b8152602001610991610997565b81525090565b60405180604001604052805f81526020015f81525090565b6040518060800160405280600490602082028036833780820191505090505090565b6040518060600160405280600390602082028036833780820191505090505090565b6040518060200160405280600190602082028036833780820191505090505090565b6040518060400160405280610a28610a3b565b8152602001610a35610a3b565b81525090565b6040518060400160405280600290602082028036833780820191505090505090565b5f604051905090565b5f5ffd5b5f5ffd5b5f601f19601f8301169050919050565b7f4e487b71000000000000000000000000000000000000000000000000000000005f52604160045260245ffd5b610ab482610a6e565b810181811067ffffffffffffffff82111715610ad357610ad2610a7e565b5b80604052505050565b5f610ae5610a5d565b9050610af18282610aab565b919050565b5f67ffffffffffffffff821115610b1057610b0f610a7e565b5b602082029050919050565b5f5ffd5b5f819050919050565b610b3181610b1f565b8114610b3b575f5ffd5b50565b5f81359050610b4c81610b28565b92915050565b5f610b64610b5f84610af6565b610adc565b90508060208402830185811115610b7e57610b7d610b1b565b5b835b81811015610ba75780610b938882610b3e565b845260208401935050602081019050610b80565b5050509392505050565b5f82601f830112610bc557610bc4610a6a565b5b6008610bd2848285610b52565b91505092915050565b5f67ffffffffffffffff821115610bf557610bf4610a7e565b5b602082029050919050565b5f610c12610c0d84610bdb565b610adc565b90508060208402830185811115610c2c57610c2b610b1b565b5b835b81811015610c555780610c418882610b3e565b845260208401935050602081019050610c2e565b5050509392505050565b5f82601f830112610c7357610c72610a6a565b5b600c610c80848285610c00565b91505092915050565b5f5ffd5b5f60408284031215610ca257610ca1610c89565b5b610cac6040610adc565b90505f610cbb84828501610b3e565b5f830152506020610cce84828501610b3e565b60208301525092915050565b5f67ffffffffffffffff821115610cf457610cf3610a7e565b5b602082029050919050565b5f610d11610d0c84610cda565b610adc565b90508060208402830185811115610d2b57610d2a610b1b565b5b835b81811015610d545780610d408882610b3e565b845260208401935050602081019050610d2d565b5050509392505050565b5f82601f830112610d7257610d71610a6a565b5b6002610d7f848285610cff565b91505092915050565b5f60808284031215610d9d57610d9c610c89565b5b610da76040610adc565b90505f610db684828501610d5e565b5f830152506040610dc984828501610d5e565b60208301525092915050565b5f67ffffffffffffffff821115610def57610dee610a7e565b5b602082029050919050565b5f610e0c610e0784610dd5565b610adc565b90508060408402830185811115610e2657610e25610b1b565b5b835b81811015610e4f5780610e3b8882610c8d565b845260208401935050604081019050610e28565b5050509392505050565b5f82601f830112610e6d57610e6c610a6a565b5b600d610e7a848285610dfa565b91505092915050565b5f6105008284031215610e9957610e98610c89565b5b610ea360a0610adc565b90505f610eb284828501610c8d565b5f830152506040610ec584828501610d88565b60208301525060c0610ed984828501610d88565b604083015250610140610eee84828501610d88565b6060830152506101c0610f0384828501610e59565b60808301525092915050565b5f5f5f6107808486031215610f2757610f26610a66565b5b5f610f3486828701610bb1565b935050610100610f4686828701610c5f565b925050610280610f5886828701610e83565b9150509250925092565b5f8115159050919050565b610f7681610f62565b82525050565b5f602082019050610f8f5f830184610f6d565b92915050565b7f4e487b71000000000000000000000000000000000000000000000000000000005f52603260045260245ffd5b5f82825260208201905092915050565b7f76657269666965722d6774652d736e61726b2d7363616c61722d6669656c64005f82015250565b5f611006601f83610fc2565b915061101182610fd2565b602082019050919050565b5f6020820190508181035f83015261103381610ffa565b9050919050565b7f4e487b71000000000000000000000000000000000000000000000000000000005f52601160045260245ffd5b5f61107182610b1f565b915061107c83610b1f565b92508282019050808211156110945761109361103a565b5b92915050565b7f6164646974696f6e206661696c656400000000000000000000000000000000005f82015250565b5f6110ce600f83610fc2565b91506110d98261109a565b602082019050919050565b5f6020820190508181035f8301526110fb816110c2565b9050919050565b7f7363616c6172206d756c206661696c65640000000000000000000000000000005f82015250565b5f611136601183610fc2565b915061114182611102565b602082019050919050565b5f6020820190508181035f8301526111638161112a565b9050919050565b7f4e487b71000000000000000000000000000000000000000000000000000000005f52601260045260245ffd5b5f6111a182610b1f565b91506111ac83610b1f565b9250826111bc576111bb61116a565b5b828206905092915050565b5f6111d182610b1f565b91506111dc83610b1f565b92508282039050818111156111f4576111f361103a565b5b92915050565b5f61120482610b1f565b915061120f83610b1f565b925082820261121d81610b1f565b915082820484148315176112345761123361103a565b5b5092915050565b7f70616972696e67206661696c65640000000000000000000000000000000000005f82015250565b5f61126f600e83610fc2565b915061127a8261123b565b602082019050919050565b5f6020820190508181035f83015261129c81611263565b905091905056fea264697066735822122035bc2d6acd8f3443941c97650aa3e3dba7afe223c8ee6b05f9b27d50ddb5a60a64736f6c634300081c0033",
					"opcodes": "PUSH1 0x80 PUSH1 0x40 MSTORE CALLVALUE DUP1 ISZERO PUSH1 0xE JUMPI PUSH0 PUSH0 REVERT JUMPDEST POP PUSH2 0x12D9 DUP1 PUSH2 0x1C PUSH0 CODECOPY PUSH0 RETURN INVALID PUSH1 0x80 PUSH1 0x40 MSTORE CALLVALUE DUP1 ISZERO PUSH2 0xF JUMPI PUSH0 PUSH0 REVERT JUMPDEST POP PUSH1 0x4 CALLDATASIZE LT PUSH2 0x3F JUMPI PUSH0 CALLDATALOAD PUSH1 0xE0 SHR DUP1 PUSH4 0xAAAE5545 EQ PUSH2 0x43 JUMPI DUP1 PUSH4 0xB7718040 EQ PUSH2 0x5F JUMPI DUP1 PUSH4 0xC110F9F1 EQ PUSH2 0x7D JUMPI JUMPDEST PUSH0 PUSH0 REVERT JUMPDEST PUSH2 0x5D PUSH1 0x4 DUP1 CALLDATASIZE SUB DUP2 ADD SWAP1 PUSH2 0x58 SWAP2 SWAP1 PUSH2 0xF0F JUMP JUMPDEST PUSH2 0x9B JUMP JUMPDEST STOP JUMPDEST PUSH2 0x67 PUSH2 0x357 JUMP JUMPDEST PUSH1 0x40 MLOAD PUSH2 0x74 SWAP2 SWAP1 PUSH2 0xF7C JUMP JUMPDEST PUSH1 0x40 MLOAD DUP1 SWAP2 SUB SWAP1 RETURN JUMPDEST PUSH2 0x85 PUSH2 0x36B JUMP JUMPDEST PUSH1 0x40 MLOAD PUSH2 0x92 SWAP2 SWAP1 PUSH2 0xF7C JUMP JUMPDEST PUSH1 0x40 MLOAD DUP1 SWAP2 SUB SWAP1 RETURN JUMPDEST PUSH2 0xA3 PUSH2 0x964 JUMP JUMPDEST PUSH1 0x40 MLOAD DUP1 PUSH1 0x40 ADD PUSH1 0x40 MSTORE DUP1 DUP6 PUSH0 PUSH1 0x8 DUP2 LT PUSH2 0xC1 JUMPI PUSH2 0xC0 PUSH2 0xF95 JUMP JUMPDEST JUMPDEST PUSH1 0x20 MUL ADD MLOAD DUP2 MSTORE PUSH1 0x20 ADD DUP6 PUSH1 0x1 PUSH1 0x8 DUP2 LT PUSH2 0xDF JUMPI PUSH2 0xDE PUSH2 0xF95 JUMP JUMPDEST JUMPDEST PUSH1 0x20 MUL ADD MLOAD DUP2 MSTORE POP DUP2 PUSH0 ADD DUP2 SWAP1 MSTORE POP PUSH1 0x40 MLOAD DUP1 PUSH1 0x40 ADD PUSH1 0x40 MSTORE DUP1 PUSH1 0x40 MLOAD DUP1 PUSH1 0x40 ADD PUSH1 0x40 MSTORE DUP1 DUP8 PUSH1 0x2 PUSH1 0x8 DUP2 LT PUSH2 0x118 JUMPI PUSH2 0x117 PUSH2 0xF95 JUMP JUMPDEST JUMPDEST PUSH1 0x20 MUL ADD MLOAD DUP2 MSTORE PUSH1 0x20 ADD DUP8 PUSH1 0x3 PUSH1 0x8 DUP2 LT PUSH2 0x136 JUMPI PUSH2 0x135 PUSH2 0xF95 JUMP JUMPDEST JUMPDEST PUSH1 0x20 MUL ADD MLOAD DUP2 MSTORE POP DUP2 MSTORE PUSH1 0x20 ADD PUSH1 0x40 MLOAD DUP1 PUSH1 0x40 ADD PUSH1 0x40 MSTORE DUP1 DUP8 PUSH1 0x4 PUSH1 0x8 DUP2 LT PUSH2 0x162 JUMPI PUSH2 0x161 PUSH2 0xF95 JUMP JUMPDEST JUMPDEST PUSH1 0x20 MUL ADD MLOAD DUP2 MSTORE PUSH1 0x20 ADD DUP8 PUSH1 0x5 PUSH1 0x8 DUP2 LT PUSH2 0x180 JUMPI PUSH2 0x17F PUSH2 0xF95 JUMP JUMPDEST JUMPDEST PUSH1 0x20 MUL ADD MLOAD DUP2 MSTORE POP DUP2 MSTORE POP DUP2 PUSH1 0x20 ADD DUP2 SWAP1 MSTORE POP PUSH1 0x40 MLOAD DUP1 PUSH1 0x40 ADD PUSH1 0x40 MSTORE DUP1 DUP6 PUSH1 0x6 PUSH1 0x8 DUP2 LT PUSH2 0x1B2 JUMPI PUSH2 0x1B1 PUSH2 0xF95 JUMP JUMPDEST JUMPDEST PUSH1 0x20 MUL ADD MLOAD DUP2 MSTORE PUSH1 0x20 ADD DUP6 PUSH1 0x7 PUSH1 0x8 DUP2 LT PUSH2 0x1D0 JUMPI PUSH2 0x1CF PUSH2 0xF95 JUMP JUMPDEST JUMPDEST PUSH1 0x20 MUL ADD MLOAD DUP2 MSTORE POP DUP2 PUSH1 0x40 ADD DUP2 SWAP1 MSTORE POP PUSH0 PUSH1 0x40 MLOAD DUP1 PUSH1 0x40 ADD PUSH1 0x40 MSTORE DUP1 PUSH0 DUP2 MSTORE PUSH1 0x20 ADD PUSH0 DUP2 MSTORE POP SWAP1 POP PUSH2 0x21D DUP2 DUP5 PUSH1 0x80 ADD MLOAD PUSH0 PUSH1 0xD DUP2 LT PUSH2 0x213 JUMPI PUSH2 0x212 PUSH2 0xF95 JUMP JUMPDEST JUMPDEST PUSH1 0x20 MUL ADD MLOAD PUSH2 0x37C JUMP JUMPDEST SWAP1 POP PUSH0 PUSH0 SWAP1 POP JUMPDEST PUSH1 0xC DUP2 LT ISZERO PUSH2 0x306 JUMPI PUSH32 0x30644E72E131A029B85045B68181585D2833E84879B9709143E1F593F0000001 DUP6 DUP3 PUSH1 0xC DUP2 LT PUSH2 0x261 JUMPI PUSH2 0x260 PUSH2 0xF95 JUMP JUMPDEST JUMPDEST PUSH1 0x20 MUL ADD MLOAD LT PUSH2 0x2A6 JUMPI PUSH1 0x40 MLOAD PUSH32 0x8C379A000000000000000000000000000000000000000000000000000000000 DUP2 MSTORE PUSH1 0x4 ADD PUSH2 0x29D SWAP1 PUSH2 0x101C JUMP JUMPDEST PUSH1 0x40 MLOAD DUP1 SWAP2 SUB SWAP1 REVERT JUMPDEST PUSH2 0x2F7 DUP3 PUSH2 0x2F2 DUP7 PUSH1 0x80 ADD MLOAD PUSH1 0x1 DUP6 PUSH2 0x2BF SWAP2 SWAP1 PUSH2 0x1067 JUMP JUMPDEST PUSH1 0xD DUP2 LT PUSH2 0x2D0 JUMPI PUSH2 0x2CF PUSH2 0xF95 JUMP JUMPDEST JUMPDEST PUSH1 0x20 MUL ADD MLOAD DUP9 DUP6 PUSH1 0xC DUP2 LT PUSH2 0x2E8 JUMPI PUSH2 0x2E7 PUSH2 0xF95 JUMP JUMPDEST JUMPDEST PUSH1 0x20 MUL ADD MLOAD PUSH2 0x475 JUMP JUMPDEST PUSH2 0x37C JUMP JUMPDEST SWAP2 POP DUP1 DUP1 PUSH1 0x1 ADD SWAP2 POP POP PUSH2 0x224 JUMP JUMPDEST POP PUSH2 0x339 PUSH2 0x316 DUP4 PUSH0 ADD MLOAD PUSH2 0x549 JUMP JUMPDEST DUP4 PUSH1 0x20 ADD MLOAD DUP6 PUSH0 ADD MLOAD DUP7 PUSH1 0x20 ADD MLOAD DUP6 DUP9 PUSH1 0x40 ADD MLOAD DUP9 PUSH1 0x40 ADD MLOAD DUP11 PUSH1 0x60 ADD MLOAD PUSH2 0x601 JUMP JUMPDEST PUSH0 PUSH0 PUSH2 0x100 EXP DUP2 SLOAD DUP2 PUSH1 0xFF MUL NOT AND SWAP1 DUP4 ISZERO ISZERO MUL OR SWAP1 SSTORE POP POP POP POP POP POP JUMP JUMPDEST PUSH0 PUSH0 PUSH0 SWAP1 SLOAD SWAP1 PUSH2 0x100 EXP SWAP1 DIV PUSH1 0xFF AND SWAP1 POP SWAP1 JUMP JUMPDEST PUSH0 PUSH0 SWAP1 SLOAD SWAP1 PUSH2 0x100 EXP SWAP1 DIV PUSH1 0xFF AND DUP2 JUMP JUMPDEST PUSH2 0x384 PUSH2 0x997 JUMP JUMPDEST PUSH2 0x38C PUSH2 0x9AF JUMP JUMPDEST DUP4 PUSH0 ADD MLOAD DUP2 PUSH0 PUSH1 0x4 DUP2 LT PUSH2 0x3A3 JUMPI PUSH2 0x3A2 PUSH2 0xF95 JUMP JUMPDEST JUMPDEST PUSH1 0x20 MUL ADD DUP2 DUP2 MSTORE POP POP DUP4 PUSH1 0x20 ADD MLOAD DUP2 PUSH1 0x1 PUSH1 0x4 DUP2 LT PUSH2 0x3C5 JUMPI PUSH2 0x3C4 PUSH2 0xF95 JUMP JUMPDEST JUMPDEST PUSH1 0x20 MUL ADD DUP2 DUP2 MSTORE POP POP DUP3 PUSH0 ADD MLOAD DUP2 PUSH1 0x2 PUSH1 0x4 DUP2 LT PUSH2 0x3E6 JUMPI PUSH2 0x3E5 PUSH2 0xF95 JUMP JUMPDEST JUMPDEST PUSH1 0x20 MUL ADD DUP2 DUP2 MSTORE POP POP DUP3 PUSH1 0x20 ADD MLOAD DUP2 PUSH1 0x3 PUSH1 0x4 DUP2 LT PUSH2 0x408 JUMPI PUSH2 0x407 PUSH2 0xF95 JUMP JUMPDEST JUMPDEST PUSH1 0x20 MUL ADD DUP2 DUP2 MSTORE POP POP PUSH0 PUSH1 0x60 DUP4 PUSH1 0xC0 DUP5 PUSH1 0x6 PUSH2 0x7D0 GAS SUB STATICCALL SWAP1 POP DUP1 PUSH0 DUP2 SUB PUSH2 0x42C JUMPI INVALID JUMPDEST POP DUP1 PUSH2 0x46D JUMPI PUSH1 0x40 MLOAD PUSH32 0x8C379A000000000000000000000000000000000000000000000000000000000 DUP2 MSTORE PUSH1 0x4 ADD PUSH2 0x464 SWAP1 PUSH2 0x10E4 JUMP JUMPDEST PUSH1 0x40 MLOAD DUP1 SWAP2 SUB SWAP1 REVERT JUMPDEST POP POP SWAP3 SWAP2 POP POP JUMP JUMPDEST PUSH2 0x47D PUSH2 0x997 JUMP JUMPDEST PUSH2 0x485 PUSH2 0x9D1 JUMP JUMPDEST DUP4 PUSH0 ADD MLOAD DUP2 PUSH0 PUSH1 0x3 DUP2 LT PUSH2 0x49C JUMPI PUSH2 0x49B PUSH2 0xF95 JUMP JUMPDEST JUMPDEST PUSH1 0x20 MUL ADD DUP2 DUP2 MSTORE POP POP DUP4 PUSH1 0x20 ADD MLOAD DUP2 PUSH1 0x1 PUSH1 0x3 DUP2 LT PUSH2 0x4BE JUMPI PUSH2 0x4BD PUSH2 0xF95 JUMP JUMPDEST JUMPDEST PUSH1 0x20 MUL ADD DUP2 DUP2 MSTORE POP POP DUP3 DUP2 PUSH1 0x2 PUSH1 0x3 DUP2 LT PUSH2 0x4DC JUMPI PUSH2 0x4DB PUSH2 0xF95 JUMP JUMPDEST JUMPDEST PUSH1 0x20 MUL ADD DUP2 DUP2 MSTORE POP POP PUSH0 PUSH1 0x60 DUP4 PUSH1 0x80 DUP5 PUSH1 0x7 PUSH2 0x7D0 GAS SUB STATICCALL SWAP1 POP DUP1 PUSH0 DUP2 SUB PUSH2 0x500 JUMPI INVALID JUMPDEST POP DUP1 PUSH2 0x541 JUMPI PUSH1 0x40 MLOAD PUSH32 0x8C379A000000000000000000000000000000000000000000000000000000000 DUP2 MSTORE PUSH1 0x4 ADD PUSH2 0x538 SWAP1 PUSH2 0x114C JUMP JUMPDEST PUSH1 0x40 MLOAD DUP1 SWAP2 SUB SWAP1 REVERT JUMPDEST POP POP SWAP3 SWAP2 POP POP JUMP JUMPDEST PUSH2 0x551 PUSH2 0x997 JUMP JUMPDEST PUSH0 DUP3 PUSH0 ADD MLOAD EQ DUP1 ISZERO PUSH2 0x566 JUMPI POP PUSH0 DUP3 PUSH1 0x20 ADD MLOAD EQ JUMPDEST ISZERO PUSH2 0x587 JUMPI PUSH1 0x40 MLOAD DUP1 PUSH1 0x40 ADD PUSH1 0x40 MSTORE DUP1 PUSH0 DUP2 MSTORE PUSH1 0x20 ADD PUSH0 DUP2 MSTORE POP SWAP1 POP PUSH2 0x5FC JUMP JUMPDEST PUSH1 0x40 MLOAD DUP1 PUSH1 0x40 ADD PUSH1 0x40 MSTORE DUP1 DUP4 PUSH0 ADD MLOAD DUP2 MSTORE PUSH1 0x20 ADD PUSH32 0x30644E72E131A029B85045B68181585D97816A916871CA8D3C208C16D87CFD47 DUP5 PUSH1 0x20 ADD MLOAD PUSH2 0x5CB SWAP2 SWAP1 PUSH2 0x1197 JUMP JUMPDEST PUSH32 0x30644E72E131A029B85045B68181585D97816A916871CA8D3C208C16D87CFD47 PUSH2 0x5F6 SWAP2 SWAP1 PUSH2 0x11C7 JUMP JUMPDEST DUP2 MSTORE POP SWAP1 POP JUMPDEST SWAP2 SWAP1 POP JUMP JUMPDEST PUSH0 PUSH0 PUSH1 0x40 MLOAD DUP1 PUSH1 0x80 ADD PUSH1 0x40 MSTORE DUP1 DUP12 DUP2 MSTORE PUSH1 0x20 ADD DUP10 DUP2 MSTORE PUSH1 0x20 ADD DUP8 DUP2 MSTORE PUSH1 0x20 ADD DUP6 DUP2 MSTORE POP SWAP1 POP PUSH0 PUSH1 0x40 MLOAD DUP1 PUSH1 0x80 ADD PUSH1 0x40 MSTORE DUP1 DUP12 DUP2 MSTORE PUSH1 0x20 ADD DUP10 DUP2 MSTORE PUSH1 0x20 ADD DUP8 DUP2 MSTORE PUSH1 0x20 ADD DUP6 DUP2 MSTORE POP SWAP1 POP PUSH0 PUSH1 0x18 SWAP1 POP PUSH0 DUP2 PUSH8 0xFFFFFFFFFFFFFFFF DUP2 GT ISZERO PUSH2 0x66A JUMPI PUSH2 0x669 PUSH2 0xA7E JUMP JUMPDEST JUMPDEST PUSH1 0x40 MLOAD SWAP1 DUP1 DUP3 MSTORE DUP1 PUSH1 0x20 MUL PUSH1 0x20 ADD DUP3 ADD PUSH1 0x40 MSTORE DUP1 ISZERO PUSH2 0x698 JUMPI DUP2 PUSH1 0x20 ADD PUSH1 0x20 DUP3 MUL DUP1 CALLDATASIZE DUP4 CALLDATACOPY DUP1 DUP3 ADD SWAP2 POP POP SWAP1 POP JUMPDEST POP SWAP1 POP PUSH0 PUSH0 SWAP1 POP JUMPDEST PUSH1 0x4 DUP2 LT ISZERO PUSH2 0x8CB JUMPI PUSH0 PUSH1 0x6 DUP3 PUSH2 0x6B7 SWAP2 SWAP1 PUSH2 0x11FA JUMP JUMPDEST SWAP1 POP DUP6 DUP3 PUSH1 0x4 DUP2 LT PUSH2 0x6CC JUMPI PUSH2 0x6CB PUSH2 0xF95 JUMP JUMPDEST JUMPDEST PUSH1 0x20 MUL ADD MLOAD PUSH0 ADD MLOAD DUP4 PUSH0 DUP4 PUSH2 0x6E1 SWAP2 SWAP1 PUSH2 0x1067 JUMP JUMPDEST DUP2 MLOAD DUP2 LT PUSH2 0x6F2 JUMPI PUSH2 0x6F1 PUSH2 0xF95 JUMP JUMPDEST JUMPDEST PUSH1 0x20 MUL PUSH1 0x20 ADD ADD DUP2 DUP2 MSTORE POP POP DUP6 DUP3 PUSH1 0x4 DUP2 LT PUSH2 0x711 JUMPI PUSH2 0x710 PUSH2 0xF95 JUMP JUMPDEST JUMPDEST PUSH1 0x20 MUL ADD MLOAD PUSH1 0x20 ADD MLOAD DUP4 PUSH1 0x1 DUP4 PUSH2 0x728 SWAP2 SWAP1 PUSH2 0x1067 JUMP JUMPDEST DUP2 MLOAD DUP2 LT PUSH2 0x739 JUMPI PUSH2 0x738 PUSH2 0xF95 JUMP JUMPDEST JUMPDEST PUSH1 0x20 MUL PUSH1 0x20 ADD ADD DUP2 DUP2 MSTORE POP POP DUP5 DUP3 PUSH1 0x4 DUP2 LT PUSH2 0x758 JUMPI PUSH2 0x757 PUSH2 0xF95 JUMP JUMPDEST JUMPDEST PUSH1 0x20 MUL ADD MLOAD PUSH0 ADD MLOAD PUSH0 PUSH1 0x2 DUP2 LT PUSH2 0x772 JUMPI PUSH2 0x771 PUSH2 0xF95 JUMP JUMPDEST JUMPDEST PUSH1 0x20 MUL ADD MLOAD DUP4 PUSH1 0x2 DUP4 PUSH2 0x785 SWAP2 SWAP1 PUSH2 0x1067 JUMP JUMPDEST DUP2 MLOAD DUP2 LT PUSH2 0x796 JUMPI PUSH2 0x795 PUSH2 0xF95 JUMP JUMPDEST JUMPDEST PUSH1 0x20 MUL PUSH1 0x20 ADD ADD DUP2 DUP2 MSTORE POP POP DUP5 DUP3 PUSH1 0x4 DUP2 LT PUSH2 0x7B5 JUMPI PUSH2 0x7B4 PUSH2 0xF95 JUMP JUMPDEST JUMPDEST PUSH1 0x20 MUL ADD MLOAD PUSH0 ADD MLOAD PUSH1 0x1 PUSH1 0x2 DUP2 LT PUSH2 0x7D0 JUMPI PUSH2 0x7CF PUSH2 0xF95 JUMP JUMPDEST JUMPDEST PUSH1 0x20 MUL ADD MLOAD DUP4 PUSH1 0x3 DUP4 PUSH2 0x7E3 SWAP2 SWAP1 PUSH2 0x1067 JUMP JUMPDEST DUP2 MLOAD DUP2 LT PUSH2 0x7F4 JUMPI PUSH2 0x7F3 PUSH2 0xF95 JUMP JUMPDEST JUMPDEST PUSH1 0x20 MUL PUSH1 0x20 ADD ADD DUP2 DUP2 MSTORE POP POP DUP5 DUP3 PUSH1 0x4 DUP2 LT PUSH2 0x813 JUMPI PUSH2 0x812 PUSH2 0xF95 JUMP JUMPDEST JUMPDEST PUSH1 0x20 MUL ADD MLOAD PUSH1 0x20 ADD MLOAD PUSH0 PUSH1 0x2 DUP2 LT PUSH2 0x82E JUMPI PUSH2 0x82D PUSH2 0xF95 JUMP JUMPDEST JUMPDEST PUSH1 0x20 MUL ADD MLOAD DUP4 PUSH1 0x4 DUP4 PUSH2 0x841 SWAP2 SWAP1 PUSH2 0x1067 JUMP JUMPDEST DUP2 MLOAD DUP2 LT PUSH2 0x852 JUMPI PUSH2 0x851 PUSH2 0xF95 JUMP JUMPDEST JUMPDEST PUSH1 0x20 MUL PUSH1 0x20 ADD ADD DUP2 DUP2 MSTORE POP POP DUP5 DUP3 PUSH1 0x4 DUP2 LT PUSH2 0x871 JUMPI PUSH2 0x870 PUSH2 0xF95 JUMP JUMPDEST JUMPDEST PUSH1 0x20 MUL ADD MLOAD PUSH1 0x20 ADD MLOAD PUSH1 0x1 PUSH1 0x2 DUP2 LT PUSH2 0x88D JUMPI PUSH2 0x88C PUSH2 0xF95 JUMP JUMPDEST JUMPDEST PUSH1 0x20 MUL ADD MLOAD DUP4 PUSH1 0x5 DUP4 PUSH2 0x8A0 SWAP2 SWAP1 PUSH2 0x1067 JUMP JUMPDEST DUP2 MLOAD DUP2 LT PUSH2 0x8B1 JUMPI PUSH2 0x8B0 PUSH2 0xF95 JUMP JUMPDEST JUMPDEST PUSH1 0x20 MUL PUSH1 0x20 ADD ADD DUP2 DUP2 MSTORE POP POP POP DUP1 DUP1 PUSH1 0x1 ADD SWAP2 POP POP PUSH2 0x6A0 JUMP JUMPDEST POP PUSH2 0x8D4 PUSH2 0x9F3 JUMP JUMPDEST PUSH0 PUSH1 0x20 DUP3 PUSH1 0x20 DUP7 MUL PUSH1 0x20 DUP7 ADD PUSH1 0x8 PUSH2 0x7D0 GAS SUB STATICCALL SWAP1 POP DUP1 PUSH0 DUP2 SUB PUSH2 0x8F4 JUMPI INVALID JUMPDEST POP DUP1 PUSH2 0x935 JUMPI PUSH1 0x40 MLOAD PUSH32 0x8C379A000000000000000000000000000000000000000000000000000000000 DUP2 MSTORE PUSH1 0x4 ADD PUSH2 0x92C SWAP1 PUSH2 0x1285 JUMP JUMPDEST PUSH1 0x40 MLOAD DUP1 SWAP2 SUB SWAP1 REVERT JUMPDEST PUSH0 DUP3 PUSH0 PUSH1 0x1 DUP2 LT PUSH2 0x949 JUMPI PUSH2 0x948 PUSH2 0xF95 JUMP JUMPDEST JUMPDEST PUSH1 0x20 MUL ADD MLOAD EQ ISZERO SWAP7 POP POP POP POP POP POP POP SWAP9 SWAP8 POP POP POP POP POP POP POP POP JUMP JUMPDEST PUSH1 0x40 MLOAD DUP1 PUSH1 0x60 ADD PUSH1 0x40 MSTORE DUP1 PUSH2 0x977 PUSH2 0x997 JUMP JUMPDEST DUP2 MSTORE PUSH1 0x20 ADD PUSH2 0x984 PUSH2 0xA15 JUMP JUMPDEST DUP2 MSTORE PUSH1 0x20 ADD PUSH2 0x991 PUSH2 0x997 JUMP JUMPDEST DUP2 MSTORE POP SWAP1 JUMP JUMPDEST PUSH1 0x40 MLOAD DUP1 PUSH1 0x40 ADD PUSH1 0x40 MSTORE DUP1 PUSH0 DUP2 MSTORE PUSH1 0x20 ADD PUSH0 DUP2 MSTORE POP SWAP1 JUMP JUMPDEST PUSH1 0x40 MLOAD DUP1 PUSH1 0x80 ADD PUSH1 0x40 MSTORE DUP1 PUSH1 0x4 SWAP1 PUSH1 0x20 DUP3 MUL DUP1 CALLDATASIZE DUP4 CALLDATACOPY DUP1 DUP3 ADD SWAP2 POP POP SWAP1 POP POP SWAP1 JUMP JUMPDEST PUSH1 0x40 MLOAD DUP1 PUSH1 0x60 ADD PUSH1 0x40 MSTORE DUP1 PUSH1 0x3 SWAP1 PUSH1 0x20 DUP3 MUL DUP1 CALLDATASIZE DUP4 CALLDATACOPY DUP1 DUP3 ADD SWAP2 POP POP SWAP1 POP POP SWAP1 JUMP JUMPDEST PUSH1 0x40 MLOAD DUP1 PUSH1 0x20 ADD PUSH1 0x40 MSTORE DUP1 PUSH1 0x1 SWAP1 PUSH1 0x20 DUP3 MUL DUP1 CALLDATASIZE DUP4 CALLDATACOPY DUP1 DUP3 ADD SWAP2 POP POP SWAP1 POP POP SWAP1 JUMP JUMPDEST PUSH1 0x40 MLOAD DUP1 PUSH1 0x40 ADD PUSH1 0x40 MSTORE DUP1 PUSH2 0xA28 PUSH2 0xA3B JUMP JUMPDEST DUP2 MSTORE PUSH1 0x20 ADD PUSH2 0xA35 PUSH2 0xA3B JUMP JUMPDEST DUP2 MSTORE POP SWAP1 JUMP JUMPDEST PUSH1 0x40 MLOAD DUP1 PUSH1 0x40 ADD PUSH1 0x40 MSTORE DUP1 PUSH1 0x2 SWAP1 PUSH1 0x20 DUP3 MUL DUP1 CALLDATASIZE DUP4 CALLDATACOPY DUP1 DUP3 ADD SWAP2 POP POP SWAP1 POP POP SWAP1 JUMP JUMPDEST PUSH0 PUSH1 0x40 MLOAD SWAP1 POP SWAP1 JUMP JUMPDEST PUSH0 PUSH0 REVERT JUMPDEST PUSH0 PUSH0 REVERT JUMPDEST PUSH0 PUSH1 0x1F NOT PUSH1 0x1F DUP4 ADD AND SWAP1 POP SWAP2 SWAP1 POP JUMP JUMPDEST PUSH32 0x4E487B7100000000000000000000000000000000000000000000000000000000 PUSH0 MSTORE PUSH1 0x41 PUSH1 0x4 MSTORE PUSH1 0x24 PUSH0 REVERT JUMPDEST PUSH2 0xAB4 DUP3 PUSH2 0xA6E JUMP JUMPDEST DUP2 ADD DUP2 DUP2 LT PUSH8 0xFFFFFFFFFFFFFFFF DUP3 GT OR ISZERO PUSH2 0xAD3 JUMPI PUSH2 0xAD2 PUSH2 0xA7E JUMP JUMPDEST JUMPDEST DUP1 PUSH1 0x40 MSTORE POP POP POP JUMP JUMPDEST PUSH0 PUSH2 0xAE5 PUSH2 0xA5D JUMP JUMPDEST SWAP1 POP PUSH2 0xAF1 DUP3 DUP3 PUSH2 0xAAB JUMP JUMPDEST SWAP2 SWAP1 POP JUMP JUMPDEST PUSH0 PUSH8 0xFFFFFFFFFFFFFFFF DUP3 GT ISZERO PUSH2 0xB10 JUMPI PUSH2 0xB0F PUSH2 0xA7E JUMP JUMPDEST JUMPDEST PUSH1 0x20 DUP3 MUL SWAP1 POP SWAP2 SWAP1 POP JUMP JUMPDEST PUSH0 PUSH0 REVERT JUMPDEST PUSH0 DUP2 SWAP1 POP SWAP2 SWAP1 POP JUMP JUMPDEST PUSH2 0xB31 DUP2 PUSH2 0xB1F JUMP JUMPDEST DUP2 EQ PUSH2 0xB3B JUMPI PUSH0 PUSH0 REVERT JUMPDEST POP JUMP JUMPDEST PUSH0 DUP2 CALLDATALOAD SWAP1 POP PUSH2 0xB4C DUP2 PUSH2 0xB28 JUMP JUMPDEST SWAP3 SWAP2 POP POP JUMP JUMPDEST PUSH0 PUSH2 0xB64 PUSH2 0xB5F DUP5 PUSH2 0xAF6 JUMP JUMPDEST PUSH2 0xADC JUMP JUMPDEST SWAP1 POP DUP1 PUSH1 0x20 DUP5 MUL DUP4 ADD DUP6 DUP2 GT ISZERO PUSH2 0xB7E JUMPI PUSH2 0xB7D PUSH2 0xB1B JUMP JUMPDEST JUMPDEST DUP4 JUMPDEST DUP2 DUP2 LT ISZERO PUSH2 0xBA7 JUMPI DUP1 PUSH2 0xB93 DUP9 DUP3 PUSH2 0xB3E JUMP JUMPDEST DUP5 MSTORE PUSH1 0x20 DUP5 ADD SWAP4 POP POP PUSH1 0x20 DUP2 ADD SWAP1 POP PUSH2 0xB80 JUMP JUMPDEST POP POP POP SWAP4 SWAP3 POP POP POP JUMP JUMPDEST PUSH0 DUP3 PUSH1 0x1F DUP4 ADD SLT PUSH2 0xBC5 JUMPI PUSH2 0xBC4 PUSH2 0xA6A JUMP JUMPDEST JUMPDEST PUSH1 0x8 PUSH2 0xBD2 DUP5 DUP3 DUP6 PUSH2 0xB52 JUMP JUMPDEST SWAP2 POP POP SWAP3 SWAP2 POP POP JUMP JUMPDEST PUSH0 PUSH8 0xFFFFFFFFFFFFFFFF DUP3 GT ISZERO PUSH2 0xBF5 JUMPI PUSH2 0xBF4 PUSH2 0xA7E JUMP JUMPDEST JUMPDEST PUSH1 0x20 DUP3 MUL SWAP1 POP SWAP2 SWAP1 POP JUMP JUMPDEST PUSH0 PUSH2 0xC12 PUSH2 0xC0D DUP5 PUSH2 0xBDB JUMP JUMPDEST PUSH2 0xADC JUMP JUMPDEST SWAP1 POP DUP1 PUSH1 0x20 DUP5 MUL DUP4 ADD DUP6 DUP2 GT ISZERO PUSH2 0xC2C JUMPI PUSH2 0xC2B PUSH2 0xB1B JUMP JUMPDEST JUMPDEST DUP4 JUMPDEST DUP2 DUP2 LT ISZERO PUSH2 0xC55 JUMPI DUP1 PUSH2 0xC41 DUP9 DUP3 PUSH2 0xB3E JUMP JUMPDEST DUP5 MSTORE PUSH1 0x20 DUP5 ADD SWAP4 POP POP PUSH1 0x20 DUP2 ADD SWAP1 POP PUSH2 0xC2E JUMP JUMPDEST POP POP POP SWAP4 SWAP3 POP POP POP JUMP JUMPDEST PUSH0 DUP3 PUSH1 0x1F DUP4 ADD SLT PUSH2 0xC73 JUMPI PUSH2 0xC72 PUSH2 0xA6A JUMP JUMPDEST JUMPDEST PUSH1 0xC PUSH2 0xC80 DUP5 DUP3 DUP6 PUSH2 0xC00 JUMP JUMPDEST SWAP2 POP POP SWAP3 SWAP2 POP POP JUMP JUMPDEST PUSH0 PUSH0 REVERT JUMPDEST PUSH0 PUSH1 0x40 DUP3 DUP5 SUB SLT ISZERO PUSH2 0xCA2 JUMPI PUSH2 0xCA1 PUSH2 0xC89 JUMP JUMPDEST JUMPDEST PUSH2 0xCAC PUSH1 0x40 PUSH2 0xADC JUMP JUMPDEST SWAP1 POP PUSH0 PUSH2 0xCBB DUP5 DUP3 DUP6 ADD PUSH2 0xB3E JUMP JUMPDEST PUSH0 DUP4 ADD MSTORE POP PUSH1 0x20 PUSH2 0xCCE DUP5 DUP3 DUP6 ADD PUSH2 0xB3E JUMP JUMPDEST PUSH1 0x20 DUP4 ADD MSTORE POP SWAP3 SWAP2 POP POP JUMP JUMPDEST PUSH0 PUSH8 0xFFFFFFFFFFFFFFFF DUP3 GT ISZERO PUSH2 0xCF4 JUMPI PUSH2 0xCF3 PUSH2 0xA7E JUMP JUMPDEST JUMPDEST PUSH1 0x20 DUP3 MUL SWAP1 POP SWAP2 SWAP1 POP JUMP JUMPDEST PUSH0 PUSH2 0xD11 PUSH2 0xD0C DUP5 PUSH2 0xCDA JUMP JUMPDEST PUSH2 0xADC JUMP JUMPDEST SWAP1 POP DUP1 PUSH1 0x20 DUP5 MUL DUP4 ADD DUP6 DUP2 GT ISZERO PUSH2 0xD2B JUMPI PUSH2 0xD2A PUSH2 0xB1B JUMP JUMPDEST JUMPDEST DUP4 JUMPDEST DUP2 DUP2 LT ISZERO PUSH2 0xD54 JUMPI DUP1 PUSH2 0xD40 DUP9 DUP3 PUSH2 0xB3E JUMP JUMPDEST DUP5 MSTORE PUSH1 0x20 DUP5 ADD SWAP4 POP POP PUSH1 0x20 DUP2 ADD SWAP1 POP PUSH2 0xD2D JUMP JUMPDEST POP POP POP SWAP4 SWAP3 POP POP POP JUMP JUMPDEST PUSH0 DUP3 PUSH1 0x1F DUP4 ADD SLT PUSH2 0xD72 JUMPI PUSH2 0xD71 PUSH2 0xA6A JUMP JUMPDEST JUMPDEST PUSH1 0x2 PUSH2 0xD7F DUP5 DUP3 DUP6 PUSH2 0xCFF JUMP JUMPDEST SWAP2 POP POP SWAP3 SWAP2 POP POP JUMP JUMPDEST PUSH0 PUSH1 0x80 DUP3 DUP5 SUB SLT ISZERO PUSH2 0xD9D JUMPI PUSH2 0xD9C PUSH2 0xC89 JUMP JUMPDEST JUMPDEST PUSH2 0xDA7 PUSH1 0x40 PUSH2 0xADC JUMP JUMPDEST SWAP1 POP PUSH0 PUSH2 0xDB6 DUP5 DUP3 DUP6 ADD PUSH2 0xD5E JUMP JUMPDEST PUSH0 DUP4 ADD MSTORE POP PUSH1 0x40 PUSH2 0xDC9 DUP5 DUP3 DUP6 ADD PUSH2 0xD5E JUMP JUMPDEST PUSH1 0x20 DUP4 ADD MSTORE POP SWAP3 SWAP2 POP POP JUMP JUMPDEST PUSH0 PUSH8 0xFFFFFFFFFFFFFFFF DUP3 GT ISZERO PUSH2 0xDEF JUMPI PUSH2 0xDEE PUSH2 0xA7E JUMP JUMPDEST JUMPDEST PUSH1 0x20 DUP3 MUL SWAP1 POP SWAP2 SWAP1 POP JUMP JUMPDEST PUSH0 PUSH2 0xE0C PUSH2 0xE07 DUP5 PUSH2 0xDD5 JUMP JUMPDEST PUSH2 0xADC JUMP JUMPDEST SWAP1 POP DUP1 PUSH1 0x40 DUP5 MUL DUP4 ADD DUP6 DUP2 GT ISZERO PUSH2 0xE26 JUMPI PUSH2 0xE25 PUSH2 0xB1B JUMP JUMPDEST JUMPDEST DUP4 JUMPDEST DUP2 DUP2 LT ISZERO PUSH2 0xE4F JUMPI DUP1 PUSH2 0xE3B DUP9 DUP3 PUSH2 0xC8D JUMP JUMPDEST DUP5 MSTORE PUSH1 0x20 DUP5 ADD SWAP4 POP POP PUSH1 0x40 DUP2 ADD SWAP1 POP PUSH2 0xE28 JUMP JUMPDEST POP POP POP SWAP4 SWAP3 POP POP POP JUMP JUMPDEST PUSH0 DUP3 PUSH1 0x1F DUP4 ADD SLT PUSH2 0xE6D JUMPI PUSH2 0xE6C PUSH2 0xA6A JUMP JUMPDEST JUMPDEST PUSH1 0xD PUSH2 0xE7A DUP5 DUP3 DUP6 PUSH2 0xDFA JUMP JUMPDEST SWAP2 POP POP SWAP3 SWAP2 POP POP JUMP JUMPDEST PUSH0 PUSH2 0x500 DUP3 DUP5 SUB SLT ISZERO PUSH2 0xE99 JUMPI PUSH2 0xE98 PUSH2 0xC89 JUMP JUMPDEST JUMPDEST PUSH2 0xEA3 PUSH1 0xA0 PUSH2 0xADC JUMP JUMPDEST SWAP1 POP PUSH0 PUSH2 0xEB2 DUP5 DUP3 DUP6 ADD PUSH2 0xC8D JUMP JUMPDEST PUSH0 DUP4 ADD MSTORE POP PUSH1 0x40 PUSH2 0xEC5 DUP5 DUP3 DUP6 ADD PUSH2 0xD88 JUMP JUMPDEST PUSH1 0x20 DUP4 ADD MSTORE POP PUSH1 0xC0 PUSH2 0xED9 DUP5 DUP3 DUP6 ADD PUSH2 0xD88 JUMP JUMPDEST PUSH1 0x40 DUP4 ADD MSTORE POP PUSH2 0x140 PUSH2 0xEEE DUP5 DUP3 DUP6 ADD PUSH2 0xD88 JUMP JUMPDEST PUSH1 0x60 DUP4 ADD MSTORE POP PUSH2 0x1C0 PUSH2 0xF03 DUP5 DUP3 DUP6 ADD PUSH2 0xE59 JUMP JUMPDEST PUSH1 0x80 DUP4 ADD MSTORE POP SWAP3 SWAP2 POP POP JUMP JUMPDEST PUSH0 PUSH0 PUSH0 PUSH2 0x780 DUP5 DUP7 SUB SLT ISZERO PUSH2 0xF27 JUMPI PUSH2 0xF26 PUSH2 0xA66 JUMP JUMPDEST JUMPDEST PUSH0 PUSH2 0xF34 DUP7 DUP3 DUP8 ADD PUSH2 0xBB1 JUMP JUMPDEST SWAP4 POP POP PUSH2 0x100 PUSH2 0xF46 DUP7 DUP3 DUP8 ADD PUSH2 0xC5F JUMP JUMPDEST SWAP3 POP POP PUSH2 0x280 PUSH2 0xF58 DUP7 DUP3 DUP8 ADD PUSH2 0xE83 JUMP JUMPDEST SWAP2 POP POP SWAP3 POP SWAP3 POP SWAP3 JUMP JUMPDEST PUSH0 DUP2 ISZERO ISZERO SWAP1 POP SWAP2 SWAP1 POP JUMP JUMPDEST PUSH2 0xF76 DUP2 PUSH2 0xF62 JUMP JUMPDEST DUP3 MSTORE POP POP JUMP JUMPDEST PUSH0 PUSH1 0x20 DUP3 ADD SWAP1 POP PUSH2 0xF8F PUSH0 DUP4 ADD DUP5 PUSH2 0xF6D JUMP JUMPDEST SWAP3 SWAP2 POP POP JUMP JUMPDEST PUSH32 0x4E487B7100000000000000000000000000000000000000000000000000000000 PUSH0 MSTORE PUSH1 0x32 PUSH1 0x4 MSTORE PUSH1 0x24 PUSH0 REVERT JUMPDEST PUSH0 DUP3 DUP3 MSTORE PUSH1 0x20 DUP3 ADD SWAP1 POP SWAP3 SWAP2 POP POP JUMP JUMPDEST PUSH32 0x76657269666965722D6774652D736E61726B2D7363616C61722D6669656C6400 PUSH0 DUP3 ADD MSTORE POP JUMP JUMPDEST PUSH0 PUSH2 0x1006 PUSH1 0x1F DUP4 PUSH2 0xFC2 JUMP JUMPDEST SWAP2 POP PUSH2 0x1011 DUP3 PUSH2 0xFD2 JUMP JUMPDEST PUSH1 0x20 DUP3 ADD SWAP1 POP SWAP2 SWAP1 POP JUMP JUMPDEST PUSH0 PUSH1 0x20 DUP3 ADD SWAP1 POP DUP2 DUP2 SUB PUSH0 DUP4 ADD MSTORE PUSH2 0x1033 DUP2 PUSH2 0xFFA JUMP JUMPDEST SWAP1 POP SWAP2 SWAP1 POP JUMP JUMPDEST PUSH32 0x4E487B7100000000000000000000000000000000000000000000000000000000 PUSH0 MSTORE PUSH1 0x11 PUSH1 0x4 MSTORE PUSH1 0x24 PUSH0 REVERT JUMPDEST PUSH0 PUSH2 0x1071 DUP3 PUSH2 0xB1F JUMP JUMPDEST SWAP2 POP PUSH2 0x107C DUP4 PUSH2 0xB1F JUMP JUMPDEST SWAP3 POP DUP3 DUP3 ADD SWAP1 POP DUP1 DUP3 GT ISZERO PUSH2 0x1094 JUMPI PUSH2 0x1093 PUSH2 0x103A JUMP JUMPDEST JUMPDEST SWAP3 SWAP2 POP POP JUMP JUMPDEST PUSH32 0x6164646974696F6E206661696C65640000000000000000000000000000000000 PUSH0 DUP3 ADD MSTORE POP JUMP JUMPDEST PUSH0 PUSH2 0x10CE PUSH1 0xF DUP4 PUSH2 0xFC2 JUMP JUMPDEST SWAP2 POP PUSH2 0x10D9 DUP3 PUSH2 0x109A JUMP JUMPDEST PUSH1 0x20 DUP3 ADD SWAP1 POP SWAP2 SWAP1 POP JUMP JUMPDEST PUSH0 PUSH1 0x20 DUP3 ADD SWAP1 POP DUP2 DUP2 SUB PUSH0 DUP4 ADD MSTORE PUSH2 0x10FB DUP2 PUSH2 0x10C2 JUMP JUMPDEST SWAP1 POP SWAP2 SWAP1 POP JUMP JUMPDEST PUSH32 0x7363616C6172206D756C206661696C6564000000000000000000000000000000 PUSH0 DUP3 ADD MSTORE POP JUMP JUMPDEST PUSH0 PUSH2 0x1136 PUSH1 0x11 DUP4 PUSH2 0xFC2 JUMP JUMPDEST SWAP2 POP PUSH2 0x1141 DUP3 PUSH2 0x1102 JUMP JUMPDEST PUSH1 0x20 DUP3 ADD SWAP1 POP SWAP2 SWAP1 POP JUMP JUMPDEST PUSH0 PUSH1 0x20 DUP3 ADD SWAP1 POP DUP2 DUP2 SUB PUSH0 DUP4 ADD MSTORE PUSH2 0x1163 DUP2 PUSH2 0x112A JUMP JUMPDEST SWAP1 POP SWAP2 SWAP1 POP JUMP JUMPDEST PUSH32 0x4E487B7100000000000000000000000000000000000000000000000000000000 PUSH0 MSTORE PUSH1 0x12 PUSH1 0x4 MSTORE PUSH1 0x24 PUSH0 REVERT JUMPDEST PUSH0 PUSH2 0x11A1 DUP3 PUSH2 0xB1F JUMP JUMPDEST SWAP2 POP PUSH2 0x11AC DUP4 PUSH2 0xB1F JUMP JUMPDEST SWAP3 POP DUP3 PUSH2 0x11BC JUMPI PUSH2 0x11BB PUSH2 0x116A JUMP JUMPDEST JUMPDEST DUP3 DUP3 MOD SWAP1 POP SWAP3 SWAP2 POP POP JUMP JUMPDEST PUSH0 PUSH2 0x11D1 DUP3 PUSH2 0xB1F JUMP JUMPDEST SWAP2 POP PUSH2 0x11DC DUP4 PUSH2 0xB1F JUMP JUMPDEST SWAP3 POP DUP3 DUP3 SUB SWAP1 POP DUP2 DUP2 GT ISZERO PUSH2 0x11F4 JUMPI PUSH2 0x11F3 PUSH2 0x103A JUMP JUMPDEST JUMPDEST SWAP3 SWAP2 POP POP JUMP JUMPDEST PUSH0 PUSH2 0x1204 DUP3 PUSH2 0xB1F JUMP JUMPDEST SWAP2 POP PUSH2 0x120F DUP4 PUSH2 0xB1F JUMP JUMPDEST SWAP3 POP DUP3 DUP3 MUL PUSH2 0x121D DUP2 PUSH2 0xB1F JUMP JUMPDEST SWAP2 POP DUP3 DUP3 DIV DUP5 EQ DUP4 ISZERO OR PUSH2 0x1234 JUMPI PUSH2 0x1233 PUSH2 0x103A JUMP JUMPDEST JUMPDEST POP SWAP3 SWAP2 POP POP JUMP JUMPDEST PUSH32 0x70616972696E67206661696C6564000000000000000000000000000000000000 PUSH0 DUP3 ADD MSTORE POP JUMP JUMPDEST PUSH0 PUSH2 0x126F PUSH1 0xE DUP4 PUSH2 0xFC2 JUMP JUMPDEST SWAP2 POP PUSH2 0x127A DUP3 PUSH2 0x123B JUMP JUMPDEST PUSH1 0x20 DUP3 ADD SWAP1 POP SWAP2 SWAP1 POP JUMP JUMPDEST PUSH0 PUSH1 0x20 DUP3 ADD SWAP1 POP DUP2 DUP2 SUB PUSH0 DUP4 ADD MSTORE PUSH2 0x129C DUP2 PUSH2 0x1263 JUMP JUMPDEST SWAP1 POP SWAP2 SWAP1 POP JUMP INVALID LOG2 PUSH5 0x6970667358 0x22 SLT KECCAK256 CALLDATALOAD 0xBC 0x2D PUSH11 0xCD8F3443941C97650AA3E3 0xDB 0xA7 0xAF 0xE2 0x23 0xC8 0xEE PUSH12 0x5F9B27D50DDB5A60A64736F PUSH13 0x634300081C0033000000000000 "
				},
				"gasEstimates": {
					"creation": {
						"codeDepositCost": "965000",
						"executionCost": "999",
						"totalCost": "965999"
					},
					"external": {
						"getPairingResult()": "2472",
						"pairingResult()": "2487",
						"verifyProof(uint256[8],uint256[12],((uint256,uint256),(uint256[2],uint256[2]),(uint256[2],uint256[2]),(uint256[2],uint256[2]),(uint256,uint256)[13]))": "infinite"
					}
				},
				"methodIdentifiers": {
					"getPairingResult()": "b7718040",
					"pairingResult()": "c110f9f1",
					"verifyProof(uint256[8],uint256[12],((uint256,uint256),(uint256[2],uint256[2]),(uint256[2],uint256[2]),(uint256[2],uint256[2]),(uint256,uint256)[13]))": "aaae5545"
				}
			},
			"storageLayout": {
				"storage": [
					{
						"astId": 40,
						"contract": "contracts/Groth16VerifyBn254.sol:Groth16VerifyBn254",
						"label": "pairingResult",
						"offset": 0,
						"slot": "0",
						"type": "t_bool"
					}
				],
				"types": {
					"t_bool": {
						"encoding": "inplace",
						"label": "bool",
						"numberOfBytes": "1"
					}
				}
			},
			"userdoc": {
				"kind": "user",
				"methods": {},
				"version": 1
			}
		}
	}
}