{
	"data": {
		"bytecode": {
			"linkReferences": {},
			"object": "6080604052348015600e575f5ffd5b506112d98061001c5f395ff3fe608060405234801561000f575f5ffd5b506004361061003f575f3560e01c8063aaae554514610043578063b77180401461005f578063c110f9f11461007d575b5f5ffd5b61005d60048036038101906100589190610f0f565b61009b565b005b610067610357565b6040516100749190610f7c565b60405180910390f35b61008561036b565b6040516100929190610f7c565b60405180910390f35b6100a3610964565b6040518060400160405280855f600881106100c1576100c0610f95565b5b60200201518152602001856001600881106100df576100de610f95565b5b6020020151815250815f0181905250604051806040016040528060405180604001604052808760026008811061011857610117610f95565b5b602002015181526020018760036008811061013657610135610f95565b5b6020020151815250815260200160405180604001604052808760046008811061016257610161610f95565b5b60200201518152602001876005600881106101805761017f610f95565b5b602002015181525081525081602001819052506040518060400160405280856006600881106101b2576101b1610f95565b5b60200201518152602001856007600881106101d0576101cf610f95565b5b602002015181525081604001819052505f60405180604001604052805f81526020015f815250905061021d8184608001515f600d811061021357610212610f95565b5b602002015161037c565b90505f5f90505b600c811015610306577f30644e72e131a029b85045b68181585d2833e84879b9709143e1f593f00000018582600c811061026157610260610f95565b5b6020020151106102a6576040517f08c379a000000000000000000000000000000000000000000000000000000000815260040161029d9061101c565b60405180910390fd5b6102f7826102f286608001516001856102bf9190611067565b600d81106102d0576102cf610f95565b5b60200201518885600c81106102e8576102e7610f95565b5b6020020151610475565b61037c565b91508080600101915050610224565b50610339610316835f0151610549565b8360200151855f0151866020015185886040015188604001518a60600151610601565b5f5f6101000a81548160ff0219169083151502179055505050505050565b5f5f5f9054906101000a900460ff16905090565b5f5f9054906101000a900460ff1681565b610384610997565b61038c6109af565b835f0151815f600481106103a3576103a2610f95565b5b6020020181815250508360200151816001600481106103c5576103c4610f95565b5b602002018181525050825f0151816002600481106103e6576103e5610f95565b5b60200201818152505082602001518160036004811061040857610407610f95565b5b6020020181815250505f60608360c08460066107d05a03fa9050805f810361042c57fe5b508061046d576040517f08c379a0000000000000000000000000000000000000000000000000000000008152600401610464906110e4565b60405180910390fd5b505092915050565b61047d610997565b6104856109d1565b835f0151815f6003811061049c5761049b610f95565b5b6020020181815250508360200151816001600381106104be576104bd610f95565b5b60200201818152505082816002600381106104dc576104db610f95565b5b6020020181815250505f60608360808460076107d05a03fa9050805f810361050057fe5b5080610541576040517f08c379a00000000000000000000000000000000000000000000000000000000081526004016105389061114c565b60405180910390fd5b505092915050565b610551610997565b5f825f015114801561056657505f8260200151145b156105875760405180604001604052805f81526020015f81525090506105fc565b6040518060400160405280835f015181526020017f30644e72e131a029b85045b68181585d97816a916871ca8d3c208c16d87cfd4784602001516105cb9190611197565b7f30644e72e131a029b85045b68181585d97816a916871ca8d3c208c16d87cfd476105f691906111c7565b81525090505b919050565b5f5f60405180608001604052808b81526020018981526020018781526020018581525090505f60405180608001604052808b81526020018981526020018781526020018581525090505f601890505f8167ffffffffffffffff81111561066a57610669610a7e565b5b6040519080825280602002602001820160405280156106985781602001602082028036833780820191505090505b5090505f5f90505b60048110156108cb575f6006826106b791906111fa565b90508582600481106106cc576106cb610f95565b5b60200201515f0151835f836106e19190611067565b815181106106f2576106f1610f95565b5b60200260200101818152505085826004811061071157610710610f95565b5b602002015160200151836001836107289190611067565b8151811061073957610738610f95565b5b60200260200101818152505084826004811061075857610757610f95565b5b60200201515f01515f6002811061077257610771610f95565b5b6020020151836002836107859190611067565b8151811061079657610795610f95565b5b6020026020010181815250508482600481106107b5576107b4610f95565b5b60200201515f01516001600281106107d0576107cf610f95565b5b6020020151836003836107e39190611067565b815181106107f4576107f3610f95565b5b60200260200101818152505084826004811061081357610812610f95565b5b6020020151602001515f6002811061082e5761082d610f95565b5b6020020151836004836108419190611067565b8151811061085257610851610f95565b5b60200260200101818152505084826004811061087157610870610f95565b5b60200201516020015160016002811061088d5761088c610f95565b5b6020020151836005836108a09190611067565b815181106108b1576108b0610f95565b5b6020026020010181815250505080806001019150506106a0565b506108d46109f3565b5f602082602086026020860160086107d05a03fa9050805f81036108f457fe5b5080610935576040517f08c379a000000000000000000000000000000000000000000000000000000000815260040161092c90611285565b60405180910390fd5b5f825f6001811061094957610948610f95565b5b60200201511415965050505050505098975050505050505050565b6040518060600160405280610977610997565b8152602001610984610a15565b8152602001610991610997565b81525090565b60405180604001604052805f81526020015f81525090565b6040518060800160405280600490602082028036833780820191505090505090565b6040518060600160405280600390602082028036833780820191505090505090565b6040518060200160405280600190602082028036833780820191505090505090565b6040518060400160405280610a28610a3b565b8152602001610a35610a3b565b81525090565b6040518060400160405280600290602082028036833780820191505090505090565b5f604051905090565b5f5ffd5b5f5ffd5b5f601f19601f8301169050919050565b7f4e487b71000000000000000000000000000000000000000000000000000000005f52604160045260245ffd5b610ab482610a6e565b810181811067ffffffffffffffff82111715610ad357610ad2610a7e565b5b80604052505050565b5f610ae5610a5d565b9050610af18282610aab565b919050565b5f67ffffffffffffffff821115610b1057610b0f610a7e565b5b602082029050919050565b5f5ffd5b5f819050919050565b610b3181610b1f565b8114610b3b575f5ffd5b50565b5f81359050610b4c81610b28565b92915050565b5f610b64610b5f84610af6565b610adc565b90508060208402830185811115610b7e57610b7d610b1b565b5b835b81811015610ba75780610b938882610b3e565b845260208401935050602081019050610b80565b5050509392505050565b5f82601f830112610bc557610bc4610a6a565b5b6008610bd2848285610b52565b91505092915050565b5f67ffffffffffffffff821115610bf557610bf4610a7e565b5b602082029050919050565b5f610c12610c0d84610bdb565b610adc565b90508060208402830185811115610c2c57610c2b610b1b565b5b835b81811015610c555780610c418882610b3e565b845260208401935050602081019050610c2e565b5050509392505050565b5f82601f830112610c7357610c72610a6a565b5b600c610c80848285610c00565b91505092915050565b5f5ffd5b5f60408284031215610ca257610ca1610c89565b5b610cac6040610adc565b90505f610cbb84828501610b3e565b5f830152506020610cce84828501610b3e565b60208301525092915050565b5f67ffffffffffffffff821115610cf457610cf3610a7e565b5b602082029050919050565b5f610d11610d0c84610cda565b610adc565b90508060208402830185811115610d2b57610d2a610b1b565b5b835b81811015610d545780610d408882610b3e565b845260208401935050602081019050610d2d565b5050509392505050565b5f82601f830112610d7257610d71610a6a565b5b6002610d7f848285610cff565b91505092915050565b5f60808284031215610d9d57610d9c610c89565b5b610da76040610adc565b90505f610db684828501610d5e565b5f830152506040610dc984828501610d5e565b60208301525092915050565b5f67ffffffffffffffff821115610def57610dee610a7e565b5b602082029050919050565b5f610e0c610e0784610dd5565b610adc565b90508060408402830185811115610e2657610e25610b1b565b5b835b81811015610e4f5780610e3b8882610c8d565b845260208401935050604081019050610e28565b5050509392505050565b5f82601f830112610e6d57610e6c610a6a565b5b600d610e7a848285610dfa565b91505092915050565b5f6105008284031215610e9957610e98610c89565b5b610ea360a0610adc565b90505f610eb284828501610c8d565b5f830152506040610ec584828501610d88565b60208301525060c0610ed984828501610d88565b604083015250610140610eee84828501610d88565b6060830152506101c0610f0384828501610e59565b60808301525092915050565b5f5f5f6107808486031215610f2757610f26610a66565b5b5f610f3486828701610bb1565b935050610100610f4686828701610c5f565b925050610280610f5886828701610e83565b9150509250925092565b5f8115159050919050565b610f7681610f62565b82525050565b5f602082019050610f8f5f830184610f6d565b92915050565b7f4e487b71000000000000000000000000000000000000000000000000000000005f52603260045260245ffd5b5f82825260208201905092915050565b7f76657269666965722d6774652d736e61726b2d7363616c61722d6669656c64005f82015250565b5f611006601f83610fc2565b915061101182610fd2565b602082019050919050565b5f6020820190508181035f83015261103381610ffa565b9050919050565b7f4e487b71000000000000000000000000000000000000000000000000000000005f52601160045260245ffd5b5f61107182610b1f565b915061107c83610b1f565b92508282019050808211156110945761109361103a565b5b92915050565b7f6164646974696f6e206661696c656400000000000000000000000000000000005f82015250565b5f6110ce600f83610fc2565b91506110d98261109a565b602082019050919050565b5f6020820190508181035f8301526110fb816110c2565b9050919050565b7f7363616c6172206d756c206661696c65640000000000000000000000000000005f82015250565b5f611136601183610fc2565b915061114182611102565b602082019050919050565b5f6020820190508181035f8301526111638161112a565b9050919050565b7f4e487b71000000000000000000000000000000000000000000000000000000005f52601260045260245ffd5b5f6111a182610b1f565b91506111ac83610b1f565b9250826111bc576111bb61116a565b5b828206905092915050565b5f6111d182610b1f565b91506111dc83610b1f565b92508282039050818111156111f4576111f361103a565b5b92915050565b5f61120482610b1f565b915061120f83610b1f565b925082820261121d81610b1f565b915082820484148315176112345761123361103a565b5b5092915050565b7f70616972696e67206661696c65640000000000000000000000000000000000005f82015250565b5f61126f600e83610fc2565b915061127a8261123b565b602082019050919050565b5f6020820190508181035f83015261129c81611263565b905091905056fea264697066735822122035bc2d6acd8f3443941c97650aa3e3dba7afe223c8ee6b05f9b27d50ddb5a60a64736f6c634300081c0033",
			"opcodes": "PUSH1 0x80 PUSH1 0x40 MSTORE CALLVALUE DUP1 ISZERO PUSH1 0xE JUMPI PUSH0 PUSH0 REVERT JUMPDEST POP PUSH2 0x12D9 DUP1 PUSH2 0x1C PUSH0 CODECOPY PUSH0 RETURN INVALID PUSH1 0x80 PUSH1 0x40 MSTORE CALLVALUE DUP1 ISZERO PUSH2 0xF JUMPI PUSH0 PUSH0 REVERT JUMPDEST POP PUSH1 0x4 CALLDATASIZE LT PUSH2 0x3F JUMPI PUSH0 CALLDATALOAD PUSH1 0xE0 SHR DUP1 PUSH4 0xAAAE5545 EQ PUSH2 0x43 JUMPI DUP1 PUSH4 0xB7718040 EQ PUSH2 0x5F JUMPI DUP1 PUSH4 0xC110F9F1 EQ PUSH2 0x7D JUMPI JUMPDEST PUSH0 PUSH0 REVERT JUMPDEST PUSH2 0x5D PUSH1 0x4 DUP1 CALLDATASIZE SUB DUP2 ADD SWAP1 PUSH2 0x58 SWAP2 SWAP1 PUSH2 0xF0F JUMP JUMPDEST PUSH2 0x9B JUMP JUMPDEST STOP JUMPDEST PUSH2 0x67 PUSH2 0x357 JUMP JUMPDEST PUSH1 0x40 MLOAD PUSH2 0x74 SWAP2 SWAP1 PUSH2 0xF7C JUMP JUMPDEST PUSH1 0x40 MLOAD DUP1 SWAP2 SUB SWAP1 RETURN JUMPDEST PUSH2 0x85 PUSH2 0x36B JUMP JUMPDEST PUSH1 0x40 MLOAD PUSH2 0x92 SWAP2 SWAP1 PUSH2 0xF7C JUMP JUMPDEST PUSH1 0x40 MLOAD DUP1 SWAP2 SUB SWAP1 RETURN JUMPDEST PUSH2 0xA3 PUSH2 0x964 JUMP JUMPDEST PUSH1 0x40 MLOAD DUP1 PUSH1 0x40 ADD PUSH1 0x40 MSTORE DUP1 DUP6 PUSH0 PUSH1 0x8 DUP2 LT PUSH2 0xC1 JUMPI PUSH2 0xC0 PUSH2 0xF95 JUMP JUMPDEST JUMPDEST PUSH1 0x20 MUL ADD MLOAD DUP2 MSTORE PUSH1 0x20 ADD DUP6 PUSH1 0x1 PUSH1 0x8 DUP2 LT PUSH2 0xDF JUMPI PUSH2 0xDE PUSH2 0xF95 JUMP JUMPDEST JUMPDEST PUSH1 0x20 MUL ADD MLOAD DUP2 MSTORE POP DUP2 PUSH0 ADD DUP2 SWAP1 MSTORE POP PUSH1 0x40 MLOAD DUP1 PUSH1 0x40 ADD PUSH1 0x40 MSTORE DUP1 PUSH1 0x40 MLOAD DUP1 PUSH1 0x40 ADD PUSH1 0x40 MSTORE DUP1 DUP8 PUSH1 0x2 PUSH1 0x8 DUP2 LT PUSH2 0x118 JUMPI PUSH2 0x117 PUSH2 0xF95 JUMP JUMPDEST JUMPDEST PUSH1 0x20 MUL ADD MLOAD DUP2 MSTORE PUSH1 0x20 ADD DUP8 PUSH1 0x3 PUSH1 0x8 DUP2 LT PUSH2 0x136 JUMPI PUSH2 0x135 PUSH2 0xF95 JUMP JUMPDEST JUMPDEST PUSH1 0x20 MUL ADD MLOAD DUP2 MSTORE POP DUP2 MSTORE PUSH1 0x20 ADD PUSH1 0x40 MLOAD DUP1 PUSH1 0x40 ADD PUSH1 0x40 MSTORE DUP1 DUP8 PUSH1 0x4 PUSH1 0x8 DUP2 LT PUSH2 0x162 JUMPI PUSH2 0x161 PUSH2 0xF95 JUMP JUMPDEST JUMPDEST PUSH1 0x20 MUL ADD MLOAD DUP2 MSTORE PUSH1 0x20 ADD DUP8 PUSH1 0x5 PUSH1 0x8 DUP2 LT PUSH2 0x180 JUMPI PUSH2 0x17F PUSH2 0xF95 JUMP JUMPDEST JUMPDEST PUSH1 0x20 MUL ADD MLOAD DUP2 MSTORE POP DUP2 MSTORE POP DUP2 PUSH1 0x20 ADD DUP2 SWAP1 MSTORE POP PUSH1 0x40 MLOAD DUP1 PUSH1 0x40 ADD PUSH1 0x40 MSTORE DUP1 DUP6 PUSH1 0x6 PUSH1 0x8 DUP2 LT PUSH2 0x1B2 JUMPI PUSH2 0x1B1 PUSH2 0xF95 JUMP JUMPDEST JUMPDEST PUSH1 0x20 MUL ADD MLOAD DUP2 MSTORE PUSH1 0x20 ADD DUP6 PUSH1 0x7 PUSH1 0x8 DUP2 LT PUSH2 0x1D0 JUMPI PUSH2 0x1CF PUSH2 0xF95 JUMP JUMPDEST JUMPDEST PUSH1 0x20 MUL ADD MLOAD DUP2 MSTORE POP DUP2 PUSH1 0x40 ADD DUP2 SWAP1 MSTORE POP PUSH0 PUSH1 0x40 MLOAD DUP1 PUSH1 0x40 ADD PUSH1 0x40 MSTORE DUP1 PUSH0 DUP2 MSTORE PUSH1 0x20 ADD PUSH0 DUP2 MSTORE POP SWAP1 POP PUSH2 0x21D DUP2 DUP5 PUSH1 0x80 ADD MLOAD PUSH0 PUSH1 0xD DUP2 LT PUSH2 0x213 JUMPI PUSH2 0x212 PUSH2 0xF95 JUMP JUMPDEST JUMPDEST PUSH1 0x20 MUL ADD MLOAD PUSH2 0x37C JUMP JUMPDEST SWAP1 POP PUSH0 PUSH0 SWAP1 POP JUMPDEST PUSH1 0xC DUP2 LT ISZERO PUSH2 0x306 JUMPI PUSH32 0x30644E72E131A029B85045B68181585D2833E84879B9709143E1F593F0000001 DUP6 DUP3 PUSH1 0xC DUP2 LT PUSH2 0x261 JUMPI PUSH2 0x260 PUSH2 0xF95 JUMP JUMPDEST JUMPDEST PUSH1 0x20 MUL ADD MLOAD LT PUSH2 0x2A6 JUMPI PUSH1 0x40 MLOAD PUSH32 0x8C379A000000000000000000000000000000000000000000000000000000000 DUP2 MSTORE PUSH1 0x4 ADD PUSH2 0x29D SWAP1 PUSH2 0x101C JUMP JUMPDEST PUSH1 0x40 MLOAD DUP1 SWAP2 SUB SWAP1 REVERT JUMPDEST PUSH2 0x2F7 DUP3 PUSH2 0x2F2 DUP7 PUSH1 0x80 ADD MLOAD PUSH1 0x1 DUP6 PUSH2 0x2BF SWAP2 SWAP1 PUSH2 0x1067 JUMP JUMPDEST PUSH1 0xD DUP2 LT PUSH2 0x2D0 JUMPI PUSH2 0x2CF PUSH2 0xF95 JUMP JUMPDEST JUMPDEST PUSH1 0x20 MUL ADD MLOAD DUP9 DUP6 PUSH1 0xC DUP2 LT PUSH2 0x2E8 JUMPI PUSH2 0x2E7 PUSH2 0xF95 JUMP JUMPDEST JUMPDEST PUSH1 0x20 MUL ADD MLOAD PUSH2 0x475 JUMP JUMPDEST PUSH2 0x37C JUMP JUMPDEST SWAP2 POP DUP1 DUP1 PUSH1 0x1 ADD SWAP2 POP POP PUSH2 0x224 JUMP JUMPDEST POP PUSH2 0x339 PUSH2 0x316 DUP4 PUSH0 ADD MLOAD PUSH2 0x549 JUMP JUMPDEST DUP4 PUSH1 0x20 ADD MLOAD DUP6 PUSH0 ADD MLOAD DUP7 PUSH1 0x20 ADD MLOAD DUP6 DUP9 PUSH1 0x40 ADD MLOAD DUP9 PUSH1 0x40 ADD MLOAD DUP11 PUSH1 0x60 ADD MLOAD PUSH2 0x601 JUMP JUMPDEST PUSH0 PUSH0 PUSH2 0x100 EXP DUP2 SLOAD DUP2 PUSH1 0xFF MUL NOT AND SWAP1 DUP4 ISZERO ISZERO MUL OR SWAP1 SSTORE POP POP POP POP POP POP JUMP JUMPDEST PUSH0 PUSH0 PUSH0 SWAP1 SLOAD SWAP1 PUSH2 0x100 EXP SWAP1 DIV PUSH1 0xFF AND SWAP1 POP SWAP1 JUMP JUMPDEST PUSH0 PUSH0 SWAP1 SLOAD SWAP1 PUSH2 0x100 EXP SWAP1 DIV PUSH1 0xFF AND DUP2 JUMP JUMPDEST PUSH2 0x384 PUSH2 0x997 JUMP JUMPDEST PUSH2 0x38C PUSH2 0x9AF JUMP JUMPDEST DUP4 PUSH0 ADD MLOAD DUP2 PUSH0 PUSH1 0x4 DUP2 LT PUSH2 0x3A3 JUMPI PUSH2 0x3A2 PUSH2 0xF95 JUMP JUMPDEST JUMPDEST PUSH1 0x20 MUL ADD DUP2 DUP2 MSTORE POP POP DUP4 PUSH1 0x20 ADD MLOAD DUP2 PUSH1 0x1 PUSH1 0x4 DUP2 LT PUSH2 0x3C5 JUMPI PUSH2 0x3C4 PUSH2 0xF95 JUMP JUMPDEST JUMPDEST PUSH1 0x20 MUL ADD DUP2 DUP2 MSTORE POP POP DUP3 PUSH0 ADD MLOAD DUP2 PUSH1 0x2 PUSH1 0x4 DUP2 LT PUSH2 0x3E6 JUMPI PUSH2 0x3E5 PUSH2 0xF95 JUMP JUMPDEST JUMPDEST PUSH1 0x20 MUL ADD DUP2 DUP2 MSTORE POP POP DUP3 PUSH1 0x20 ADD MLOAD DUP2 PUSH1 0x3 PUSH1 0x4 DUP2 LT PUSH2 0x408 JUMPI PUSH2 0x407 PUSH2 0xF95 JUMP JUMPDEST JUMPDEST PUSH1 0x20 MUL ADD DUP2 DUP2 MSTORE POP POP PUSH0 PUSH1 0x60 DUP4 PUSH1 0xC0 DUP5 PUSH1 0x6 PUSH2 0x7D0 GAS SUB STATICCALL SWAP1 POP DUP1 PUSH0 DUP2 SUB PUSH2 0x42C JUMPI INVALID JUMPDEST POP DUP1 PUSH2 0x46D JUMPI PUSH1 0x40 MLOAD PUSH32 0x8C379A000000000000000000000000000000000000000000000000000000000 DUP2 MSTORE PUSH1 0x4 ADD PUSH2 0x464 SWAP1 PUSH2 0x10E4 JUMP JUMPDEST PUSH1 0x40 MLOAD DUP1 SWAP2 SUB SWAP1 REVERT JUMPDEST POP POP SWAP3 SWAP2 POP POP JUMP JUMPDEST PUSH2 0x47D PUSH2 0x997 JUMP JUMPDEST PUSH2 0x485 PUSH2 0x9D1 JUMP JUMPDEST DUP4 PUSH0 ADD MLOAD DUP2 PUSH0 PUSH1 0x3 DUP2 LT PUSH2 0x49C JUMPI PUSH2 0x49B PUSH2 0xF95 JUMP JUMPDEST JUMPDEST PUSH1 0x20 MUL ADD DUP2 DUP2 MSTORE POP POP DUP4 PUSH1 0x20 ADD MLOAD DUP2 PUSH1 0x1 PUSH1 0x3 DUP2 LT PUSH2 0x4BE JUMPI PUSH2 0x4BD PUSH2 0xF95 JUMP JUMPDEST JUMPDEST PUSH1 0x20 MUL ADD DUP2 DUP2 MSTORE POP POP DUP3 DUP2 PUSH1 0x2 PUSH1 0x3 DUP2 LT PUSH2 0x4DC JUMPI PUSH2 0x4DB PUSH2 0xF95 JUMP JUMPDEST JUMPDEST PUSH1 0x20 MUL ADD DUP2 DUP2 MSTORE POP POP PUSH0 PUSH1 0x60 DUP4 PUSH1 0x80 DUP5 PUSH1 0x7 PUSH2 0x7D0 GAS SUB STATICCALL SWAP1 POP DUP1 PUSH0 DUP2 SUB PUSH2 0x500 JUMPI INVALID JUMPDEST POP DUP1 PUSH2 0x541 JUMPI PUSH1 0x40 MLOAD PUSH32 0x8C379A000000000000000000000000000000000000000000000000000000000 DUP2 MSTORE PUSH1 0x4 ADD PUSH2 0x538 SWAP1 PUSH2 0x114C JUMP JUMPDEST PUSH1 0x40 MLOAD DUP1 SWAP2 SUB SWAP1 REVERT JUMPDEST POP POP SWAP3 SWAP2 POP POP JUMP JUMPDEST PUSH2 0x551 PUSH2 0x997 JUMP JUMPDEST PUSH0 DUP3 PUSH0 ADD MLOAD EQ DUP1 ISZERO PUSH2 0x566 JUMPI POP PUSH0 DUP3 PUSH1 0x20 ADD MLOAD EQ JUMPDEST ISZERO PUSH2 0x587 JUMPI PUSH1 0x40 MLOAD DUP1 PUSH1 0x40 ADD PUSH1 0x40 MSTORE DUP1 PUSH0 DUP2 MSTORE PUSH1 0x20 ADD PUSH0 DUP2 MSTORE POP SWAP1 POP PUSH2 0x5FC JUMP JUMPDEST PUSH1 0x40 MLOAD DUP1 PUSH1 0x40 ADD PUSH1 0x40 MSTORE DUP1 DUP4 PUSH0 ADD MLOAD DUP2 MSTORE PUSH1 0x20 ADD PUSH32 0x30644E72E131A029B85045B68181585D97816A916871CA8D3C208C16D87CFD47 DUP5 PUSH1 0x20 ADD MLOAD PUSH2 0x5CB SWAP2 SWAP1 PUSH2 0x1197 JUMP JUMPDEST PUSH32 0x30644E72E131A029B85045B68181585D97816A916871CA8D3C208C16D87CFD47 PUSH2 0x5F6 SWAP2 SWAP1 PUSH2 0x11C7 JUMP JUMPDEST DUP2 MSTORE POP SWAP1 POP JUMPDEST SWAP2 SWAP1 POP JUMP JUMPDEST PUSH0 PUSH0 PUSH1 0x40 MLOAD DUP1 PUSH1 0x80 ADD PUSH1 0x40 MSTORE DUP1 DUP12 DUP2 MSTORE PUSH1 0x20 ADD DUP10 DUP2 MSTORE PUSH1 0x20 ADD DUP8 DUP2 MSTORE PUSH1 0x20 ADD DUP6 DUP2 MSTORE POP SWAP1 POP PUSH0 PUSH1 0x40 MLOAD DUP1 PUSH1 0x80 ADD PUSH1 0x40 MSTORE DUP1 DUP12 DUP2 MSTORE PUSH1 0x20 ADD DUP10 DUP2 MSTORE PUSH1 0x20 ADD DUP8 DUP2 MSTORE PUSH1 0x20 ADD DUP6 DUP2 MSTORE POP SWAP1 POP PUSH0 PUSH1 0x18 SWAP1 POP PUSH0 DUP2 PUSH8 0xFFFFFFFFFFFFFFFF DUP2 GT ISZERO PUSH2 0x66A JUMPI PUSH2 0x669 PUSH2 0xA7E JUMP JUMPDEST JUMPDEST PUSH1 0x40 MLOAD SWAP1 DUP1 DUP3 MSTORE DUP1 PUSH1 0x20 MUL PUSH1 0x20 ADD DUP3 ADD PUSH1 0x40 MSTORE DUP1 ISZERO PUSH2 0x698 JUMPI DUP2 PUSH1 0x20 ADD PUSH1 0x20 DUP3 MUL DUP1 CALLDATASIZE DUP4 CALLDATACOPY DUP1 DUP3 ADD SWAP2 POP POP SWAP1 POP JUMPDEST POP SWAP1 POP PUSH0 PUSH0 SWAP1 POP JUMPDEST PUSH1 0x4 DUP2 LT ISZERO PUSH2 0x8CB JUMPI PUSH0 PUSH1 0x6 DUP3 PUSH2 0x6B7 SWAP2 SWAP1 PUSH2 0x11FA JUMP JUMPDEST SWAP1 POP DUP6 DUP3 PUSH1 0x4 DUP2 LT PUSH2 0x6CC JUMPI PUSH2 0x6CB PUSH2 0xF95 JUMP JUMPDEST JUMPDEST PUSH1 0x20 MUL ADD MLOAD PUSH0 ADD MLOAD DUP4 PUSH0 DUP4 PUSH2 0x6E1 SWAP2 SWAP1 PUSH2 0x1067 JUMP JUMPDEST DUP2 MLOAD DUP2 LT PUSH2 0x6F2 JUMPI PUSH2 0x6F1 PUSH2 0xF95 JUMP JUMPDEST JUMPDEST PUSH1 0x20 MUL PUSH1 0x20 ADD ADD DUP2 DUP2 MSTORE POP POP DUP6 DUP3 PUSH1 0x4 DUP2 LT PUSH2 0x711 JUMPI PUSH2 0x710 PUSH2 0xF95 JUMP JUMPDEST JUMPDEST PUSH1 0x20 MUL ADD MLOAD PUSH1 0x20 ADD MLOAD DUP4 PUSH1 0x1 DUP4 PUSH2 0x728 SWAP2 SWAP1 PUSH2 0x1067 JUMP JUMPDEST DUP2 MLOAD DUP2 LT PUSH2 0x739 JUMPI PUSH2 0x738 PUSH2 0xF95 JUMP JUMPDEST JUMPDEST PUSH1 0x20 MUL PUSH1 0x20 ADD ADD DUP2 DUP2 MSTORE POP POP DUP5 DUP3 PUSH1 0x4 DUP2 LT PUSH2 0x758 JUMPI PUSH2 0x757 PUSH2 0xF95 JUMP JUMPDEST JUMPDEST PUSH1 0x20 MUL ADD MLOAD PUSH0 ADD MLOAD PUSH0 PUSH1 0x2 DUP2 LT PUSH2 0x772 JUMPI PUSH2 0x771 PUSH2 0xF95 JUMP JUMPDEST JUMPDEST PUSH1 0x20 MUL ADD MLOAD DUP4 PUSH1 0x2 DUP4 PUSH2 0x785 SWAP2 SWAP1 PUSH2 0x1067 JUMP JUMPDEST DUP2 MLOAD DUP2 LT PUSH2 0x796 JUMPI PUSH2 0x795 PUSH2 0xF95 JUMP JUMPDEST JUMPDEST PUSH1 0x20 MUL PUSH1 0x20 ADD ADD DUP2 DUP2 MSTORE POP POP DUP5 DUP3 PUSH1 0x4 DUP2 LT PUSH2 0x7B5 JUMPI PUSH2 0x7B4 PUSH2 0xF95 JUMP JUMPDEST JUMPDEST PUSH1 0x20 MUL ADD MLOAD PUSH0 ADD MLOAD PUSH1 0x1 PUSH1 0x2 DUP2 LT PUSH2 0x7D0 JUMPI PUSH2 0x7CF PUSH2 0xF95 JUMP JUMPDEST JUMPDEST PUSH1 0x20 MUL ADD MLOAD DUP4 PUSH1 0x3 DUP4 PUSH2 0x7E3 SWAP2 SWAP1 PUSH2 0x1067 JUMP JUMPDEST DUP2 MLOAD DUP2 LT PUSH2 0x7F4 JUMPI PUSH2 0x7F3 PUSH2 0xF95 JUMP JUMPDEST JUMPDEST PUSH1 0x20 MUL PUSH1 0x20 ADD ADD DUP2 DUP2 MSTORE POP POP DUP5 DUP3 PUSH1 0x4 DUP2 LT PUSH2 0x813 JUMPI PUSH2 0x812 PUSH2 0xF95 JUMP JUMPDEST JUMPDEST PUSH1 0x20 MUL ADD MLOAD PUSH1 0x20 ADD MLOAD PUSH0 PUSH1 0x2 DUP2 LT PUSH2 0x82E JUMPI PUSH2 0x82D PUSH2 0xF95 JUMP JUMPDEST JUMPDEST PUSH1 0x20 MUL ADD MLOAD DUP4 PUSH1 0x4 DUP4 PUSH2 0x841 SWAP2 SWAP1 PUSH2 0x1067 JUMP JUMPDEST DUP2 MLOAD DUP2 LT PUSH2 0x852 JUMPI PUSH2 0x851 PUSH2 0xF95 JUMP JUMPDEST JUMPDEST PUSH1 0x20 MUL PUSH1 0x20 ADD ADD DUP2 DUP2 MSTORE POP POP DUP5 DUP3 PUSH1 0x4 DUP2 LT PUSH2 0x871 JUMPI PUSH2 0x870 PUSH2 0xF95 JUMP JUMPDEST JUMPDEST PUSH1 0x20 MUL ADD MLOAD PUSH1 0x20 ADD MLOAD PUSH1 0x1 PUSH1 0x2 DUP2 LT PUSH2 0x88D JUMPI PUSH2 0x88C PUSH2 0xF95 JUMP JUMPDEST JUMPDEST PUSH1 0x20 MUL ADD MLOAD DUP4 PUSH1 0x5 DUP4 PUSH2 0x8A0 SWAP2 SWAP1 PUSH2 0x1067 JUMP JUMPDEST DUP2 MLOAD DUP2 LT PUSH2 0x8B1 JUMPI PUSH2 0x8B0 PUSH2 0xF95 JUMP JUMPDEST JUMPDEST PUSH1 0x20 MUL PUSH1 0x20 ADD ADD DUP2 DUP2 MSTORE POP POP POP DUP1 DUP1 PUSH1 0x1 ADD SWAP2 POP POP PUSH2 0x6A0 JUMP JUMPDEST POP PUSH2 0x8D4 PUSH2 0x9F3 JUMP JUMPDEST PUSH0 PUSH1 0x20 DUP3 PUSH1 0x20 DUP7 MUL PUSH1 0x20 DUP7 ADD PUSH1 0x8 PUSH2 0x7D0 GAS SUB STATICCALL SWAP1 POP DUP1 PUSH0 DUP2 SUB PUSH2 0x8F4 JUMPI INVALID JUMPDEST POP DUP1 PUSH2 0x935 JUMPI PUSH1 0x40 MLOAD PUSH32 0x8C379A000000000000000000000000000000000000000000000000000000000 DUP2 MSTORE PUSH1 0x4 ADD PUSH2 0x92C SWAP1 PUSH2 0x1285 JUMP JUMPDEST PUSH1 0x40 MLOAD DUP1 SWAP2 SUB SWAP1 REVERT JUMPDEST PUSH0 DUP3 PUSH0 PUSH1 0x1 DUP2 LT PUSH2 0x949 JUMPI PUSH2 0x948 PUSH2 0xF95 JUMP JUMPDEST JUMPDEST PUSH1 0x20 MUL ADD MLOAD EQ ISZERO SWAP7 POP POP POP POP POP POP POP SWAP9 SWAP8 POP POP POP POP POP POP POP POP JUMP JUMPDEST PUSH1 0x40 MLOAD DUP1 PUSH1 0x60 ADD PUSH1 0x40 MSTORE DUP1 PUSH2 0x977 PUSH2 0x997 JUMP JUMPDEST DUP2 MSTORE PUSH1 0x20 ADD PUSH2 0x984 PUSH2 0xA15 JUMP JUMPDEST DUP2 MSTORE PUSH1 0x20 ADD PUSH2 0x991 PUSH2 0x997 JUMP JUMPDEST DUP2 MSTORE POP SWAP1 JUMP JUMPDEST PUSH1 0x40 MLOAD DUP1 PUSH1 0x40 ADD PUSH1 0x40 MSTORE DUP1 PUSH0 DUP2 MSTORE PUSH1 0x20 ADD PUSH0 DUP2 MSTORE POP SWAP1 JUMP JUMPDEST PUSH1 0x40 MLOAD DUP1 PUSH1 0x80 ADD PUSH1 0x40 MSTORE DUP1 PUSH1 0x4 SWAP1 PUSH1 0x20 DUP3 MUL DUP1 CALLDATASIZE DUP4 CALLDATACOPY DUP1 DUP3 ADD SWAP2 POP POP SWAP1 POP POP SWAP1 JUMP JUMPDEST PUSH1 0x40 MLOAD DUP1 PUSH1 0x60 ADD PUSH1 0x40 MSTORE DUP1 PUSH1 0x3 SWAP1 PUSH1 0x20 DUP3 MUL DUP1 CALLDATASIZE DUP4 CALLDATACOPY DUP1 DUP3 ADD SWAP2 POP POP SWAP1 POP POP SWAP1 JUMP JUMPDEST PUSH1 0x40 MLOAD DUP1 PUSH1 0x20 ADD PUSH1 0x40 MSTORE DUP1 PUSH1 0x1 SWAP1 PUSH1 0x20 DUP3 MUL DUP1 CALLDATASIZE DUP4 CALLDATACOPY DUP1 DUP3 ADD SWAP2 POP POP SWAP1 POP POP SWAP1 JUMP JUMPDEST PUSH1 0x40 MLOAD DUP1 PUSH1 0x40 ADD PUSH1 0x40 MSTORE DUP1 PUSH2 0xA28 PUSH2 0xA3B JUMP JUMPDEST DUP2 MSTORE PUSH1 0x20 ADD PUSH2 0xA35 PUSH2 0xA3B JUMP JUMPDEST DUP2 MSTORE POP SWAP1 JUMP JUMPDEST PUSH1 0x40 MLOAD DUP1 PUSH1 0x40 ADD PUSH1 0x40 MSTORE DUP1 PUSH1 0x2 SWAP1 PUSH1 0x20 DUP3 MUL DUP1 CALLDATASIZE DUP4 CALLDATACOPY DUP1 DUP3 ADD SWAP2 POP POP SWAP1 POP POP SWAP1 JUMP JUMPDEST PUSH0 PUSH1 0x40 MLOAD SWAP1 POP SWAP1 JUMP JUMPDEST PUSH0 PUSH0 REVERT JUMPDEST PUSH0 PUSH0 REVERT JUMPDEST PUSH0 PUSH1 0x1F NOT PUSH1 0x1F DUP4 ADD AND SWAP1 POP SWAP2 SWAP1 POP JUMP JUMPDEST PUSH32 0x4E487B7100000000000000000000000000000000000000000000000000000000 PUSH0 MSTORE PUSH1 0x41 PUSH1 0x4 MSTORE PUSH1 0x24 PUSH0 REVERT JUMPDEST PUSH2 0xAB4 DUP3 PUSH2 0xA6E JUMP JUMPDEST DUP2 ADD DUP2 DUP2 LT PUSH8 0xFFFFFFFFFFFFFFFF DUP3 GT OR ISZERO PUSH2 0xAD3 JUMPI PUSH2 0xAD2 PUSH2 0xA7E JUMP JUMPDEST JUMPDEST DUP1 PUSH1 0x40 MSTORE POP POP POP JUMP JUMPDEST PUSH0 PUSH2 0xAE5 PUSH2 0xA5D JUMP JUMPDEST SWAP1 POP PUSH2 0xAF1 DUP3 DUP3 PUSH2 0xAAB JUMP JUMPDEST SWAP2 SWAP1 POP JUMP JUMPDEST PUSH0 PUSH8 0xFFFFFFFFFFFFFFFF DUP3 GT ISZERO PUSH2 0xB10 JUMPI PUSH2 0xB0F PUSH2 0xA7E JUMP JUMPDEST JUMPDEST PUSH1 0x20 DUP3 MUL SWAP1 POP SWAP2 SWAP1 POP JUMP JUMPDEST PUSH0 PUSH0 REVERT JUMPDEST PUSH0 DUP2 SWAP1 POP SWAP2 SWAP1 POP JUMP JUMPDEST PUSH2 0xB31 DUP2 PUSH2 0xB1F JUMP JUMPDEST DUP2 EQ PUSH2 0xB3B JUMPI PUSH0 PUSH0 REVERT JUMPDEST POP JUMP JUMPDEST PUSH0 DUP2 CALLDATALOAD SWAP1 POP PUSH2 0xB4C DUP2 PUSH2 0xB28 JUMP JUMPDEST SWAP3 SWAP2 POP POP JUMP JUMPDEST PUSH0 PUSH2 0xB64 PUSH2 0xB5F DUP5 PUSH2 0xAF6 JUMP JUMPDEST PUSH2 0xADC JUMP JUMPDEST SWAP1 POP DUP1 PUSH1 0x20 DUP5 MUL DUP4 ADD DUP6 DUP2 GT ISZERO PUSH2 0xB7E JUMPI PUSH2 0xB7D PUSH2 0xB1B JUMP JUMPDEST JUMPDEST DUP4 JUMPDEST DUP2 DUP2 LT ISZERO PUSH2 0xBA7 JUMPI DUP1 PUSH2 0xB93 DUP9 DUP3 PUSH2 0xB3E JUMP JUMPDEST DUP5 MSTORE PUSH1 0x20 DUP5 ADD SWAP4 POP POP PUSH1 0x20 DUP2 ADD SWAP1 POP PUSH2 0xB80 JUMP JUMPDEST POP POP POP SWAP4 SWAP3 POP POP POP JUMP JUMPDEST PUSH0 DUP3 PUSH1 0x1F DUP4 ADD SLT PUSH2 0xBC5 JUMPI PUSH2 0xBC4 PUSH2 0xA6A JUMP JUMPDEST JUMPDEST PUSH1 0x8 PUSH2 0xBD2 DUP5 DUP3 DUP6 PUSH2 0xB52 JUMP JUMPDEST SWAP2 POP POP SWAP3 SWAP2 POP POP JUMP JUMPDEST PUSH0 PUSH8 0xFFFFFFFFFFFFFFFF DUP3 GT ISZERO PUSH2 0xBF5 JUMPI PUSH2 0xBF4 PUSH2 0xA7E JUMP JUMPDEST JUMPDEST PUSH1 0x20 DUP3 MUL SWAP1 POP SWAP2 SWAP1 POP JUMP JUMPDEST PUSH0 PUSH2 0xC12 PUSH2 0xC0D DUP5 PUSH2 0xBDB JUMP JUMPDEST PUSH2 0xADC JUMP JUMPDEST SWAP1 POP DUP1 PUSH1 0x20 DUP5 MUL DUP4 ADD DUP6 DUP2 GT ISZERO PUSH2 0xC2C JUMPI PUSH2 0xC2B PUSH2 0xB1B JUMP JUMPDEST JUMPDEST DUP4 JUMPDEST DUP2 DUP2 LT ISZERO PUSH2 0xC55 JUMPI DUP1 PUSH2 0xC41 DUP9 DUP3 PUSH2 0xB3E JUMP JUMPDEST DUP5 MSTORE PUSH1 0x20 DUP5 ADD SWAP4 POP POP PUSH1 0x20 DUP2 ADD SWAP1 POP PUSH2 0xC2E JUMP JUMPDEST POP POP POP SWAP4 SWAP3 POP POP POP JUMP JUMPDEST PUSH0 DUP3 PUSH1 0x1F DUP4 ADD SLT PUSH2 0xC73 JUMPI PUSH2 0xC72 PUSH2 0xA6A JUMP JUMPDEST JUMPDEST PUSH1 0xC PUSH2 0xC80 DUP5 DUP3 DUP6 PUSH2 0xC00 JUMP JUMPDEST SWAP2 POP POP SWAP3 SWAP2 POP POP JUMP JUMPDEST PUSH0 PUSH0 REVERT JUMPDEST PUSH0 PUSH1 0x40 DUP3 DUP5 SUB SLT ISZERO PUSH2 0xCA2 JUMPI PUSH2 0xCA1 PUSH2 0xC89 JUMP JUMPDEST JUMPDEST PUSH2 0xCAC PUSH1 0x40 PUSH2 0xADC JUMP JUMPDEST SWAP1 POP PUSH0 PUSH2 0xCBB DUP5 DUP3 DUP6 ADD PUSH2 0xB3E JUMP JUMPDEST PUSH0 DUP4 ADD MSTORE POP PUSH1 0x20 PUSH2 0xCCE DUP5 DUP3 DUP6 ADD PUSH2 0xB3E JUMP JUMPDEST PUSH1 0x20 DUP4 ADD MSTORE POP SWAP3 SWAP2 POP POP JUMP JUMPDEST PUSH0 PUSH8 0xFFFFFFFFFFFFFFFF DUP3 GT ISZERO PUSH2 0xCF4 JUMPI PUSH2 0xCF3 PUSH2 0xA7E JUMP JUMPDEST JUMPDEST PUSH1 0x20 DUP3 MUL SWAP1 POP SWAP2 SWAP1 POP JUMP JUMPDEST PUSH0 PUSH2 0xD11 PUSH2 0xD0C DUP5 PUSH2 0xCDA JUMP JUMPDEST PUSH2 0xADC JUMP JUMPDEST SWAP1 POP DUP1 PUSH1 0x20 DUP5 MUL DUP4 ADD DUP6 DUP2 GT ISZERO PUSH2 0xD2B JUMPI PUSH2 0xD2A PUSH2 0xB1B JUMP JUMPDEST JUMPDEST DUP4 JUMPDEST DUP2 DUP2 LT ISZERO PUSH2 0xD54 JUMPI DUP1 PUSH2 0xD40 DUP9 DUP3 PUSH2 0xB3E JUMP JUMPDEST DUP5 MSTORE PUSH1 0x20 DUP5 ADD SWAP4 POP POP PUSH1 0x20 DUP2 ADD SWAP1 POP PUSH2 0xD2D JUMP JUMPDEST POP POP POP SWAP4 SWAP3 POP POP POP JUMP JUMPDEST PUSH0 DUP3 PUSH1 0x1F DUP4 ADD SLT PUSH2 0xD72 JUMPI PUSH2 0xD71 PUSH2 0xA6A JUMP JUMPDEST JUMPDEST PUSH1 0x2 PUSH2 0xD7F DUP5 DUP3 DUP6 PUSH2 0xCFF JUMP JUMPDEST SWAP2 POP POP SWAP3 SWAP2 POP POP JUMP JUMPDEST PUSH0 PUSH1 0x80 DUP3 DUP5 SUB SLT ISZERO PUSH2 0xD9D JUMPI PUSH2 0xD9C PUSH2 0xC89 JUMP JUMPDEST JUMPDEST PUSH2 0xDA7 PUSH1 0x40 PUSH2 0xADC JUMP JUMPDEST SWAP1 POP PUSH0 PUSH2 0xDB6 DUP5 DUP3 DUP6 ADD PUSH2 0xD5E JUMP JUMPDEST PUSH0 DUP4 ADD MSTORE POP PUSH1 0x40 PUSH2 0xDC9 DUP5 DUP3 DUP6 ADD PUSH2 0xD5E JUMP JUMPDEST PUSH1 0x20 DUP4 ADD MSTORE POP SWAP3 SWAP2 POP POP JUMP JUMPDEST PUSH0 PUSH8 0xFFFFFFFFFFFFFFFF DUP3 GT ISZERO PUSH2 0xDEF JUMPI PUSH2 0xDEE PUSH2 0xA7E JUMP JUMPDEST JUMPDEST PUSH1 0x20 DUP3 MUL SWAP1 POP SWAP2 SWAP1 POP JUMP JUMPDEST PUSH0 PUSH2 0xE0C PUSH2 0xE07 DUP5 PUSH2 0xDD5 JUMP JUMPDEST PUSH2 0xADC JUMP JUMPDEST SWAP1 POP DUP1 PUSH1 0x40 DUP5 MUL DUP4 ADD DUP6 DUP2 GT ISZERO PUSH2 0xE26 JUMPI PUSH2 0xE25 PUSH2 0xB1B JUMP JUMPDEST JUMPDEST DUP4 JUMPDEST DUP2 DUP2 LT ISZERO PUSH2 0xE4F JUMPI DUP1 PUSH2 0xE3B DUP9 DUP3 PUSH2 0xC8D JUMP JUMPDEST DUP5 MSTORE PUSH1 0x20 DUP5 ADD SWAP4 POP POP PUSH1 0x40 DUP2 ADD SWAP1 POP PUSH2 0xE28 JUMP JUMPDEST POP POP POP SWAP4 SWAP3 POP POP POP JUMP JUMPDEST PUSH0 DUP3 PUSH1 0x1F DUP4 ADD SLT PUSH2 0xE6D JUMPI PUSH2 0xE6C PUSH2 0xA6A JUMP JUMPDEST JUMPDEST PUSH1 0xD PUSH2 0xE7A DUP5 DUP3 DUP6 PUSH2 0xDFA JUMP JUMPDEST SWAP2 POP POP SWAP3 SWAP2 POP POP JUMP JUMPDEST PUSH0 PUSH2 0x500 DUP3 DUP5 SUB SLT ISZERO PUSH2 0xE99 JUMPI PUSH2 0xE98 PUSH2 0xC89 JUMP JUMPDEST JUMPDEST PUSH2 0xEA3 PUSH1 0xA0 PUSH2 0xADC JUMP JUMPDEST SWAP1 POP PUSH0 PUSH2 0xEB2 DUP5 DUP3 DUP6 ADD PUSH2 0xC8D JUMP JUMPDEST PUSH0 DUP4 ADD MSTORE POP PUSH1 0x40 PUSH2 0xEC5 DUP5 DUP3 DUP6 ADD PUSH2 0xD88 JUMP JUMPDEST PUSH1 0x20 DUP4 ADD MSTORE POP PUSH1 0xC0 PUSH2 0xED9 DUP5 DUP3 DUP6 ADD PUSH2 0xD88 JUMP JUMPDEST PUSH1 0x40 DUP4 ADD MSTORE POP PUSH2 0x140 PUSH2 0xEEE DUP5 DUP3 DUP6 ADD PUSH2 0xD88 JUMP JUMPDEST PUSH1 0x60 DUP4 ADD MSTORE POP PUSH2 0x1C0 PUSH2 0xF03 DUP5 DUP3 DUP6 ADD PUSH2 0xE59 JUMP JUMPDEST PUSH1 0x80 DUP4 ADD MSTORE POP SWAP3 SWAP2 POP POP JUMP JUMPDEST PUSH0 PUSH0 PUSH0 PUSH2 0x780 DUP5 DUP7 SUB SLT ISZERO PUSH2 0xF27 JUMPI PUSH2 0xF26 PUSH2 0xA66 JUMP JUMPDEST JUMPDEST PUSH0 PUSH2 0xF34 DUP7 DUP3 DUP8 ADD PUSH2 0xBB1 JUMP JUMPDEST SWAP4 POP POP PUSH2 0x100 PUSH2 0xF46 DUP7 DUP3 DUP8 ADD PUSH2 0xC5F JUMP JUMPDEST SWAP3 POP POP PUSH2 0x280 PUSH2 0xF58 DUP7 DUP3 DUP8 ADD PUSH2 0xE83 JUMP JUMPDEST SWAP2 POP POP SWAP3 POP SWAP3 POP SWAP3 JUMP JUMPDEST PUSH0 DUP2 ISZERO ISZERO SWAP1 POP SWAP2 SWAP1 POP JUMP JUMPDEST PUSH2 0xF76 DUP2 PUSH2 0xF62 JUMP JUMPDEST DUP3 MSTORE POP POP JUMP JUMPDEST PUSH0 PUSH1 0x20 DUP3 ADD SWAP1 POP PUSH2 0xF8F PUSH0 DUP4 ADD DUP5 PUSH2 0xF6D JUMP JUMPDEST SWAP3 SWAP2 POP POP JUMP JUMPDEST PUSH32 0x4E487B7100000000000000000000000000000000000000000000000000000000 PUSH0 MSTORE PUSH1 0x32 PUSH1 0x4 MSTORE PUSH1 0x24 PUSH0 REVERT JUMPDEST PUSH0 DUP3 DUP3 MSTORE PUSH1 0x20 DUP3 ADD SWAP1 POP SWAP3 SWAP2 POP POP JUMP JUMPDEST PUSH32 0x76657269666965722D6774652D736E61726B2D7363616C61722D6669656C6400 PUSH0 DUP3 ADD MSTORE POP JUMP JUMPDEST PUSH0 PUSH2 0x1006 PUSH1 0x1F DUP4 PUSH2 0xFC2 JUMP JUMPDEST SWAP2 POP PUSH2 0x1011 DUP3 PUSH2 0xFD2 JUMP JUMPDEST PUSH1 0x20 DUP3 ADD SWAP1 POP SWAP2 SWAP1 POP JUMP JUMPDEST PUSH0 PUSH1 0x20 DUP3 ADD SWAP1 POP DUP2 DUP2 SUB PUSH0 DUP4 ADD MSTORE PUSH2 0x1033 DUP2 PUSH2 0xFFA JUMP JUMPDEST SWAP1 POP SWAP2 SWAP1 POP JUMP JUMPDEST PUSH32 0x4E487B7100000000000000000000000000000000000000000000000000000000 PUSH0 MSTORE PUSH1 0x11 PUSH1 0x4 MSTORE PUSH1 0x24 PUSH0 REVERT JUMPDEST PUSH0 PUSH2 0x1071 DUP3 PUSH2 0xB1F JUMP JUMPDEST SWAP2 POP PUSH2 0x107C DUP4 PUSH2 0xB1F JUMP JUMPDEST SWAP3 POP DUP3 DUP3 ADD SWAP1 POP DUP1 DUP3 GT ISZERO PUSH2 0x1094 JUMPI PUSH2 0x1093 PUSH2 0x103A JUMP JUMPDEST JUMPDEST SWAP3 SWAP2 POP POP JUMP JUMPDEST PUSH32 0x6164646974696F6E206661696C65640000000000000000000000000000000000 PUSH0 DUP3 ADD MSTORE POP JUMP JUMPDEST PUSH0 PUSH2 0x10CE PUSH1 0xF DUP4 PUSH2 0xFC2 JUMP JUMPDEST SWAP2 POP PUSH2 0x10D9 DUP3 PUSH2 0x109A JUMP JUMPDEST PUSH1 0x20 DUP3 ADD SWAP1 POP SWAP2 SWAP1 POP JUMP JUMPDEST PUSH0 PUSH1 0x20 DUP3 ADD SWAP1 POP DUP2 DUP2 SUB PUSH0 DUP4 ADD MSTORE PUSH2 0x10FB DUP2 PUSH2 0x10C2 JUMP JUMPDEST SWAP1 POP SWAP2 SWAP1 POP JUMP JUMPDEST PUSH32 0x7363616C6172206D756C206661696C6564000000000000000000000000000000 PUSH0 DUP3 ADD MSTORE POP JUMP JUMPDEST PUSH0 PUSH2 0x1136 PUSH1 0x11 DUP4 PUSH2 0xFC2 JUMP JUMPDEST SWAP2 POP PUSH2 0x1141 DUP3 PUSH2 0x1102 JUMP JUMPDEST PUSH1 0x20 DUP3 ADD SWAP1 POP SWAP2 SWAP1 POP JUMP JUMPDEST PUSH0 PUSH1 0x20 DUP3 ADD SWAP1 POP DUP2 DUP2 SUB PUSH0 DUP4 ADD MSTORE PUSH2 0x1163 DUP2 PUSH2 0x112A JUMP JUMPDEST SWAP1 POP SWAP2 SWAP1 POP JUMP JUMPDEST PUSH32 0x4E487B7100000000000000000000000000000000000000000000000000000000 PUSH0 MSTORE PUSH1 0x12 PUSH1 0x4 MSTORE PUSH1 0x24 PUSH0 REVERT JUMPDEST PUSH0 PUSH2 0x11A1 DUP3 PUSH2 0xB1F JUMP JUMPDEST SWAP2 POP PUSH2 0x11AC DUP4 PUSH2 0xB1F JUMP JUMPDEST SWAP3 POP DUP3 PUSH2 0x11BC JUMPI PUSH2 0x11BB PUSH2 0x116A JUMP JUMPDEST JUMPDEST DUP3 DUP3 MOD SWAP1 POP SWAP3 SWAP2 POP POP JUMP JUMPDEST PUSH0 PUSH2 0x11D1 DUP3 PUSH2 0xB1F JUMP JUMPDEST SWAP2 POP PUSH2 0x11DC DUP4 PUSH2 0xB1F JUMP JUMPDEST SWAP3 POP DUP3 DUP3 SUB SWAP1 POP DUP2 DUP2 GT ISZERO PUSH2 0x11F4 JUMPI PUSH2 0x11F3 PUSH2 0x103A JUMP JUMPDEST JUMPDEST SWAP3 SWAP2 POP POP JUMP JUMPDEST PUSH0 PUSH2 0x1204 DUP3 PUSH2 0xB1F JUMP JUMPDEST SWAP2 POP PUSH2 0x120F DUP4 PUSH2 0xB1F JUMP JUMPDEST SWAP3 POP DUP3 DUP3 MUL PUSH2 0x121D DUP2 PUSH2 0xB1F JUMP JUMPDEST SWAP2 POP DUP3 DUP3 DIV DUP5 EQ DUP4 ISZERO OR PUSH2 0x1234 JUMPI PUSH2 0x1233 PUSH2 0x103A JUMP JUMPDEST JUMPDEST POP SWAP3 SWAP2 POP POP JUMP JUMPDEST PUSH32 0x70616972696E67206661696C6564000000000000000000000000000000000000 PUSH0 DUP3 ADD MSTORE POP JUMP JUMPDEST PUSH0 PUSH2 0x126F PUSH1 0xE DUP4 PUSH2 0xFC2 JUMP JUMPDEST SWAP2 POP PUSH2 0x127A DUP3 PUSH2 0x123B JUMP JUMPDEST PUSH1 0x20 DUP3 ADD SWAP1 POP SWAP2 SWAP1 POP JUMP JUMPDEST PUSH0 PUSH1 0x20 DUP3 ADD SWAP1 POP DUP2 DUP2 SUB PUSH0 DUP4 ADD MSTORE PUSH2 0x129C DUP2 PUSH2 0x1263 JUMP JUMPDEST SWAP1 POP SWAP2 SWAP1 POP JUMP INVALID LOG2 PUSH5 0x6970667358 0x22 SLT KECCAK256 CALLDATALOAD 0xBC 0x2D PUSH11 0xCD8F3443941C97650AA3E3 0xDB 0xA7 0xAF 0xE2 0x23 0xC8 0xEE PUSH12 0x5F9B27D50DDB5A60A64736F PUSH13 0x634300081C0033000000000000 "
		},
		"gasEstimates": {
			"creation": {
				"codeDepositCost": "965000",
				"executionCost": "999",
				"totalCost": "965999"
			},
			"external": {
				"getPairingResult()": "2472",
				"pairingResult()": "2487",
				"verifyProof(uint256[8],uint256[12],((uint256,uint256),(uint256[2],uint256[2]),(uint256[2],uint256[2]),(uint256[2],uint256[2]),(uint256,uint256)[13]))": "infinite"
			}
		},
		"methodIdentifiers": {
			"getPairingResult()": "b7718040",
			"pairingResult()": "c110f9f1",
			"verifyProof(uint256[8],uint256[12],((uint256,uint256),(uint256[2],uint256[2]),(uint256[2],uint256[2]),(uint256[2],uint256[2]),(uint256,uint256)[13]))": "aaae5545"
		}
	},
	"abi": [
		{
			"inputs": [],
			"name": "getPairingResult",
			"outputs": [
				{
					"internalType": "bool",
					"name": "",
					"type": "bool"
				}
			],
			"stateMutability": "view",
			"type": "function"
		},
		{
			"inputs": [],
			"name": "pairingResult",
			"outputs": [
				{
					"internalType": "bool",
					"name": "",
					"type": "bool"
				}
			],
			"stateMutability": "view",
			"type": "function"
		},
		{
			"inputs": [
				{
					"internalType": "uint256[8]",
					"name": "proof",
					"type": "uint256[8]"
				},
				{
					"internalType": "uint256[12]",
					"name": "input",
					"type": "uint256[12]"
				},
				{
					"components": [
						{
							"components": [
								{
									"internalType": "uint256",
									"name": "X",
									"type": "uint256"
								},
								{
									"internalType": "uint256",
									"name": "Y",
									"type": "uint256"
								}
							],
							"internalType": "struct Pairing.G1Point",
							"name": "alpha1",
							"type": "tuple"
						},
						{
							"components": [
								{
									"internalType": "uint256[2]",
									"name": "X",
									"type": "uint256[2]"
								},
								{
									"internalType": "uint256[2]",
									"name": "Y",
									"type": "uint256[2]"
								}
							],
							"internalType": "struct Pairing.G2Point",
							"name": "beta2",
							"type": "tuple"
						},
						{
							"components": [
								{
									"internalType": "uint256[2]",
									"name": "X",
									"type": "uint256[2]"
								},
								{
									"internalType": "uint256[2]",
									"name": "Y",
									"type": "uint256[2]"
								}
							],
							"internalType": "struct Pairing.G2Point",
							"name": "gamma2",
							"type": "tuple"
						},
						{
							"components": [
								{
									"internalType": "uint256[2]",
									"name": "X",
									"type": "uint256[2]"
								},
								{
									"internalType": "uint256[2]",
									"name": "Y",
									"type": "uint256[2]"
								}
							],
							"internalType": "struct Pairing.G2Point",
							"name": "delta2",
							"type": "tuple"
						},
						{
							"components": [
								{
									"internalType": "uint256",
									"name": "X",
									"type": "uint256"
								},
								{
									"internalType": "uint256",
									"name": "Y",
									"type": "uint256"
								}
							],
							"internalType": "struct Pairing.G1Point[13]",
							"name": "public_input",
							"type": "tuple[13]"
						}
					],
					"internalType": "struct Groth16VerifyBn254.VerifyingKey",
					"name": "vk",
					"type": "tuple"
				}
			],
			"name": "verifyProof",
			"outputs": [],
			"stateMutability": "nonpayable",
			"type": "function"
		}
	]
}